{
  "contractName": "Cat",
  "abi": [
    {
      "constant": true,
      "inputs": [],
      "name": "vat",
      "outputs": [
        {
          "name": "",
          "type": "address"
        }
      ],
      "payable": false,
      "stateMutability": "view",
      "type": "function"
    },
    {
      "constant": true,
      "inputs": [],
      "name": "vow",
      "outputs": [
        {
          "name": "",
          "type": "address"
        }
      ],
      "payable": false,
      "stateMutability": "view",
      "type": "function"
    },
    {
      "constant": true,
      "inputs": [],
      "name": "live",
      "outputs": [
        {
          "name": "",
          "type": "uint256"
        }
      ],
      "payable": false,
      "stateMutability": "view",
      "type": "function"
    },
    {
      "constant": true,
      "inputs": [
        {
          "name": "",
          "type": "address"
        }
      ],
      "name": "wards",
      "outputs": [
        {
          "name": "",
          "type": "uint256"
        }
      ],
      "payable": false,
      "stateMutability": "view",
      "type": "function"
    },
    {
      "constant": true,
      "inputs": [
        {
          "name": "",
          "type": "bytes32"
        }
      ],
      "name": "ilks",
      "outputs": [
        {
          "name": "flip",
          "type": "address"
        },
        {
          "name": "chop",
          "type": "uint256"
        },
        {
          "name": "lump",
          "type": "uint256"
        }
      ],
      "payable": false,
      "stateMutability": "view",
      "type": "function"
    },
    {
      "inputs": [
        {
          "name": "vat_",
          "type": "address"
        }
      ],
      "payable": false,
      "stateMutability": "nonpayable",
      "type": "constructor"
    },
    {
      "anonymous": false,
      "inputs": [
        {
          "indexed": true,
          "name": "ilk",
          "type": "bytes32"
        },
        {
          "indexed": true,
          "name": "urn",
          "type": "address"
        },
        {
          "indexed": false,
          "name": "ink",
          "type": "uint256"
        },
        {
          "indexed": false,
          "name": "art",
          "type": "uint256"
        },
        {
          "indexed": false,
          "name": "tab",
          "type": "uint256"
        },
        {
          "indexed": false,
          "name": "flip",
          "type": "address"
        },
        {
          "indexed": false,
          "name": "id",
          "type": "uint256"
        }
      ],
      "name": "Bite",
      "type": "event"
    },
    {
      "anonymous": true,
      "inputs": [
        {
          "indexed": true,
          "name": "sig",
          "type": "bytes4"
        },
        {
          "indexed": true,
          "name": "usr",
          "type": "address"
        },
        {
          "indexed": true,
          "name": "arg1",
          "type": "bytes32"
        },
        {
          "indexed": true,
          "name": "arg2",
          "type": "bytes32"
        },
        {
          "indexed": false,
          "name": "data",
          "type": "bytes"
        }
      ],
      "name": "LogNote",
      "type": "event"
    },
    {
      "constant": false,
      "inputs": [
        {
          "name": "usr",
          "type": "address"
        }
      ],
      "name": "rely",
      "outputs": [],
      "payable": false,
      "stateMutability": "nonpayable",
      "type": "function"
    },
    {
      "constant": false,
      "inputs": [
        {
          "name": "usr",
          "type": "address"
        }
      ],
      "name": "deny",
      "outputs": [],
      "payable": false,
      "stateMutability": "nonpayable",
      "type": "function"
    },
    {
      "constant": false,
      "inputs": [
        {
          "name": "ilk",
          "type": "bytes32"
        },
        {
          "name": "what",
          "type": "bytes32"
        },
        {
          "name": "data",
          "type": "uint256"
        }
      ],
      "name": "file",
      "outputs": [],
      "payable": false,
      "stateMutability": "nonpayable",
      "type": "function"
    },
    {
      "constant": false,
      "inputs": [
        {
          "name": "what",
          "type": "bytes32"
        },
        {
          "name": "data",
          "type": "address"
        }
      ],
      "name": "file",
      "outputs": [],
      "payable": false,
      "stateMutability": "nonpayable",
      "type": "function"
    },
    {
      "constant": false,
      "inputs": [
        {
          "name": "ilk",
          "type": "bytes32"
        },
        {
          "name": "what",
          "type": "bytes32"
        },
        {
          "name": "flip",
          "type": "address"
        }
      ],
      "name": "file",
      "outputs": [],
      "payable": false,
      "stateMutability": "nonpayable",
      "type": "function"
    },
    {
      "constant": false,
      "inputs": [
        {
          "name": "ilk",
          "type": "bytes32"
        },
        {
          "name": "urn",
          "type": "address"
        }
      ],
      "name": "bite",
      "outputs": [
        {
          "name": "id",
          "type": "uint256"
        }
      ],
      "payable": false,
      "stateMutability": "nonpayable",
      "type": "function"
    },
    {
      "constant": false,
      "inputs": [],
      "name": "cage",
      "outputs": [],
      "payable": false,
      "stateMutability": "nonpayable",
      "type": "function"
    }
  ],
  "bytecode": "0x60806040523480156200001157600080fd5b50604051602080620016638339810180604052620000339190810190620000de565b60016000803373ffffffffffffffffffffffffffffffffffffffff1673ffffffffffffffffffffffffffffffffffffffff1681526020019081526020016000208190555080600360006101000a81548173ffffffffffffffffffffffffffffffffffffffff021916908373ffffffffffffffffffffffffffffffffffffffff16021790555060016002819055505062000158565b600081519050620000d8816200013e565b92915050565b600060208284031215620000f157600080fd5b60006200010184828501620000c7565b91505092915050565b600062000117826200011e565b9050919050565b600073ffffffffffffffffffffffffffffffffffffffff82169050919050565b62000149816200010a565b81146200015557600080fd5b50565b6114fb80620001686000396000f3fe608060405234801561001057600080fd5b50600436106100b45760003560e01c8063957aa58c11610071578063957aa58c146101675780639c52a7f114610185578063bf353dbb146101a1578063d4e8be83146101d1578063d9638d36146101ed578063ebecb39d1461021f576100b4565b80631a0b287e146100b957806336569e77146100d557806345cf2230146100f3578063626cb3c51461012357806365fae35e14610141578063692450091461015d575b600080fd5b6100d360048036036100ce9190810190611084565b61023b565b005b6100dd610346565b6040516100ea9190611301565b60405180910390f35b61010d60048036036101089190810190610ff9565b61036c565b60405161011a9190611337565b60405180910390f35b61012b6108c6565b604051610138919061131c565b60405180910390f35b61015b60048036036101569190810190610fa7565b6108ec565b005b6101656109b1565b005b61016f610a39565b60405161017c9190611337565b60405180910390f35b61019f600480360361019a9190810190610fa7565b610a3f565b005b6101bb60048036036101b69190810190610fa7565b610b04565b6040516101c89190611337565b60405180910390f35b6101eb60048036036101e69190810190610ff9565b610b1c565b005b61020760048036036102029190810190610fd0565b610c08565b60405161021693929190611225565b60405180910390f35b61023960048036036102349190810190611035565b610c52565b005b60016000803373ffffffffffffffffffffffffffffffffffffffff1673ffffffffffffffffffffffffffffffffffffffff168152602001908152602001600020541461028657600080fd5b7f63686f70000000000000000000000000000000000000000000000000000000008214156102ca578060016000858152602001908152602001600020600101819055505b7f6c756d700000000000000000000000000000000000000000000000000000000082141561030e578060016000858152602001908152602001600020600201819055505b5961012081016040526020815260e0602082015260e0600060408301376024356004353360003560e01c60e01b61012085a450505050565b600360009054906101000a900473ffffffffffffffffffffffffffffffffffffffff1681565b6000610376610e51565b600360009054906101000a900473ffffffffffffffffffffffffffffffffffffffff1673ffffffffffffffffffffffffffffffffffffffff1663d9638d36856040518263ffffffff1660e01b81526004016103d1919061125c565b60806040518083038186803b1580156103e957600080fd5b505afa1580156103fd573d6000803e3d6000fd5b505050506040513d601f19601f8201168201806040525061042191908101906110d3565b905061042b610e79565b600360009054906101000a900473ffffffffffffffffffffffffffffffffffffffff1673ffffffffffffffffffffffffffffffffffffffff16632424be5c86866040518363ffffffff1660e01b8152600401610488929190611277565b604080518083038186803b15801561049f57600080fd5b505afa1580156104b3573d6000803e3d6000fd5b505050506040513d601f19601f820116820180604052506104d791908101906110fc565b90506001600254146104e857600080fd5b6104fa81602001518360200151610de0565b61050c82600001518460400151610de0565b1061051657600080fd5b600061053c82600001516001600089815260200190815260200160002060020154610e0c565b905060006105688360200151846000015161055b858760200151610de0565b8161056257fe5b04610e0c565b9050600061057a828660200151610de0565b90507f800000000000000000000000000000000000000000000000000000000000000083111580156105cc57507f80000000000000000000000000000000000000000000000000000000000000008211155b6105d557600080fd5b600360009054906101000a900473ffffffffffffffffffffffffffffffffffffffff1673ffffffffffffffffffffffffffffffffffffffff16637bab3f40898930600460009054906101000a900473ffffffffffffffffffffffffffffffffffffffff1688600003886000036040518763ffffffff1660e01b8152600401610662969594939291906112a0565b600060405180830381600087803b15801561067c57600080fd5b505af1158015610690573d6000803e3d6000fd5b50505050600460009054906101000a900473ffffffffffffffffffffffffffffffffffffffff1673ffffffffffffffffffffffffffffffffffffffff1663697efb78826040518263ffffffff1660e01b81526004016106ef9190611337565b600060405180830381600087803b15801561070957600080fd5b505af115801561071d573d6000803e3d6000fd5b505050506001600089815260200190815260200160002060000160009054906101000a900473ffffffffffffffffffffffffffffffffffffffff1673ffffffffffffffffffffffffffffffffffffffff1663351de60088600460009054906101000a900473ffffffffffffffffffffffffffffffffffffffff166107b785600160008f815260200190815260200160002060010154610e28565b8760006040518663ffffffff1660e01b81526004016107da9594939291906111d2565b602060405180830381600087803b1580156107f457600080fd5b505af1158015610808573d6000803e3d6000fd5b505050506040513d601f19601f8201168201806040525061082c9190810190611125565b95508673ffffffffffffffffffffffffffffffffffffffff16887fa716da86bc1fb6d43d1493373f34d7a418b619681cd7b90f7ea667ba1489be28858585600160008f815260200190815260200160002060000160009054906101000a900473ffffffffffffffffffffffffffffffffffffffff168c6040516108b3959493929190611352565b60405180910390a3505050505092915050565b600460009054906101000a900473ffffffffffffffffffffffffffffffffffffffff1681565b60016000803373ffffffffffffffffffffffffffffffffffffffff1673ffffffffffffffffffffffffffffffffffffffff168152602001908152602001600020541461093757600080fd5b60016000808373ffffffffffffffffffffffffffffffffffffffff1673ffffffffffffffffffffffffffffffffffffffff168152602001908152602001600020819055505961012081016040526020815260e0602082015260e0600060408301376024356004353360003560e01c60e01b61012085a45050565b60016000803373ffffffffffffffffffffffffffffffffffffffff1673ffffffffffffffffffffffffffffffffffffffff16815260200190815260200160002054146109fc57600080fd5b60006002819055505961012081016040526020815260e0602082015260e0600060408301376024356004353360003560e01c60e01b61012085a450565b60025481565b60016000803373ffffffffffffffffffffffffffffffffffffffff1673ffffffffffffffffffffffffffffffffffffffff1681526020019081526020016000205414610a8a57600080fd5b60008060008373ffffffffffffffffffffffffffffffffffffffff1673ffffffffffffffffffffffffffffffffffffffff168152602001908152602001600020819055505961012081016040526020815260e0602082015260e0600060408301376024356004353360003560e01c60e01b61012085a45050565b60006020528060005260406000206000915090505481565b60016000803373ffffffffffffffffffffffffffffffffffffffff1673ffffffffffffffffffffffffffffffffffffffff1681526020019081526020016000205414610b6757600080fd5b7f766f770000000000000000000000000000000000000000000000000000000000821415610bd15780600460006101000a81548173ffffffffffffffffffffffffffffffffffffffff021916908373ffffffffffffffffffffffffffffffffffffffff1602179055505b5961012081016040526020815260e0602082015260e0600060408301376024356004353360003560e01c60e01b61012085a4505050565b60016020528060005260406000206000915090508060000160009054906101000a900473ffffffffffffffffffffffffffffffffffffffff16908060010154908060020154905083565b60016000803373ffffffffffffffffffffffffffffffffffffffff1673ffffffffffffffffffffffffffffffffffffffff1681526020019081526020016000205414610c9d57600080fd5b7f666c697000000000000000000000000000000000000000000000000000000000821415610da857806001600085815260200190815260200160002060000160006101000a81548173ffffffffffffffffffffffffffffffffffffffff021916908373ffffffffffffffffffffffffffffffffffffffff160217905550600360009054906101000a900473ffffffffffffffffffffffffffffffffffffffff1673ffffffffffffffffffffffffffffffffffffffff1663a3b22fc4826040518263ffffffff1660e01b8152600401610d7591906111b7565b600060405180830381600087803b158015610d8f57600080fd5b505af1158015610da3573d6000803e3d6000fd5b505050505b5961012081016040526020815260e0602082015260e0600060408301376024356004353360003560e01c60e01b61012085a450505050565b600080821480610dfd5750828283850292508281610dfa57fe5b04145b610e0657600080fd5b92915050565b600081831115610e1e57819050610e22565b8290505b92915050565b60006b033b2e3c9fd0803ce8000000610e418484610de0565b81610e4857fe5b04905092915050565b6040518060800160405280600081526020016000815260200160008152602001600081525090565b604051806040016040528060008152602001600081525090565b600081359050610ea28161147c565b92915050565b600081359050610eb781611493565b92915050565b600060808284031215610ecf57600080fd5b610ed960806113a5565b90506000610ee984828501610f92565b6000830152506020610efd84828501610f92565b6020830152506040610f1184828501610f92565b6040830152506060610f2584828501610f92565b60608301525092915050565b600060408284031215610f4357600080fd5b610f4d60406113a5565b90506000610f5d84828501610f92565b6000830152506020610f7184828501610f92565b60208301525092915050565b600081359050610f8c816114aa565b92915050565b600081519050610fa1816114aa565b92915050565b600060208284031215610fb957600080fd5b6000610fc784828501610e93565b91505092915050565b600060208284031215610fe257600080fd5b6000610ff084828501610ea8565b91505092915050565b6000806040838503121561100c57600080fd5b600061101a85828601610ea8565b925050602061102b85828601610e93565b9150509250929050565b60008060006060848603121561104a57600080fd5b600061105886828701610ea8565b935050602061106986828701610ea8565b925050604061107a86828701610e93565b9150509250925092565b60008060006060848603121561109957600080fd5b60006110a786828701610ea8565b93505060206110b886828701610ea8565b92505060406110c986828701610f7d565b9150509250925092565b6000608082840312156110e557600080fd5b60006110f384828501610ebd565b91505092915050565b60006040828403121561110e57600080fd5b600061111c84828501610f31565b91505092915050565b60006020828403121561113757600080fd5b600061114584828501610f92565b91505092915050565b611157816113d2565b82525050565b611166816113e4565b82525050565b61117581611422565b82525050565b61118481611446565b82525050565b611193816113ee565b82525050565b6111a28161146a565b82525050565b6111b181611418565b82525050565b60006020820190506111cc600083018461114e565b92915050565b600060a0820190506111e7600083018861114e565b6111f4602083018761114e565b61120160408301866111a8565b61120e60608301856111a8565b61121b6080830184611199565b9695505050505050565b600060608201905061123a600083018661114e565b61124760208301856111a8565b61125460408301846111a8565b949350505050565b6000602082019050611271600083018461115d565b92915050565b600060408201905061128c600083018561115d565b611299602083018461114e565b9392505050565b600060c0820190506112b5600083018961115d565b6112c2602083018861114e565b6112cf604083018761114e565b6112dc606083018661114e565b6112e9608083018561118a565b6112f660a083018461118a565b979650505050505050565b6000602082019050611316600083018461116c565b92915050565b6000602082019050611331600083018461117b565b92915050565b600060208201905061134c60008301846111a8565b92915050565b600060a08201905061136760008301886111a8565b61137460208301876111a8565b61138160408301866111a8565b61138e606083018561114e565b61139b60808301846111a8565b9695505050505050565b6000604051905081810181811067ffffffffffffffff821117156113c857600080fd5b8060405250919050565b60006113dd826113f8565b9050919050565b6000819050919050565b6000819050919050565b600073ffffffffffffffffffffffffffffffffffffffff82169050919050565b6000819050919050565b600061142d82611434565b9050919050565b600061143f826113f8565b9050919050565b600061145182611458565b9050919050565b6000611463826113f8565b9050919050565b600061147582611418565b9050919050565b611485816113d2565b811461149057600080fd5b50565b61149c816113e4565b81146114a757600080fd5b50565b6114b381611418565b81146114be57600080fd5b5056fea265627a7a7230582033816606dde1277d3c6b08d2349845f84956fa734dec000dfb3a0f7ae5b9fa4e6c6578706572696d656e74616cf50037",
  "source": "/// cat.sol -- Dai liquidation module\n\n// Copyright (C) 2018 Rain <rainbreak@riseup.net>\n//\n// This program is free software: you can redistribute it and/or modify\n// it under the terms of the GNU Affero General Public License as published by\n// the Free Software Foundation, either version 3 of the License, or\n// (at your option) any later version.\n//\n// This program is distributed in the hope that it will be useful,\n// but WITHOUT ANY WARRANTY; without even the implied warranty of\n// MERCHANTABILITY or FITNESS FOR A PARTICULAR PURPOSE.  See the\n// GNU Affero General Public License for more details.\n//\n// You should have received a copy of the GNU Affero General Public License\n// along with this program.  If not, see <https://www.gnu.org/licenses/>.\n\npragma solidity >=0.5.0;\npragma experimental ABIEncoderV2;\nimport \"./lib.sol\";\n\ncontract Kicker {\n    function kick(address urn, address gal, uint tab, uint lot, uint bid)\n        public returns (uint);\n}\n\ncontract VatLike {\n    struct Ilk {\n        uint256 Art;   // wad\n        uint256 rate;  // ray\n        uint256 spot;  // ray\n        uint256 line;  // rad\n    }\n    struct Urn {\n        uint256 ink;   // wad\n        uint256 art;   // wad\n    }\n    function ilks(bytes32) external view returns (Ilk memory);\n    function urns(bytes32,address) external view returns (Urn memory);\n    function grab(bytes32,address,address,address,int,int) external;\n    function hope(address) external;\n}\n\ncontract VowLike {\n    function fess(uint) external;\n}\n\ncontract Cat is DSNote {\n    // --- Auth ---\n    mapping (address => uint) public wards;\n    function rely(address usr) external note auth { wards[usr] = 1; }\n    function deny(address usr) external note auth { wards[usr] = 0; }\n    modifier auth { require(wards[msg.sender] == 1); _; }\n\n    // --- Data ---\n    struct Ilk {\n        address flip;  // Liquidator\n        uint256 chop;  // Liquidation Penalty   [ray]\n        uint256 lump;  // Liquidation Quantity  [wad]\n    }\n\n    mapping (bytes32 => Ilk) public ilks;\n\n    uint256 public live;\n    VatLike public vat;\n    VowLike public vow;\n\n    // --- Events ---\n    event Bite(\n      bytes32 indexed ilk,\n      address indexed urn,\n      uint256 ink,\n      uint256 art,\n      uint256 tab,\n      address flip,\n      uint256 id\n    );\n\n    // --- Init ---\n    constructor(address vat_) public {\n        wards[msg.sender] = 1;\n        vat = VatLike(vat_);\n        live = 1;\n    }\n\n    // --- Math ---\n    uint constant ONE = 10 ** 27;\n\n    function mul(uint x, uint y) internal pure returns (uint z) {\n        require(y == 0 || (z = x * y) / y == x);\n    }\n    function rmul(uint x, uint y) internal pure returns (uint z) {\n        z = mul(x, y) / ONE;\n    }\n    function min(uint x, uint y) internal pure returns (uint z) {\n        if (x > y) { z = y; } else { z = x; }\n    }\n\n    // --- Administration ---\n    function file(bytes32 what, address data) external note auth {\n        if (what == \"vow\") vow = VowLike(data);\n    }\n    function file(bytes32 ilk, bytes32 what, uint data) external note auth {\n        if (what == \"chop\") ilks[ilk].chop = data;\n        if (what == \"lump\") ilks[ilk].lump = data;\n    }\n    function file(bytes32 ilk, bytes32 what, address flip) external note auth {\n        if (what == \"flip\") { ilks[ilk].flip = flip; vat.hope(flip); }\n    }\n\n    // --- CDP Liquidation ---\n    function bite(bytes32 ilk, address urn) external returns (uint id) {\n        VatLike.Ilk memory i = vat.ilks(ilk);\n        VatLike.Urn memory u = vat.urns(ilk, urn);\n\n        require(live == 1);\n        require(mul(u.ink, i.spot) < mul(u.art, i.rate));\n\n        uint lot = min(u.ink, ilks[ilk].lump);\n        uint art = min(u.art, mul(lot, u.art) / u.ink);\n        uint tab = mul(art, i.rate);\n\n        require(lot <= 2**255 && art <= 2**255);\n        vat.grab(ilk, urn, address(this), address(vow), -int(lot), -int(art));\n\n        vow.fess(tab);\n        id = Kicker(ilks[ilk].flip).kick({ urn: urn\n                                         , gal: address(vow)\n                                         , tab: rmul(tab, ilks[ilk].chop)\n                                         , lot: lot\n                                         , bid: 0\n                                         });\n\n        emit Bite(ilk, urn, lot, art, tab, ilks[ilk].flip, id);\n    }\n\n    function cage() external note auth {\n        live = 0;\n    }\n}\n",
  "sourcePath": "E:\\Dss-deployTest2\\lib\\dss\\contracts\\cat.sol",
  "compiler": {
    "name": "solc",
    "version": "0.5.8+commit.23d335f2.Emscripten.clang"
  },
  "schemaVersion": "3.0.11",
  "updatedAt": "2019-08-20T06:26:04.439Z",
  "devdoc": {
    "methods": {}
  },
  "userdoc": {
    "methods": {}
  }
}