{
  "contractName": "DSPause",
  "abi": [
    {
      "constant": true,
      "inputs": [],
      "name": "delay",
      "outputs": [
        {
          "name": "",
          "type": "uint256"
        }
      ],
      "payable": false,
      "stateMutability": "view",
      "type": "function"
    },
    {
      "constant": true,
      "inputs": [],
      "name": "owner",
      "outputs": [
        {
          "name": "",
          "type": "address"
        }
      ],
      "payable": false,
      "stateMutability": "view",
      "type": "function"
    },
    {
      "constant": true,
      "inputs": [
        {
          "name": "",
          "type": "bytes32"
        }
      ],
      "name": "plans",
      "outputs": [
        {
          "name": "",
          "type": "bool"
        }
      ],
      "payable": false,
      "stateMutability": "view",
      "type": "function"
    },
    {
      "constant": true,
      "inputs": [],
      "name": "authority",
      "outputs": [
        {
          "name": "",
          "type": "address"
        }
      ],
      "payable": false,
      "stateMutability": "view",
      "type": "function"
    },
    {
      "constant": true,
      "inputs": [],
      "name": "proxy",
      "outputs": [
        {
          "name": "",
          "type": "address"
        }
      ],
      "payable": false,
      "stateMutability": "view",
      "type": "function"
    },
    {
      "inputs": [
        {
          "name": "delay_",
          "type": "uint256"
        },
        {
          "name": "owner_",
          "type": "address"
        },
        {
          "name": "authority_",
          "type": "address"
        }
      ],
      "payable": false,
      "stateMutability": "nonpayable",
      "type": "constructor"
    },
    {
      "anonymous": true,
      "inputs": [
        {
          "indexed": true,
          "name": "sig",
          "type": "bytes4"
        },
        {
          "indexed": true,
          "name": "guy",
          "type": "address"
        },
        {
          "indexed": true,
          "name": "foo",
          "type": "bytes32"
        },
        {
          "indexed": true,
          "name": "bar",
          "type": "bytes32"
        },
        {
          "indexed": false,
          "name": "wad",
          "type": "uint256"
        },
        {
          "indexed": false,
          "name": "fax",
          "type": "bytes"
        }
      ],
      "name": "LogNote",
      "type": "event"
    },
    {
      "anonymous": false,
      "inputs": [
        {
          "indexed": true,
          "name": "authority",
          "type": "address"
        }
      ],
      "name": "LogSetAuthority",
      "type": "event"
    },
    {
      "anonymous": false,
      "inputs": [
        {
          "indexed": true,
          "name": "owner",
          "type": "address"
        }
      ],
      "name": "LogSetOwner",
      "type": "event"
    },
    {
      "constant": false,
      "inputs": [
        {
          "name": "owner_",
          "type": "address"
        }
      ],
      "name": "setOwner",
      "outputs": [],
      "payable": false,
      "stateMutability": "nonpayable",
      "type": "function"
    },
    {
      "constant": false,
      "inputs": [
        {
          "name": "authority_",
          "type": "address"
        }
      ],
      "name": "setAuthority",
      "outputs": [],
      "payable": false,
      "stateMutability": "nonpayable",
      "type": "function"
    },
    {
      "constant": false,
      "inputs": [
        {
          "name": "delay_",
          "type": "uint256"
        }
      ],
      "name": "setDelay",
      "outputs": [],
      "payable": true,
      "stateMutability": "payable",
      "type": "function"
    },
    {
      "constant": false,
      "inputs": [
        {
          "name": "usr",
          "type": "address"
        },
        {
          "name": "tag",
          "type": "bytes32"
        },
        {
          "name": "fax",
          "type": "bytes"
        },
        {
          "name": "eta",
          "type": "uint256"
        }
      ],
      "name": "plot",
      "outputs": [],
      "payable": true,
      "stateMutability": "payable",
      "type": "function"
    },
    {
      "constant": false,
      "inputs": [
        {
          "name": "usr",
          "type": "address"
        },
        {
          "name": "tag",
          "type": "bytes32"
        },
        {
          "name": "fax",
          "type": "bytes"
        },
        {
          "name": "eta",
          "type": "uint256"
        }
      ],
      "name": "drop",
      "outputs": [],
      "payable": true,
      "stateMutability": "payable",
      "type": "function"
    },
    {
      "constant": false,
      "inputs": [
        {
          "name": "usr",
          "type": "address"
        },
        {
          "name": "tag",
          "type": "bytes32"
        },
        {
          "name": "fax",
          "type": "bytes"
        },
        {
          "name": "eta",
          "type": "uint256"
        }
      ],
      "name": "exec",
      "outputs": [
        {
          "name": "out",
          "type": "bytes"
        }
      ],
      "payable": true,
      "stateMutability": "payable",
      "type": "function"
    }
  ],
  "bytecode": "0x608060405234801561001057600080fd5b50604051606080611eb98339810180604052606081101561003057600080fd5b8101908080519060200190929190805190602001909291908051906020019092919050505033600160006101000a81548173ffffffffffffffffffffffffffffffffffffffff021916908373ffffffffffffffffffffffffffffffffffffffff1602179055503373ffffffffffffffffffffffffffffffffffffffff167fce241d7ca1f669fee44b6fc00b8eba2df3bb514eed0f6f668f8f89096e81ed9460405160405180910390a28260048190555081600160006101000a81548173ffffffffffffffffffffffffffffffffffffffff021916908373ffffffffffffffffffffffffffffffffffffffff160217905550806000806101000a81548173ffffffffffffffffffffffffffffffffffffffff021916908373ffffffffffffffffffffffffffffffffffffffff16021790555060405161016d906101d2565b604051809103906000f080158015610189573d6000803e3d6000fd5b50600360006101000a81548173ffffffffffffffffffffffffffffffffffffffff021916908373ffffffffffffffffffffffffffffffffffffffff1602179055505050506101df565b61048380611a3683390190565b611848806101ee6000396000f3fe60806040526004361061009c5760003560e01c80637a9e5e4b116100645780637a9e5e4b146104635780638da5cb5b146104b4578063aa4f26531461050b578063bf7e214f1461055e578063e177246e146105b5578063ec556889146105e35761009c565b806313af4035146100a1578063162c7de3146100f2578063168ccd67146101e157806346d2fbbb146103495780636a42b8f814610438575b600080fd5b3480156100ad57600080fd5b506100f0600480360360208110156100c457600080fd5b81019080803573ffffffffffffffffffffffffffffffffffffffff16906020019092919050505061063a565b005b6101df6004803603608081101561010857600080fd5b81019080803573ffffffffffffffffffffffffffffffffffffffff169060200190929190803590602001909291908035906020019064010000000081111561014f57600080fd5b82018360208201111561016157600080fd5b8035906020019184600183028401116401000000008311171561018357600080fd5b91908080601f016020809104026020016040519081016040528093929190818152602001838380828437600081840152601f19601f820116905080830192505050505050509192919290803590602001909291905050506107a6565b005b6102ce600480360360808110156101f757600080fd5b81019080803573ffffffffffffffffffffffffffffffffffffffff169060200190929190803590602001909291908035906020019064010000000081111561023e57600080fd5b82018360208201111561025057600080fd5b8035906020019184600183028401116401000000008311171561027257600080fd5b91908080601f016020809104026020016040519081016040528093929190818152602001838380828437600081840152601f19601f82011690508083019250505050505050919291929080359060200190929190505050610940565b6040518080602001828103825283818151815260200191508051906020019080838360005b8381101561030e5780820151818401526020810190506102f3565b50505050905090810190601f16801561033b5780820380516001836020036101000a031916815260200191505b509250505060405180910390f35b6104366004803603608081101561035f57600080fd5b81019080803573ffffffffffffffffffffffffffffffffffffffff16906020019092919080359060200190929190803590602001906401000000008111156103a657600080fd5b8201836020820111156103b857600080fd5b803590602001918460018302840111640100000000831117156103da57600080fd5b91908080601f016020809104026020016040519081016040528093929190818152602001838380828437600081840152601f19601f82011690508083019250505050505050919291929080359060200190929190505050610eb3565b005b34801561044457600080fd5b5061044d6110ce565b6040518082815260200191505060405180910390f35b34801561046f57600080fd5b506104b26004803603602081101561048657600080fd5b81019080803573ffffffffffffffffffffffffffffffffffffffff1690602001909291905050506110d4565b005b3480156104c057600080fd5b506104c961123e565b604051808273ffffffffffffffffffffffffffffffffffffffff1673ffffffffffffffffffffffffffffffffffffffff16815260200191505060405180910390f35b34801561051757600080fd5b506105446004803603602081101561052e57600080fd5b8101908080359060200190929190505050611264565b604051808215151515815260200191505060405180910390f35b34801561056a57600080fd5b50610573611284565b604051808273ffffffffffffffffffffffffffffffffffffffff1673ffffffffffffffffffffffffffffffffffffffff16815260200191505060405180910390f35b6105e1600480360360208110156105cb57600080fd5b81019080803590602001909291905050506112a9565b005b3480156105ef57600080fd5b506105f8611433565b604051808273ffffffffffffffffffffffffffffffffffffffff1673ffffffffffffffffffffffffffffffffffffffff16815260200191505060405180910390f35b600360009054906101000a900473ffffffffffffffffffffffffffffffffffffffff1673ffffffffffffffffffffffffffffffffffffffff163373ffffffffffffffffffffffffffffffffffffffff16146106fd576040517f08c379a00000000000000000000000000000000000000000000000000000000081526004018080602001828103825260178152602001807f64732d70617573652d756e64656c617965642d63616c6c00000000000000000081525060200191505060405180910390fd5b80600160006101000a81548173ffffffffffffffffffffffffffffffffffffffff021916908373ffffffffffffffffffffffffffffffffffffffff160217905550600160009054906101000a900473ffffffffffffffffffffffffffffffffffffffff1673ffffffffffffffffffffffffffffffffffffffff167fce241d7ca1f669fee44b6fc00b8eba2df3bb514eed0f6f668f8f89096e81ed9460405160405180910390a250565b60008060006004359250602435915034905081833373ffffffffffffffffffffffffffffffffffffffff166000357fffffffff00000000000000000000000000000000000000000000000000000000167bffffffffffffffffffffffffffffffffffffffffffffffffffffffff19168460003660405180848152602001806020018281038252848482818152602001925080828437600081840152601f19601f82011690508083019250505094505050505060405180910390a461088e336000357fffffffff0000000000000000000000000000000000000000000000000000000016611459565b610900576040517f08c379a00000000000000000000000000000000000000000000000000000000081526004018080602001828103825260148152602001807f64732d617574682d756e617574686f72697a656400000000000000000000000081525060200191505060405180910390fd5b6000600260006109128a8a8a8a6116b2565b815260200190815260200160002060006101000a81548160ff02191690831515021790555050505050505050565b606060008060006004359250602435915034905081833373ffffffffffffffffffffffffffffffffffffffff166000357fffffffff00000000000000000000000000000000000000000000000000000000167bffffffffffffffffffffffffffffffffffffffffffffffffffffffff19168460003660405180848152602001806020018281038252848482818152602001925080828437600081840152601f19601f82011690508083019250505094505050505060405180910390a460026000610a0c8a8a8a8a6116b2565b815260200190815260200160002060009054906101000a900460ff16610a9a576040517f08c379a00000000000000000000000000000000000000000000000000000000081526004018080602001828103825260178152602001807f64732d70617573652d756e706c6f747465642d706c616e00000000000000000081525060200191505060405180910390fd5b86610aa48961178e565b14610b17576040517f08c379a00000000000000000000000000000000000000000000000000000000081526004018080602001828103825260178152602001807f64732d70617573652d77726f6e672d636f64656861736800000000000000000081525060200191505060405180910390fd5b84421015610b8d576040517f08c379a00000000000000000000000000000000000000000000000000000000081526004018080602001828103825260178152602001807f64732d70617573652d7072656d61747572652d6578656300000000000000000081525060200191505060405180910390fd5b600060026000610b9f8b8b8b8b6116b2565b815260200190815260200160002060006101000a81548160ff021916908315150217905550600360009054906101000a900473ffffffffffffffffffffffffffffffffffffffff1673ffffffffffffffffffffffffffffffffffffffff1663be6002c289886040518363ffffffff1660e01b8152600401808373ffffffffffffffffffffffffffffffffffffffff1673ffffffffffffffffffffffffffffffffffffffff16815260200180602001828103825283818151815260200191508051906020019080838360005b83811015610c85578082015181840152602081019050610c6a565b50505050905090810190601f168015610cb25780820380516001836020036101000a031916815260200191505b509350505050600060405180830381600087803b158015610cd257600080fd5b505af1158015610ce6573d6000803e3d6000fd5b505050506040513d6000823e3d601f19601f820116820180604052506020811015610d1057600080fd5b810190808051640100000000811115610d2857600080fd5b82810190506020810184811115610d3e57600080fd5b8151856001820283011164010000000082111715610d5b57600080fd5b505092919050505093503073ffffffffffffffffffffffffffffffffffffffff16600360009054906101000a900473ffffffffffffffffffffffffffffffffffffffff1673ffffffffffffffffffffffffffffffffffffffff16638da5cb5b6040518163ffffffff1660e01b815260040160206040518083038186803b158015610de457600080fd5b505afa158015610df8573d6000803e3d6000fd5b505050506040513d6020811015610e0e57600080fd5b810190808051906020019092919050505073ffffffffffffffffffffffffffffffffffffffff1614610ea8576040517f08c379a000000000000000000000000000000000000000000000000000000000815260040180806020018281038252601f8152602001807f64732d70617573652d696c6c6567616c2d73746f726167652d6368616e67650081525060200191505060405180910390fd5b505050949350505050565b60008060006004359250602435915034905081833373ffffffffffffffffffffffffffffffffffffffff166000357fffffffff00000000000000000000000000000000000000000000000000000000167bffffffffffffffffffffffffffffffffffffffffffffffffffffffff19168460003660405180848152602001806020018281038252848482818152602001925080828437600081840152601f19601f82011690508083019250505094505050505060405180910390a4610f9b336000357fffffffff0000000000000000000000000000000000000000000000000000000016611459565b61100d576040517f08c379a00000000000000000000000000000000000000000000000000000000081526004018080602001828103825260148152602001807f64732d617574682d756e617574686f72697a656400000000000000000000000081525060200191505060405180910390fd5b61101942600454611799565b84101561108e576040517f08c379a000000000000000000000000000000000000000000000000000000000815260040180806020018281038252601c8152602001807f64732d70617573652d64656c61792d6e6f742d7265737065637465640000000081525060200191505060405180910390fd5b6001600260006110a08a8a8a8a6116b2565b815260200190815260200160002060006101000a81548160ff02191690831515021790555050505050505050565b60045481565b600360009054906101000a900473ffffffffffffffffffffffffffffffffffffffff1673ffffffffffffffffffffffffffffffffffffffff163373ffffffffffffffffffffffffffffffffffffffff1614611197576040517f08c379a00000000000000000000000000000000000000000000000000000000081526004018080602001828103825260178152602001807f64732d70617573652d756e64656c617965642d63616c6c00000000000000000081525060200191505060405180910390fd5b806000806101000a81548173ffffffffffffffffffffffffffffffffffffffff021916908373ffffffffffffffffffffffffffffffffffffffff1602179055506000809054906101000a900473ffffffffffffffffffffffffffffffffffffffff1673ffffffffffffffffffffffffffffffffffffffff167f1abebea81bfa2637f28358c371278fb15ede7ea8dd28d2e03b112ff6d936ada460405160405180910390a250565b600160009054906101000a900473ffffffffffffffffffffffffffffffffffffffff1681565b60026020528060005260406000206000915054906101000a900460ff1681565b6000809054906101000a900473ffffffffffffffffffffffffffffffffffffffff1681565b60008060006004359250602435915034905081833373ffffffffffffffffffffffffffffffffffffffff166000357fffffffff00000000000000000000000000000000000000000000000000000000167bffffffffffffffffffffffffffffffffffffffffffffffffffffffff19168460003660405180848152602001806020018281038252848482818152602001925080828437600081840152601f19601f82011690508083019250505094505050505060405180910390a4600360009054906101000a900473ffffffffffffffffffffffffffffffffffffffff1673ffffffffffffffffffffffffffffffffffffffff163373ffffffffffffffffffffffffffffffffffffffff1614611426576040517f08c379a00000000000000000000000000000000000000000000000000000000081526004018080602001828103825260178152602001807f64732d70617573652d756e64656c617965642d63616c6c00000000000000000081525060200191505060405180910390fd5b8360048190555050505050565b600360009054906101000a900473ffffffffffffffffffffffffffffffffffffffff1681565b60003073ffffffffffffffffffffffffffffffffffffffff168373ffffffffffffffffffffffffffffffffffffffff16141561149857600190506116ac565b600160009054906101000a900473ffffffffffffffffffffffffffffffffffffffff1673ffffffffffffffffffffffffffffffffffffffff168373ffffffffffffffffffffffffffffffffffffffff1614156114f757600190506116ac565b600073ffffffffffffffffffffffffffffffffffffffff166000809054906101000a900473ffffffffffffffffffffffffffffffffffffffff1673ffffffffffffffffffffffffffffffffffffffff16141561155657600090506116ac565b6000809054906101000a900473ffffffffffffffffffffffffffffffffffffffff1673ffffffffffffffffffffffffffffffffffffffff1663b70096138430856040518463ffffffff1660e01b8152600401808473ffffffffffffffffffffffffffffffffffffffff1673ffffffffffffffffffffffffffffffffffffffff1681526020018373ffffffffffffffffffffffffffffffffffffffff1673ffffffffffffffffffffffffffffffffffffffff168152602001827bffffffffffffffffffffffffffffffffffffffffffffffffffffffff19167bffffffffffffffffffffffffffffffffffffffffffffffffffffffff19168152602001935050505060206040518083038186803b15801561166e57600080fd5b505afa158015611682573d6000803e3d6000fd5b505050506040513d602081101561169857600080fd5b810190808051906020019092919050505090505b92915050565b600084848484604051602001808573ffffffffffffffffffffffffffffffffffffffff1673ffffffffffffffffffffffffffffffffffffffff16815260200184815260200180602001838152602001828103825284818151815260200191508051906020019080838360005b8381101561173957808201518184015260208101905061171e565b50505050905090810190601f1680156117665780820380516001836020036101000a031916815260200191505b5095505050505050604051602081830303815290604052805190602001209050949350505050565b6000813f9050919050565b6000818301905082811015611816576040517f08c379a000000000000000000000000000000000000000000000000000000000815260040180806020018281038252601a8152602001807f64732d70617573652d6164646974696f6e2d6f766572666c6f7700000000000081525060200191505060405180910390fd5b9291505056fea165627a7a723058200ab93661e00df46eb245bf3292ff40c7cf5ee4664f6079d6a3c46b6a21117d830029608060405234801561001057600080fd5b50336000806101000a81548173ffffffffffffffffffffffffffffffffffffffff021916908373ffffffffffffffffffffffffffffffffffffffff160217905550610423806100606000396000f3fe608060405234801561001057600080fd5b50600436106100365760003560e01c80638da5cb5b1461003b578063be6002c214610085575b600080fd5b6100436101d9565b604051808273ffffffffffffffffffffffffffffffffffffffff1673ffffffffffffffffffffffffffffffffffffffff16815260200191505060405180910390f35b61015e6004803603604081101561009b57600080fd5b81019080803573ffffffffffffffffffffffffffffffffffffffff169060200190929190803590602001906401000000008111156100d857600080fd5b8201836020820111156100ea57600080fd5b8035906020019184600183028401116401000000008311171561010c57600080fd5b91908080601f016020809104026020016040519081016040528093929190818152602001838380828437600081840152601f19601f8201169050808301925050505050505091929192905050506101fe565b6040518080602001828103825283818151815260200191508051906020019080838360005b8381101561019e578082015181840152602081019050610183565b50505050905090810190601f1680156101cb5780820380516001836020036101000a031916815260200191505b509250505060405180910390f35b6000809054906101000a900473ffffffffffffffffffffffffffffffffffffffff1681565b60606000809054906101000a900473ffffffffffffffffffffffffffffffffffffffff1673ffffffffffffffffffffffffffffffffffffffff163373ffffffffffffffffffffffffffffffffffffffff16146102c2576040517f08c379a000000000000000000000000000000000000000000000000000000000815260040180806020018281038252601b8152602001807f64732d70617573652d70726f78792d756e617574686f72697a6564000000000081525060200191505060405180910390fd5b60008373ffffffffffffffffffffffffffffffffffffffff16836040518082805190602001908083835b6020831061030f57805182526020820191506020810190506020830392506102ec565b6001836020036101000a038019825116818451168082178552505050505050905001915050600060405180830381855af49150503d806000811461036f576040519150601f19603f3d011682016040523d82523d6000602084013e610374565b606091505b508093508192505050806103f0576040517f08c379a000000000000000000000000000000000000000000000000000000000815260040180806020018281038252601b8152602001807f64732d70617573652d64656c656761746563616c6c2d6572726f72000000000081525060200191505060405180910390fd5b509291505056fea165627a7a72305820b748a09b5497af3fa471c7dacd62baa2df326a79851bdc30c96ab044e45956220029",
  "source": "// Copyright (C) 2019 David Terry <me@xwvvvvwx.com>\n//\n// This program is free software: you can redistribute it and/or modify\n// it under the terms of the GNU Affero General Public License as published by\n// the Free Software Foundation, either version 3 of the License, or\n// (at your option) any later version.\n//\n// This program is distributed in the hope that it will be useful,\n// but WITHOUT ANY WARRANTY; without even the implied warranty of\n// MERCHANTABILITY or FITNESS FOR A PARTICULAR PURPOSE.  See the\n// GNU Affero General Public License for more details.\n//\n// You should have received a copy of the GNU Affero General Public License\n// along with this program.  If not, see <https://www.gnu.org/licenses/>.\n\npragma solidity >=0.5.0 <0.6.0;\n\nimport {DSNote} from \"../../ds-note/src/note.sol\";\nimport {DSAuth, DSAuthority} from \"../../ds-auth/src/auth.sol\";\n\ncontract DSPause is DSAuth, DSNote {\n\n    // --- admin ---\n\n    modifier wait { require(msg.sender == address(proxy), \"ds-pause-undelayed-call\"); _; }\n\n    function setOwner(address owner_) public wait {\n        owner = owner_;\n        emit LogSetOwner(owner);\n    }\n    function setAuthority(DSAuthority authority_) public wait {\n        authority = authority_;\n        emit LogSetAuthority(address(authority));\n    }\n    function setDelay(uint delay_) public payable note wait {\n        delay = delay_;\n    }\n\n    // --- math ---\n\n    function add(uint x, uint y) internal pure returns (uint z) {\n        z = x + y;\n        require(z >= x, \"ds-pause-addition-overflow\");\n    }\n\n    // --- data ---\n\n    mapping (bytes32 => bool) public plans;\n    DSPauseProxy public proxy;\n    uint         public delay;\n\n    // --- init ---\n\n    constructor(uint delay_, address owner_, DSAuthority authority_) public {\n        delay = delay_;\n        owner = owner_;\n        authority = authority_;\n        proxy = new DSPauseProxy();\n    }\n\n    // constructor(uint delay_, address owner_) public {\n    //     delay = delay_;\n    //     owner = owner_;\n    //     proxy = new DSPauseProxy();\n    // }\n\n\n    // --- util ---\n\n    function hash(address usr, bytes32 tag, bytes memory fax, uint eta)\n        internal pure\n        returns (bytes32)\n    {\n        return keccak256(abi.encode(usr, tag, fax, eta));\n    }\n\n    function soul(address usr)\n        internal view\n        returns (bytes32 tag)\n    {\n        assembly { tag := extcodehash(usr) }\n    }\n\n    // --- operations ---\n\n    function plot(address usr, bytes32 tag, bytes memory fax, uint eta)\n        public payable note auth\n    {\n        require(eta >= add(now, delay), \"ds-pause-delay-not-respected\");\n        plans[hash(usr, tag, fax, eta)] = true;\n    }\n\n    function drop(address usr, bytes32 tag, bytes memory fax, uint eta)\n        public  payable note auth\n    {\n        plans[hash(usr, tag, fax, eta)] = false;\n    }\n\n    function exec(address usr, bytes32 tag, bytes memory fax, uint eta)\n        public payable  note\n        returns (bytes memory out)\n    {\n        require(plans[hash(usr, tag, fax, eta)], \"ds-pause-unplotted-plan\");\n        require(soul(usr) == tag,                \"ds-pause-wrong-codehash\");\n        require(now >= eta,                      \"ds-pause-premature-exec\");\n\n        plans[hash(usr, tag, fax, eta)] = false;\n\n        out = proxy.exec(usr, fax);\n        require(proxy.owner() == address(this), \"ds-pause-illegal-storage-change\");\n    }\n}\n\n// plans are executed in an isolated storage context to protect the pause from\n// malicious storage modification during plan execution\ncontract DSPauseProxy {\n    address public owner;\n    modifier auth { require(msg.sender == owner, \"ds-pause-proxy-unauthorized\"); _; }\n    constructor() public { owner = msg.sender; }\n\n    function exec(address usr, bytes memory fax)\n        public auth\n        returns (bytes memory out)\n    {\n        bool ok;\n        (ok, out) = usr.delegatecall(fax);\n        require(ok, \"ds-pause-delegatecall-error\");\n    }\n}\n",
  "sourcePath": "E:\\Dss-deployTest2\\lib\\ds-pause\\src\\pause.sol",
  "compiler": {
    "name": "solc",
    "version": "0.5.8+commit.23d335f2.Emscripten.clang"
  },
  "schemaVersion": "3.0.12",
  "updatedAt": "2019-08-20T10:45:38.357Z",
  "devdoc": {
    "methods": {}
  },
  "userdoc": {
    "methods": {}
  }
}