{
  "contractName": "End",
  "abi": [
    {
      "constant": true,
      "inputs": [],
      "name": "debt",
      "outputs": [
        {
          "name": "",
          "type": "uint256"
        }
      ],
      "payable": false,
      "stateMutability": "view",
      "type": "function"
    },
    {
      "constant": true,
      "inputs": [],
      "name": "vat",
      "outputs": [
        {
          "name": "",
          "type": "address"
        }
      ],
      "payable": false,
      "stateMutability": "view",
      "type": "function"
    },
    {
      "constant": true,
      "inputs": [],
      "name": "vow",
      "outputs": [
        {
          "name": "",
          "type": "address"
        }
      ],
      "payable": false,
      "stateMutability": "view",
      "type": "function"
    },
    {
      "constant": true,
      "inputs": [
        {
          "name": "",
          "type": "bytes32"
        }
      ],
      "name": "fix",
      "outputs": [
        {
          "name": "",
          "type": "uint256"
        }
      ],
      "payable": false,
      "stateMutability": "view",
      "type": "function"
    },
    {
      "constant": true,
      "inputs": [],
      "name": "wait",
      "outputs": [
        {
          "name": "",
          "type": "uint256"
        }
      ],
      "payable": false,
      "stateMutability": "view",
      "type": "function"
    },
    {
      "constant": true,
      "inputs": [],
      "name": "spot",
      "outputs": [
        {
          "name": "",
          "type": "address"
        }
      ],
      "payable": false,
      "stateMutability": "view",
      "type": "function"
    },
    {
      "constant": true,
      "inputs": [
        {
          "name": "",
          "type": "address"
        }
      ],
      "name": "bag",
      "outputs": [
        {
          "name": "",
          "type": "uint256"
        }
      ],
      "payable": false,
      "stateMutability": "view",
      "type": "function"
    },
    {
      "constant": true,
      "inputs": [],
      "name": "live",
      "outputs": [
        {
          "name": "",
          "type": "uint256"
        }
      ],
      "payable": false,
      "stateMutability": "view",
      "type": "function"
    },
    {
      "constant": true,
      "inputs": [
        {
          "name": "",
          "type": "address"
        }
      ],
      "name": "wards",
      "outputs": [
        {
          "name": "",
          "type": "uint256"
        }
      ],
      "payable": false,
      "stateMutability": "view",
      "type": "function"
    },
    {
      "constant": true,
      "inputs": [
        {
          "name": "",
          "type": "bytes32"
        },
        {
          "name": "",
          "type": "address"
        }
      ],
      "name": "out",
      "outputs": [
        {
          "name": "",
          "type": "uint256"
        }
      ],
      "payable": false,
      "stateMutability": "view",
      "type": "function"
    },
    {
      "constant": true,
      "inputs": [
        {
          "name": "",
          "type": "bytes32"
        }
      ],
      "name": "Art",
      "outputs": [
        {
          "name": "",
          "type": "uint256"
        }
      ],
      "payable": false,
      "stateMutability": "view",
      "type": "function"
    },
    {
      "constant": true,
      "inputs": [],
      "name": "when",
      "outputs": [
        {
          "name": "",
          "type": "uint256"
        }
      ],
      "payable": false,
      "stateMutability": "view",
      "type": "function"
    },
    {
      "constant": true,
      "inputs": [],
      "name": "cat",
      "outputs": [
        {
          "name": "",
          "type": "address"
        }
      ],
      "payable": false,
      "stateMutability": "view",
      "type": "function"
    },
    {
      "constant": true,
      "inputs": [
        {
          "name": "",
          "type": "bytes32"
        }
      ],
      "name": "gap",
      "outputs": [
        {
          "name": "",
          "type": "uint256"
        }
      ],
      "payable": false,
      "stateMutability": "view",
      "type": "function"
    },
    {
      "constant": true,
      "inputs": [
        {
          "name": "",
          "type": "bytes32"
        }
      ],
      "name": "tag",
      "outputs": [
        {
          "name": "",
          "type": "uint256"
        }
      ],
      "payable": false,
      "stateMutability": "view",
      "type": "function"
    },
    {
      "inputs": [],
      "payable": false,
      "stateMutability": "nonpayable",
      "type": "constructor"
    },
    {
      "anonymous": true,
      "inputs": [
        {
          "indexed": true,
          "name": "sig",
          "type": "bytes4"
        },
        {
          "indexed": true,
          "name": "usr",
          "type": "address"
        },
        {
          "indexed": true,
          "name": "arg1",
          "type": "bytes32"
        },
        {
          "indexed": true,
          "name": "arg2",
          "type": "bytes32"
        },
        {
          "indexed": false,
          "name": "data",
          "type": "bytes"
        }
      ],
      "name": "LogNote",
      "type": "event"
    },
    {
      "constant": false,
      "inputs": [
        {
          "name": "guy",
          "type": "address"
        }
      ],
      "name": "rely",
      "outputs": [],
      "payable": false,
      "stateMutability": "nonpayable",
      "type": "function"
    },
    {
      "constant": false,
      "inputs": [
        {
          "name": "guy",
          "type": "address"
        }
      ],
      "name": "deny",
      "outputs": [],
      "payable": false,
      "stateMutability": "nonpayable",
      "type": "function"
    },
    {
      "constant": false,
      "inputs": [
        {
          "name": "what",
          "type": "bytes32"
        },
        {
          "name": "data",
          "type": "uint256"
        }
      ],
      "name": "file",
      "outputs": [],
      "payable": false,
      "stateMutability": "nonpayable",
      "type": "function"
    },
    {
      "constant": false,
      "inputs": [
        {
          "name": "what",
          "type": "bytes32"
        },
        {
          "name": "data",
          "type": "address"
        }
      ],
      "name": "file",
      "outputs": [],
      "payable": false,
      "stateMutability": "nonpayable",
      "type": "function"
    },
    {
      "constant": false,
      "inputs": [],
      "name": "cage",
      "outputs": [],
      "payable": false,
      "stateMutability": "nonpayable",
      "type": "function"
    },
    {
      "constant": false,
      "inputs": [
        {
          "name": "ilk",
          "type": "bytes32"
        }
      ],
      "name": "cage",
      "outputs": [],
      "payable": false,
      "stateMutability": "nonpayable",
      "type": "function"
    },
    {
      "constant": false,
      "inputs": [
        {
          "name": "ilk",
          "type": "bytes32"
        },
        {
          "name": "id",
          "type": "uint256"
        }
      ],
      "name": "skip",
      "outputs": [],
      "payable": false,
      "stateMutability": "nonpayable",
      "type": "function"
    },
    {
      "constant": false,
      "inputs": [
        {
          "name": "ilk",
          "type": "bytes32"
        },
        {
          "name": "urn",
          "type": "address"
        }
      ],
      "name": "skim",
      "outputs": [],
      "payable": false,
      "stateMutability": "nonpayable",
      "type": "function"
    },
    {
      "constant": false,
      "inputs": [
        {
          "name": "ilk",
          "type": "bytes32"
        }
      ],
      "name": "free",
      "outputs": [],
      "payable": false,
      "stateMutability": "nonpayable",
      "type": "function"
    },
    {
      "constant": false,
      "inputs": [],
      "name": "thaw",
      "outputs": [],
      "payable": false,
      "stateMutability": "nonpayable",
      "type": "function"
    },
    {
      "constant": false,
      "inputs": [
        {
          "name": "ilk",
          "type": "bytes32"
        }
      ],
      "name": "flow",
      "outputs": [],
      "payable": false,
      "stateMutability": "nonpayable",
      "type": "function"
    },
    {
      "constant": false,
      "inputs": [
        {
          "name": "wad",
          "type": "uint256"
        }
      ],
      "name": "pack",
      "outputs": [],
      "payable": false,
      "stateMutability": "nonpayable",
      "type": "function"
    },
    {
      "constant": false,
      "inputs": [
        {
          "name": "ilk",
          "type": "bytes32"
        },
        {
          "name": "wad",
          "type": "uint256"
        }
      ],
      "name": "cash",
      "outputs": [],
      "payable": false,
      "stateMutability": "nonpayable",
      "type": "function"
    }
  ],
  "bytecode": "0x608060405234801561001057600080fd5b5060016000803373ffffffffffffffffffffffffffffffffffffffff1673ffffffffffffffffffffffffffffffffffffffff168152602001908152602001600020819055506001600581905550612eba8061006c6000396000f3fe608060405234801561001057600080fd5b50600436106101c45760003560e01c80639255f809116100f9578063e1340a3d11610097578063e488181311610071578063e4881813146104b7578063e6ee62aa146104d5578063ee6447b514610505578063fe8507c614610535576101c4565b8063e1340a3d1461044d578063e2702fdc1461047d578063e2b0caef14610499576101c4565b8063bf353dbb116100d3578063bf353dbb146103b5578063c83062c6146103e5578063c939ebfc14610401578063d4e8be8314610431576101c4565b80639255f8091461034b578063957aa58c1461037b5780639c52a7f114610399576101c4565b806363fad85e11610166578063692450091161014057806369245009146102eb5780636ea42555146102f55780636f265b931461031157806389ea45d31461032f576101c4565b806363fad85e1461028157806364bd7013146102b157806365fae35e146102cf576101c4565b80634a10eaa6116101a25780634a10eaa614610221578063503ecf061461023d5780635920375c14610259578063626cb3c514610263576101c4565b80630dca59c1146101c957806329ae8114146101e757806336569e7714610203575b600080fd5b6101d1610551565b6040516101de9190612c79565b60405180910390f35b61020160048036036101fc919081019061281e565b610557565b005b61020b610609565b6040516102189190612c43565b60405180910390f35b61023b60048036036102369190810190612790565b61062f565b005b6102576004803603610252919081019061281e565b6107e3565b005b610261610df3565b005b61026b610fe1565b6040516102789190612c5e565b60405180910390f35b61029b60048036036102969190810190612790565b611007565b6040516102a89190612c79565b60405180910390f35b6102b961101f565b6040516102c69190612c79565b60405180910390f35b6102e960048036036102e49190810190612767565b611025565b005b6102f36110ea565b005b61030f600480360361030a9190810190612928565b61130e565b005b6103196114a8565b6040516103269190612c28565b60405180910390f35b610349600480360361034491908101906127e2565b6114ce565b005b61036560048036036103609190810190612767565b61183a565b6040516103729190612c79565b60405180910390f35b610383611852565b6040516103909190612c79565b60405180910390f35b6103b360048036036103ae9190810190612767565b611858565b005b6103cf60048036036103ca9190810190612767565b61191d565b6040516103dc9190612c79565b60405180910390f35b6103ff60048036036103fa9190810190612790565b611935565b005b61041b600480360361041691908101906127e2565b611b36565b6040516104289190612c79565b60405180910390f35b61044b600480360361044691908101906127e2565b611b5b565b005b61046760048036036104629190810190612790565b611d85565b6040516104749190612c79565b60405180910390f35b61049760048036036104929190810190612790565b611d9d565b005b6104a1612020565b6040516104ae9190612c79565b60405180910390f35b6104bf612026565b6040516104cc9190612c0d565b60405180910390f35b6104ef60048036036104ea9190810190612790565b61204c565b6040516104fc9190612c79565b60405180910390f35b61051f600480360361051a9190810190612790565b612064565b60405161052c9190612c79565b60405180910390f35b61054f600480360361054a919081019061281e565b61207c565b005b60085481565b60016000803373ffffffffffffffffffffffffffffffffffffffff1673ffffffffffffffffffffffffffffffffffffffff16815260200190815260200160002054146105a257600080fd5b7f77616974000000000000000000000000000000000000000000000000000000008214156105d257806007819055505b5961012081016040526020815260e0602082015260e0600060408301376024356004353360003560e01c60e01b61012085a4505050565b600160009054906101000a900473ffffffffffffffffffffffffffffffffffffffff1681565b6000600854141561063f57600080fd5b6000600c6000838152602001908152602001600020541461065f57600080fd5b610667612399565b600160009054906101000a900473ffffffffffffffffffffffffffffffffffffffff1673ffffffffffffffffffffffffffffffffffffffff1663d9638d36836040518263ffffffff1660e01b81526004016106c29190612a99565b60a060405180830381600087803b1580156106dc57600080fd5b505af11580156106f0573d6000803e3d6000fd5b505050506040513d601f19601f820116820180604052506107149190810190612884565b9050600061075561073c600b60008681526020019081526020016000205484602001516122cd565b60096000868152602001908152602001600020546122cd565b905061079461078c61077a83600a6000888152602001908152602001600020546122f6565b6b033b2e3c9fd0803ce8000000612310565b60085461233c565b600c60008581526020019081526020016000208190555050505961012081016040526020815260e0602082015260e0600060408301376024356004353360003560e01c60e01b61012085a45050565b60006009600084815260200190815260200160002054141561080457600080fd5b6000600260009054906101000a900473ffffffffffffffffffffffffffffffffffffffff1673ffffffffffffffffffffffffffffffffffffffff1663d9638d36846040518263ffffffff1660e01b81526004016108619190612a99565b606060405180830381600087803b15801561087b57600080fd5b505af115801561088f573d6000803e3d6000fd5b505050506040513d601f19601f820116820180604052506108b391908101906128ad565b6000015190506108c1612399565b600160009054906101000a900473ffffffffffffffffffffffffffffffffffffffff1673ffffffffffffffffffffffffffffffffffffffff1663d9638d36856040518263ffffffff1660e01b815260040161091c9190612a99565b60a060405180830381600087803b15801561093657600080fd5b505af115801561094a573d6000803e3d6000fd5b505050506040513d601f19601f8201168201806040525061096e9190810190612884565b90506109786123c8565b8273ffffffffffffffffffffffffffffffffffffffff16634423c5f1856040518263ffffffff1660e01b81526004016109b19190612c79565b6101006040518083038186803b1580156109ca57600080fd5b505afa1580156109de573d6000803e3d6000fd5b505050506040513d601f19601f82011682018060405250610a02919081019061285a565b9050600160009054906101000a900473ffffffffffffffffffffffffffffffffffffffff1673ffffffffffffffffffffffffffffffffffffffff1663f24e23eb600360009054906101000a900473ffffffffffffffffffffffffffffffffffffffff16600360009054906101000a900473ffffffffffffffffffffffffffffffffffffffff168460e001516040518463ffffffff1660e01b8152600401610aab93929190612a62565b600060405180830381600087803b158015610ac557600080fd5b505af1158015610ad9573d6000803e3d6000fd5b50505050600160009054906101000a900473ffffffffffffffffffffffffffffffffffffffff1673ffffffffffffffffffffffffffffffffffffffff1663f24e23eb600360009054906101000a900473ffffffffffffffffffffffffffffffffffffffff163084600001516040518463ffffffff1660e01b8152600401610b6293929190612a62565b600060405180830381600087803b158015610b7c57600080fd5b505af1158015610b90573d6000803e3d6000fd5b50505050600160009054906101000a900473ffffffffffffffffffffffffffffffffffffffff1673ffffffffffffffffffffffffffffffffffffffff1663a3b22fc4846040518263ffffffff1660e01b8152600401610bef9190612a10565b600060405180830381600087803b158015610c0957600080fd5b505af1158015610c1d573d6000803e3d6000fd5b505050508273ffffffffffffffffffffffffffffffffffffffff166326e027f1856040518263ffffffff1660e01b8152600401610c5a9190612c79565b600060405180830381600087803b158015610c7457600080fd5b505af1158015610c88573d6000803e3d6000fd5b50505050600081602001519050600083602001518360e0015181610ca857fe5b049050610cc8600b60008981526020019081526020016000205482612365565b600b60008981526020019081526020016000208190555060008212158015610cf1575060008112155b610cfa57600080fd5b600160009054906101000a900473ffffffffffffffffffffffffffffffffffffffff1673ffffffffffffffffffffffffffffffffffffffff16637bab3f40888560a0015130600360009054906101000a900473ffffffffffffffffffffffffffffffffffffffff1687876040518763ffffffff1660e01b8152600401610d8596959493929190612bac565b600060405180830381600087803b158015610d9f57600080fd5b505af1158015610db3573d6000803e3d6000fd5b5050505050505050505961012081016040526020815260e0602082015260e0600060408301376024356004353360003560e01c60e01b61012085a4505050565b600060055414610e0257600080fd5b600060085414610e1157600080fd5b6000600160009054906101000a900473ffffffffffffffffffffffffffffffffffffffff1673ffffffffffffffffffffffffffffffffffffffff16636c25b346600360009054906101000a900473ffffffffffffffffffffffffffffffffffffffff166040518263ffffffff1660e01b8152600401610e909190612a10565b60206040518083038186803b158015610ea857600080fd5b505afa158015610ebc573d6000803e3d6000fd5b505050506040513d601f19601f82011682018060405250610ee09190810190612951565b14610eea57600080fd5b610ef8600654600754612365565b421015610f0457600080fd5b600160009054906101000a900473ffffffffffffffffffffffffffffffffffffffff1673ffffffffffffffffffffffffffffffffffffffff16630dca59c16040518163ffffffff1660e01b8152600401602060405180830381600087803b158015610f6e57600080fd5b505af1158015610f82573d6000803e3d6000fd5b505050506040513d601f19601f82011682018060405250610fa69190810190612951565b6008819055505961012081016040526020815260e0602082015260e0600060408301376024356004353360003560e01c60e01b61012085a450565b600360009054906101000a900473ffffffffffffffffffffffffffffffffffffffff1681565b600c6020528060005260406000206000915090505481565b60075481565b60016000803373ffffffffffffffffffffffffffffffffffffffff1673ffffffffffffffffffffffffffffffffffffffff168152602001908152602001600020541461107057600080fd5b60016000808373ffffffffffffffffffffffffffffffffffffffff1673ffffffffffffffffffffffffffffffffffffffff168152602001908152602001600020819055505961012081016040526020815260e0602082015260e0600060408301376024356004353360003560e01c60e01b61012085a45050565b60016000803373ffffffffffffffffffffffffffffffffffffffff1673ffffffffffffffffffffffffffffffffffffffff168152602001908152602001600020541461113557600080fd5b60016005541461114457600080fd5b600060058190555042600681905550600160009054906101000a900473ffffffffffffffffffffffffffffffffffffffff1673ffffffffffffffffffffffffffffffffffffffff1663692450096040518163ffffffff1660e01b8152600401600060405180830381600087803b1580156111bd57600080fd5b505af11580156111d1573d6000803e3d6000fd5b50505050600260009054906101000a900473ffffffffffffffffffffffffffffffffffffffff1673ffffffffffffffffffffffffffffffffffffffff1663692450096040518163ffffffff1660e01b8152600401600060405180830381600087803b15801561123f57600080fd5b505af1158015611253573d6000803e3d6000fd5b50505050600360009054906101000a900473ffffffffffffffffffffffffffffffffffffffff1673ffffffffffffffffffffffffffffffffffffffff1663692450096040518163ffffffff1660e01b8152600401600060405180830381600087803b1580156112c157600080fd5b505af11580156112d5573d6000803e3d6000fd5b505050505961012081016040526020815260e0602082015260e0600060408301376024356004353360003560e01c60e01b61012085a450565b6000600854141561131e57600080fd5b600160009054906101000a900473ffffffffffffffffffffffffffffffffffffffff1673ffffffffffffffffffffffffffffffffffffffff1663bb35783b33600360009054906101000a900473ffffffffffffffffffffffffffffffffffffffff16611396856b033b2e3c9fd0803ce8000000612310565b6040518463ffffffff1660e01b81526004016113b493929190612a2b565b600060405180830381600087803b1580156113ce57600080fd5b505af11580156113e2573d6000803e3d6000fd5b5050505061142f600d60003373ffffffffffffffffffffffffffffffffffffffff1673ffffffffffffffffffffffffffffffffffffffff1681526020019081526020016000205482612365565b600d60003373ffffffffffffffffffffffffffffffffffffffff1673ffffffffffffffffffffffffffffffffffffffff168152602001908152602001600020819055505961012081016040526020815260e0602082015260e0600060408301376024356004353360003560e01c60e01b61012085a45050565b600460009054906101000a900473ffffffffffffffffffffffffffffffffffffffff1681565b6000600960008481526020019081526020016000205414156114ef57600080fd5b6114f7612399565b600160009054906101000a900473ffffffffffffffffffffffffffffffffffffffff1673ffffffffffffffffffffffffffffffffffffffff1663d9638d36846040518263ffffffff1660e01b81526004016115529190612a99565b60a060405180830381600087803b15801561156c57600080fd5b505af1158015611580573d6000803e3d6000fd5b505050506040513d601f19601f820116820180604052506115a49190810190612884565b90506115ae61245f565b600160009054906101000a900473ffffffffffffffffffffffffffffffffffffffff1673ffffffffffffffffffffffffffffffffffffffff16632424be5c85856040518363ffffffff1660e01b815260040161160b929190612ab4565b6040805180830381600087803b15801561162457600080fd5b505af1158015611638573d6000803e3d6000fd5b505050506040513d601f19601f8201168201806040525061165c91908101906128ff565b9050600061168e611675836020015185602001516122cd565b60096000888152602001908152602001600020546122cd565b905060006116a083600001518361237f565b90506116c8600a6000888152602001908152602001600020546116c384846122f6565b612365565b600a6000888152602001908152602001600020819055507f8000000000000000000000000000000000000000000000000000000000000000811115801561173357507f8000000000000000000000000000000000000000000000000000000000000000836020015111155b61173c57600080fd5b600160009054906101000a900473ffffffffffffffffffffffffffffffffffffffff1673ffffffffffffffffffffffffffffffffffffffff16637bab3f40878730600360009054906101000a900473ffffffffffffffffffffffffffffffffffffffff168660000389602001516000036040518763ffffffff1660e01b81526004016117cd96959493929190612bac565b600060405180830381600087803b1580156117e757600080fd5b505af11580156117fb573d6000803e3d6000fd5b50505050505050505961012081016040526020815260e0602082015260e0600060408301376024356004353360003560e01c60e01b61012085a4505050565b600d6020528060005260406000206000915090505481565b60055481565b60016000803373ffffffffffffffffffffffffffffffffffffffff1673ffffffffffffffffffffffffffffffffffffffff16815260200190815260200160002054146118a357600080fd5b60008060008373ffffffffffffffffffffffffffffffffffffffff1673ffffffffffffffffffffffffffffffffffffffff168152602001908152602001600020819055505961012081016040526020815260e0602082015260e0600060408301376024356004353360003560e01c60e01b61012085a45050565b60006020528060005260406000206000915090505481565b60006005541461194457600080fd5b61194c61245f565b600160009054906101000a900473ffffffffffffffffffffffffffffffffffffffff1673ffffffffffffffffffffffffffffffffffffffff16632424be5c83336040518363ffffffff1660e01b81526004016119a9929190612add565b6040805180830381600087803b1580156119c257600080fd5b505af11580156119d6573d6000803e3d6000fd5b505050506040513d601f19601f820116820180604052506119fa91908101906128ff565b90506000816020015114611a0d57600080fd5b7f800000000000000000000000000000000000000000000000000000000000000081600001511115611a3e57600080fd5b600160009054906101000a900473ffffffffffffffffffffffffffffffffffffffff1673ffffffffffffffffffffffffffffffffffffffff16637bab3f40833333600360009054906101000a900473ffffffffffffffffffffffffffffffffffffffff16866000015160000360006040518763ffffffff1660e01b8152600401611acd96959493929190612b06565b600060405180830381600087803b158015611ae757600080fd5b505af1158015611afb573d6000803e3d6000fd5b50505050505961012081016040526020815260e0602082015260e0600060408301376024356004353360003560e01c60e01b61012085a45050565b600e602052816000526040600020602052806000526040600020600091509150505481565b60016000803373ffffffffffffffffffffffffffffffffffffffff1673ffffffffffffffffffffffffffffffffffffffff1681526020019081526020016000205414611ba657600080fd5b7f7661740000000000000000000000000000000000000000000000000000000000821415611c105780600160006101000a81548173ffffffffffffffffffffffffffffffffffffffff021916908373ffffffffffffffffffffffffffffffffffffffff1602179055505b7f6361740000000000000000000000000000000000000000000000000000000000821415611c7a5780600260006101000a81548173ffffffffffffffffffffffffffffffffffffffff021916908373ffffffffffffffffffffffffffffffffffffffff1602179055505b7f766f770000000000000000000000000000000000000000000000000000000000821415611ce45780600360006101000a81548173ffffffffffffffffffffffffffffffffffffffff021916908373ffffffffffffffffffffffffffffffffffffffff1602179055505b7f73706f7400000000000000000000000000000000000000000000000000000000821415611d4e5780600460006101000a81548173ffffffffffffffffffffffffffffffffffffffff021916908373ffffffffffffffffffffffffffffffffffffffff1602179055505b5961012081016040526020815260e0602082015260e0600060408301376024356004353360003560e01c60e01b61012085a4505050565b600b6020528060005260406000206000915090505481565b600060055414611dac57600080fd5b6000600960008381526020019081526020016000205414611dcc57600080fd5b600160009054906101000a900473ffffffffffffffffffffffffffffffffffffffff1673ffffffffffffffffffffffffffffffffffffffff1663d9638d36826040518263ffffffff1660e01b8152600401611e279190612a99565b60a060405180830381600087803b158015611e4157600080fd5b505af1158015611e55573d6000803e3d6000fd5b505050506040513d601f19601f82011682018060405250611e799190810190612884565b60000151600b600083815260200190815260200160002081905550611fd3670de0b6b3a7640000600460009054906101000a900473ffffffffffffffffffffffffffffffffffffffff1673ffffffffffffffffffffffffffffffffffffffff1663d9638d36846040518263ffffffff1660e01b8152600401611efb9190612a99565b604080518083038186803b158015611f1257600080fd5b505afa158015611f26573d6000803e3d6000fd5b505050506040513d601f19601f82011682018060405250611f4a91908101906128d6565b6000015173ffffffffffffffffffffffffffffffffffffffff166357de26a46040518163ffffffff1660e01b815260040160206040518083038186803b158015611f9357600080fd5b505afa158015611fa7573d6000803e3d6000fd5b505050506040513d601f19601f82011682018060405250611fcb91908101906127b9565b60001c61233c565b60096000838152602001908152602001600020819055505961012081016040526020815260e0602082015260e0600060408301376024356004353360003560e01c60e01b61012085a45050565b60065481565b600260009054906101000a900473ffffffffffffffffffffffffffffffffffffffff1681565b600a6020528060005260406000206000915090505481565b60096020528060005260406000206000915090505481565b6000600c600084815260200190815260200160002054141561209d57600080fd5b600160009054906101000a900473ffffffffffffffffffffffffffffffffffffffff1673ffffffffffffffffffffffffffffffffffffffff16636111be2e8330336120fb86600c60008a8152602001908152602001600020546122cd565b6040518563ffffffff1660e01b815260040161211a9493929190612b67565b600060405180830381600087803b15801561213457600080fd5b505af1158015612148573d6000803e3d6000fd5b505050506121a6600e600084815260200190815260200160002060003373ffffffffffffffffffffffffffffffffffffffff1673ffffffffffffffffffffffffffffffffffffffff1681526020019081526020016000205482612365565b600e600084815260200190815260200160002060003373ffffffffffffffffffffffffffffffffffffffff1673ffffffffffffffffffffffffffffffffffffffff16815260200190815260200160002081905550600d60003373ffffffffffffffffffffffffffffffffffffffff1673ffffffffffffffffffffffffffffffffffffffff16815260200190815260200160002054600e600084815260200190815260200160002060003373ffffffffffffffffffffffffffffffffffffffff1673ffffffffffffffffffffffffffffffffffffffff16815260200190815260200160002054111561229657600080fd5b5961012081016040526020815260e0602082015260e0600060408301376024356004353360003560e01c60e01b61012085a4505050565b60006b033b2e3c9fd0803ce80000006122e68484612310565b816122ed57fe5b04905092915050565b600082828403915081111561230a57600080fd5b92915050565b60008082148061232d575082828385029250828161232a57fe5b04145b61233657600080fd5b92915050565b600081612355846b033b2e3c9fd0803ce8000000612310565b8161235c57fe5b04905092915050565b600081830190508281101561237957600080fd5b92915050565b60008183111561238f5781612391565b825b905092915050565b6040518060a0016040528060008152602001600081526020016000815260200160008152602001600081525090565b6040518061010001604052806000815260200160008152602001600073ffffffffffffffffffffffffffffffffffffffff168152602001600065ffffffffffff168152602001600065ffffffffffff168152602001600073ffffffffffffffffffffffffffffffffffffffff168152602001600073ffffffffffffffffffffffffffffffffffffffff168152602001600081525090565b604051806040016040528060008152602001600081525090565b60008135905061248881612e0d565b92915050565b60008151905061249d81612e0d565b92915050565b6000813590506124b281612e24565b92915050565b6000815190506124c781612e24565b92915050565b6000815190506124dc81612e3b565b92915050565b600061010082840312156124f557600080fd5b612500610100612c94565b905060006125108482850161273d565b60008301525060206125248482850161273d565b60208301525060406125388482850161248e565b604083015250606061254c84828501612752565b606083015250608061256084828501612752565b60808301525060a06125748482850161248e565b60a08301525060c06125888482850161248e565b60c08301525060e061259c8482850161273d565b60e08301525092915050565b600060a082840312156125ba57600080fd5b6125c460a0612c94565b905060006125d48482850161273d565b60008301525060206125e88482850161273d565b60208301525060406125fc8482850161273d565b60408301525060606126108482850161273d565b60608301525060806126248482850161273d565b60808301525092915050565b60006060828403121561264257600080fd5b61264c6060612c94565b9050600061265c8482850161248e565b60008301525060206126708482850161273d565b60208301525060406126848482850161273d565b60408301525092915050565b6000604082840312156126a257600080fd5b6126ac6040612c94565b905060006126bc848285016124cd565b60008301525060206126d08482850161273d565b60208301525092915050565b6000604082840312156126ee57600080fd5b6126f86040612c94565b905060006127088482850161273d565b600083015250602061271c8482850161273d565b60208301525092915050565b60008135905061273781612e52565b92915050565b60008151905061274c81612e52565b92915050565b60008151905061276181612e69565b92915050565b60006020828403121561277957600080fd5b600061278784828501612479565b91505092915050565b6000602082840312156127a257600080fd5b60006127b0848285016124a3565b91505092915050565b6000602082840312156127cb57600080fd5b60006127d9848285016124b8565b91505092915050565b600080604083850312156127f557600080fd5b6000612803858286016124a3565b925050602061281485828601612479565b9150509250929050565b6000806040838503121561283157600080fd5b600061283f858286016124a3565b925050602061285085828601612728565b9150509250929050565b6000610100828403121561286d57600080fd5b600061287b848285016124e2565b91505092915050565b600060a0828403121561289657600080fd5b60006128a4848285016125a8565b91505092915050565b6000606082840312156128bf57600080fd5b60006128cd84828501612630565b91505092915050565b6000604082840312156128e857600080fd5b60006128f684828501612690565b91505092915050565b60006040828403121561291157600080fd5b600061291f848285016126dc565b91505092915050565b60006020828403121561293a57600080fd5b600061294884828501612728565b91505092915050565b60006020828403121561296357600080fd5b60006129718482850161273d565b91505092915050565b61298381612d35565b82525050565b61299281612cc1565b82525050565b6129a181612cd3565b82525050565b6129b081612d47565b82525050565b6129bf81612d6b565b82525050565b6129ce81612d8f565b82525050565b6129dd81612db3565b82525050565b6129ec81612cef565b82525050565b6129fb81612dd7565b82525050565b612a0a81612d19565b82525050565b6000602082019050612a256000830184612989565b92915050565b6000606082019050612a40600083018661297a565b612a4d6020830185612989565b612a5a6040830184612a01565b949350505050565b6000606082019050612a776000830186612989565b612a846020830185612989565b612a916040830184612a01565b949350505050565b6000602082019050612aae6000830184612998565b92915050565b6000604082019050612ac96000830185612998565b612ad66020830184612989565b9392505050565b6000604082019050612af26000830185612998565b612aff602083018461297a565b9392505050565b600060c082019050612b1b6000830189612998565b612b28602083018861297a565b612b35604083018761297a565b612b426060830186612989565b612b4f60808301856129e3565b612b5c60a08301846129f2565b979650505050505050565b6000608082019050612b7c6000830187612998565b612b896020830186612989565b612b96604083018561297a565b612ba36060830184612a01565b95945050505050565b600060c082019050612bc16000830189612998565b612bce6020830188612989565b612bdb6040830187612989565b612be86060830186612989565b612bf560808301856129e3565b612c0260a08301846129e3565b979650505050505050565b6000602082019050612c2260008301846129a7565b92915050565b6000602082019050612c3d60008301846129b6565b92915050565b6000602082019050612c5860008301846129c5565b92915050565b6000602082019050612c7360008301846129d4565b92915050565b6000602082019050612c8e6000830184612a01565b92915050565b6000604051905081810181811067ffffffffffffffff82111715612cb757600080fd5b8060405250919050565b6000612ccc82612cf9565b9050919050565b6000819050919050565b6000612ce882612cc1565b9050919050565b6000819050919050565b600073ffffffffffffffffffffffffffffffffffffffff82169050919050565b6000819050919050565b600065ffffffffffff82169050919050565b6000612d4082612de9565b9050919050565b6000612d5282612d59565b9050919050565b6000612d6482612cf9565b9050919050565b6000612d7682612d7d565b9050919050565b6000612d8882612cf9565b9050919050565b6000612d9a82612da1565b9050919050565b6000612dac82612cf9565b9050919050565b6000612dbe82612dc5565b9050919050565b6000612dd082612cf9565b9050919050565b6000612de282612cef565b9050919050565b6000612df482612dfb565b9050919050565b6000612e0682612cf9565b9050919050565b612e1681612cc1565b8114612e2157600080fd5b50565b612e2d81612cd3565b8114612e3857600080fd5b50565b612e4481612cdd565b8114612e4f57600080fd5b50565b612e5b81612d19565b8114612e6657600080fd5b50565b612e7281612d23565b8114612e7d57600080fd5b5056fea265627a7a72305820910a14bed45c7e972d5309b1d54fd777e0b2c9735824924cb19f2ee02c39e57d6c6578706572696d656e74616cf50037",
  "source": "/// end.sol -- global settlement engine\n\n// Copyright (C) 2018 Rain <rainbreak@riseup.net>\n// Copyright (C) 2018 Lev Livnev <lev@liv.nev.org.uk>\n//\n// This program is free software: you can redistribute it and/or modify\n// it under the terms of the GNU Affero General Public License as published by\n// the Free Software Foundation, either version 3 of the License, or\n// (at your option) any later version.\n//\n// This program is distributed in the hope that it will be useful,\n// but WITHOUT ANY WARRANTY; without even the implied warranty of\n// MERCHANTABILITY or FITNESS FOR A PARTICULAR PURPOSE.  See the\n// GNU Affero General Public License for more details.\n//\n// You should have received a copy of the GNU Affero General Public License\n// along with this program.  If not, see <https://www.gnu.org/licenses/>.\n\npragma solidity >=0.5.0;\npragma experimental ABIEncoderV2;\nimport \"./lib.sol\";\n\ncontract VatLike {\n    struct Ilk {\n        uint256 Art;\n        uint256 rate;\n        uint256 spot;\n        uint256 line;\n        uint256 dust;\n    }\n    struct Urn {\n        uint256 ink;\n        uint256 art;\n    }\n    function dai(address) external view returns (uint);\n    function ilks(bytes32 ilk) external returns (Ilk memory);\n    function urns(bytes32 ilk, address urn) external returns (Urn memory);\n    function debt() external returns (uint);\n    function move(address src, address dst, uint256 rad) external;\n    function hope(address) external;\n    function flux(bytes32 ilk, address src, address dst, uint256 rad) external;\n    function grab(bytes32 i, address u, address v, address w, int256 dink, int256 dart) external;\n    function suck(address u, address v, uint256 rad) external;\n    function cage() external;\n}\ncontract CatLike {\n    struct Ilk {\n        address flip;  // Liquidator\n        uint256 chop;  // Liquidation Penalty   [ray]\n        uint256 lump;  // Liquidation Quantity  [rad]\n    }\n    function ilks(bytes32) external returns (Ilk memory);\n    function cage() external;\n}\ncontract VowLike {\n    function heal(uint256 rad) external;\n    function cage() external;\n}\ncontract Flippy {\n    struct Bid {\n        uint256 bid;\n        uint256 lot;\n        address guy;\n        uint48  tic;\n        uint48  end;\n        address usr;\n        address gal;\n        uint256 tab;\n    }\n    function bids(uint id) external view returns (Bid memory);\n    function yank(uint id) external;\n}\n\ncontract PipLike {\n    function read() external view returns (bytes32);\n}\n\ncontract Spotty {\n    struct Ilk {\n        PipLike pip;\n        uint256 mat;\n    }\n    function ilks(bytes32) external view returns (Ilk memory);\n}\n\n/*\n    This is the `End` and it coordinates Global Settlement. This is an\n    involved, stateful process that takes place over nine steps.\n\n    First we freeze the system and lock the prices for each ilk.\n\n    1. `cage()`:\n        - freezes user entrypoints\n        - cancels flop/flap auctions\n        - starts cooldown period\n\n    2. `cage(ilk)`:\n       - set the cage price for each `ilk`, reading off the price feed\n\n    We must process some system state before it is possible to calculate\n    the final dai / collateral price. In particular, we need to determine\n\n      a. `gap`, the collateral shortfall per collateral type by\n         considering under-collateralised CDPs.\n\n      b. `debt`, the outstanding dai supply after including system\n         surplus / deficit\n\n    We determine (a) by processing all under-collateralised CDPs with\n    `skim`:\n\n    3. `skim(ilk, urn)`:\n       - cancels CDP debt\n       - any excess collateral remains\n       - backing collateral taken\n\n    We determine (b) by processing ongoing dai generating processes,\n    i.e. auctions. We need to ensure that auctions will not generate any\n    further dai income. In the two-way auction model this occurs when\n    all auctions are in the reverse (`dent`) phase. There are two ways\n    of ensuring this:\n\n    4.  i) `wait`: set the cooldown period to be at least as long as the\n           longest auction duration, which needs to be determined by the\n           cage administrator.\n\n           This takes a fairly predictable time to occur but with altered\n           auction dynamics due to the now varying price of dai.\n\n       ii) `skip`: cancel all ongoing auctions and seize the collateral.\n\n           This allows for faster processing at the expense of more\n           processing calls. This option allows dai holders to retrieve\n           their collateral faster.\n\n           `skip(ilk, id)`:\n            - cancel individual flip auctions in the `tend` (forward) phase\n            - retrieves collateral and returns dai to bidder\n            - `dent` (reverse) phase auctions can continue normally\n\n    Option (i), `wait`, is sufficient for processing the system\n    settlement but option (ii), `skip`, will speed it up. Both options\n    are available in this implementation, with `skip` being enabled on a\n    per-auction basis.\n\n    When a CDP has been processed and has no debt remaining, the\n    remaining collateral can be removed.\n\n    5. `free(ilk)`:\n        - remove collateral from the caller's CDP\n        - owner can call as needed\n\n    After the processing period has elapsed, we enable calculation of\n    the final price for each collateral type.\n\n    6. `thaw()`:\n       - only callable after processing time period elapsed\n       - assumption that all under-collateralised CDPs are processed\n       - fixes the total outstanding supply of dai\n       - may also require extra CDP processing to cover vow surplus\n\n    7. `flow(ilk)`:\n        - calculate the `fix`, the cash price for a given ilk\n        - adjusts the `fix` in the case of deficit / surplus\n\n    At this point we have computed the final price for each collateral\n    type and dai holders can now turn their dai into collateral. Each\n    unit dai can claim a fixed basket of collateral.\n\n    Dai holders must first `pack` some dai into a `bag`. Once packed,\n    dai cannot be unpacked and is not transferrable. More dai can be\n    added to a bag later.\n\n    8. `pack(wad)`:\n        - put some dai into a bag in preparation for `cash`\n\n    Finally, collateral can be obtained with `cash`. The bigger the bag,\n    the more collateral can be released.\n\n    9. `cash(ilk, wad)`:\n        - exchange some dai from your bag for gems from a specific ilk\n        - the number of gems is limited by how big your bag is\n*/\n\ncontract End is DSNote {\n    // --- Auth ---\n    mapping (address => uint) public wards;\n    function rely(address guy) external note auth { wards[guy] = 1; }\n    function deny(address guy) external note auth { wards[guy] = 0; }\n    modifier auth { require(wards[msg.sender] == 1); _; }\n\n    // --- Data ---\n    VatLike  public vat;\n    CatLike  public cat;\n    VowLike  public vow;\n    Spotty   public spot;\n\n    uint256  public live;  // cage flag\n    uint256  public when;  // time of cage\n    uint256  public wait;  // processing cooldown length\n    uint256  public debt;  // total outstanding dai following processing [rad]\n\n    mapping (bytes32 => uint256) public tag;  // cage price           [ray]\n    mapping (bytes32 => uint256) public gap;  // collateral shortfall [wad]\n    mapping (bytes32 => uint256) public Art;  // total debt per ilk   [wad]\n    mapping (bytes32 => uint256) public fix;  // final cash price     [ray]\n\n    mapping (address => uint256)                      public bag;  // [wad]\n    mapping (bytes32 => mapping (address => uint256)) public out;  // [wad]\n\n    // --- Init ---\n    constructor() public {\n        wards[msg.sender] = 1;\n        live = 1;\n    }\n\n    // --- Math ---\n    function add(uint x, uint y) internal pure returns (uint z) {\n        z = x + y;\n        require(z >= x);\n    }\n    function sub(uint x, uint y) internal pure returns (uint z) {\n        require((z = x - y) <= x);\n    }\n    function mul(uint x, uint y) internal pure returns (uint z) {\n        require(y == 0 || (z = x * y) / y == x);\n    }\n    function min(uint x, uint y) internal pure returns (uint z) {\n        return x <= y ? x : y;\n    }\n    uint constant WAD = 10 ** 18;\n    uint constant RAY = 10 ** 27;\n    function rmul(uint x, uint y) internal pure returns (uint z) {\n        z = mul(x, y) / RAY;\n    }\n    function rdiv(uint x, uint y) internal pure returns (uint z) {\n        z = mul(x, RAY) / y;\n    }\n\n    // --- Administration ---\n    function file(bytes32 what, address data) external note auth {\n        if (what == \"vat\")  vat = VatLike(data);\n        if (what == \"cat\")  cat = CatLike(data);\n        if (what == \"vow\")  vow = VowLike(data);\n        if (what == \"spot\") spot = Spotty(data);\n    }\n    function file(bytes32 what, uint256 data) external note auth {\n        if (what == \"wait\") wait = data;\n    }\n\n    // --- Settlement ---\n    function cage() external note auth {\n        require(live == 1);\n        live = 0;\n        when = now;\n        vat.cage();\n        cat.cage();\n        vow.cage();\n    }\n\n    function cage(bytes32 ilk) external note {\n        require(live == 0);\n        require(tag[ilk] == 0);\n        Art[ilk] = vat.ilks(ilk).Art;\n        // pip returns a wad, invert it and convert to ray\n        tag[ilk] = rdiv(WAD, uint(spot.ilks(ilk).pip.read()));\n    }\n\n    function skip(bytes32 ilk, uint256 id) external note {\n        require(tag[ilk] != 0);\n\n        Flippy flip = Flippy(cat.ilks(ilk).flip);\n        VatLike.Ilk memory i   = vat.ilks(ilk);\n        Flippy.Bid  memory bid = flip.bids(id);\n\n        vat.suck(address(vow), address(vow),  bid.tab);\n        vat.suck(address(vow), address(this), bid.bid);\n        vat.hope(address(flip));\n        flip.yank(id);\n\n        uint lot = bid.lot;\n        uint art = bid.tab / i.rate;\n        Art[ilk] = add(Art[ilk], art);\n        require(int(lot) >= 0 && int(art) >= 0);\n        vat.grab(ilk, bid.usr, address(this), address(vow), int(lot), int(art));\n    }\n\n    function skim(bytes32 ilk, address urn) external note {\n        require(tag[ilk] != 0);\n        VatLike.Ilk memory i = vat.ilks(ilk);\n        VatLike.Urn memory u = vat.urns(ilk, urn);\n\n        uint owe = rmul(rmul(u.art, i.rate), tag[ilk]);\n        uint wad = min(u.ink, owe);\n        gap[ilk] = add(gap[ilk], sub(owe, wad));\n\n        require(wad <= 2**255 && u.art <= 2**255);\n        vat.grab(ilk, urn, address(this), address(vow), -int(wad), -int(u.art));\n    }\n\n    function free(bytes32 ilk) external note {\n        require(live == 0);\n        VatLike.Urn memory u = vat.urns(ilk, msg.sender);\n        require(u.art == 0);\n        require(u.ink <= 2**255);\n        vat.grab(ilk, msg.sender, msg.sender, address(vow), -int(u.ink), 0);\n    }\n\n    function thaw() external note {\n        require(live == 0);\n        require(debt == 0);\n        require(vat.dai(address(vow)) == 0);\n        require(now >= add(when, wait));\n        debt = vat.debt();\n    }\n    function flow(bytes32 ilk) external note {\n        require(debt != 0);\n        require(fix[ilk] == 0);\n\n        VatLike.Ilk memory i = vat.ilks(ilk);\n        uint256 wad = rmul(rmul(Art[ilk], i.rate), tag[ilk]);\n        fix[ilk] = rdiv(mul(sub(wad, gap[ilk]), RAY), debt);\n    }\n\n    function pack(uint256 wad) external note {\n        require(debt != 0);\n        vat.move(msg.sender, address(vow), mul(wad, RAY));\n        bag[msg.sender] = add(bag[msg.sender], wad);\n    }\n    function cash(bytes32 ilk, uint wad) external note {\n        require(fix[ilk] != 0);\n        vat.flux(ilk, address(this), msg.sender, rmul(wad, fix[ilk]));\n        out[ilk][msg.sender] = add(out[ilk][msg.sender], wad);\n        require(out[ilk][msg.sender] <= bag[msg.sender]);\n    }\n}\n",
  "sourcePath": "E:\\Dss-deployTest2\\lib\\dss\\contracts\\end.sol",
  "compiler": {
    "name": "solc",
    "version": "0.5.8+commit.23d335f2.Emscripten.clang"
  },
  "schemaVersion": "3.0.11",
  "updatedAt": "2019-08-20T06:26:04.493Z",
  "devdoc": {
    "methods": {}
  },
  "userdoc": {
    "methods": {}
  }
}