{
  "contractName": "FlapFab",
  "abi": [
    {
      "constant": false,
      "inputs": [
        {
          "name": "vat",
          "type": "address"
        },
        {
          "name": "gov",
          "type": "address"
        }
      ],
      "name": "newFlap",
      "outputs": [
        {
          "name": "flap",
          "type": "address"
        }
      ],
      "payable": false,
      "stateMutability": "nonpayable",
      "type": "function"
    }
  ],
  "bytecode": "0x608060405234801561001057600080fd5b50611d0f806100206000396000f3fe608060405234801561001057600080fd5b506004361061002b5760003560e01c8063ec5c21c214610030575b600080fd5b6100926004803603604081101561004657600080fd5b81019080803573ffffffffffffffffffffffffffffffffffffffff169060200190929190803573ffffffffffffffffffffffffffffffffffffffff1690602001909291905050506100d4565b604051808273ffffffffffffffffffffffffffffffffffffffff1673ffffffffffffffffffffffffffffffffffffffff16815260200191505060405180910390f35b600082826040516100e4906102a0565b808373ffffffffffffffffffffffffffffffffffffffff1673ffffffffffffffffffffffffffffffffffffffff1681526020018273ffffffffffffffffffffffffffffffffffffffff1673ffffffffffffffffffffffffffffffffffffffff16815260200192505050604051809103906000f080158015610169573d6000803e3d6000fd5b5090508073ffffffffffffffffffffffffffffffffffffffff166365fae35e336040518263ffffffff1660e01b8152600401808273ffffffffffffffffffffffffffffffffffffffff1673ffffffffffffffffffffffffffffffffffffffff168152602001915050600060405180830381600087803b1580156101eb57600080fd5b505af11580156101ff573d6000803e3d6000fd5b505050508073ffffffffffffffffffffffffffffffffffffffff16639c52a7f1306040518263ffffffff1660e01b8152600401808273ffffffffffffffffffffffffffffffffffffffff1673ffffffffffffffffffffffffffffffffffffffff168152602001915050600060405180830381600087803b15801561028257600080fd5b505af1158015610296573d6000803e3d6000fd5b5050505092915050565b611a36806102ae8339019056fe60806040526b03648a260e3486a65a000000600455612a30600560006101000a81548165ffffffffffff021916908365ffffffffffff1602179055506202a300600560066101000a81548165ffffffffffff021916908365ffffffffffff160217905550600060065534801561007457600080fd5b50604051604080611a368339810180604052604081101561009457600080fd5b81019080805190602001909291908051906020019092919050505060016000803373ffffffffffffffffffffffffffffffffffffffff1673ffffffffffffffffffffffffffffffffffffffff1681526020019081526020016000208190555081600260006101000a81548173ffffffffffffffffffffffffffffffffffffffff021916908373ffffffffffffffffffffffffffffffffffffffff16021790555080600360006101000a81548173ffffffffffffffffffffffffffffffffffffffff021916908373ffffffffffffffffffffffffffffffffffffffff160217905550600160078190555050506118a88061018e6000396000f3fe608060405234801561001057600080fd5b506004361061010b5760003560e01c80637d780d82116100a2578063bf353dbb11610071578063bf353dbb14610416578063c959c42b1461046e578063ca40c4191461049c578063cfc4af55146104e8578063cfdd3302146105165761010b565b80637d780d8214610368578063957aa58c146103865780639c52a7f1146103a4578063a2f91af2146103e85761010b565b80634b43ed12116100de5780634b43ed121461026a5780634e8b1dd5146102ac57806365fae35e146102da5780637bd2bea71461031e5761010b565b806326e027f11461011057806329ae81141461013e57806336569e77146101765780634423c5f1146101c0575b600080fd5b61013c6004803603602081101561012657600080fd5b8101908080359060200190929190505050610534565b005b6101746004803603604081101561015457600080fd5b8101908080359060200190929190803590602001909291905050506107a9565b005b61017e6108f7565b604051808273ffffffffffffffffffffffffffffffffffffffff1673ffffffffffffffffffffffffffffffffffffffff16815260200191505060405180910390f35b6101ec600480360360208110156101d657600080fd5b810190808035906020019092919050505061091d565b604051808681526020018581526020018473ffffffffffffffffffffffffffffffffffffffff1673ffffffffffffffffffffffffffffffffffffffff1681526020018365ffffffffffff1665ffffffffffff1681526020018265ffffffffffff1665ffffffffffff1681526020019550505050505060405180910390f35b6102aa6004803603606081101561028057600080fd5b81019080803590602001909291908035906020019092919080359060200190929190505050610997565b005b6102b4610e9c565b604051808265ffffffffffff1665ffffffffffff16815260200191505060405180910390f35b61031c600480360360208110156102f057600080fd5b81019080803573ffffffffffffffffffffffffffffffffffffffff169060200190929190505050610eb4565b005b610326610f79565b604051808273ffffffffffffffffffffffffffffffffffffffff1673ffffffffffffffffffffffffffffffffffffffff16815260200191505060405180910390f35b610370610f9f565b6040518082815260200191505060405180910390f35b61038e610fa5565b6040518082815260200191505060405180910390f35b6103e6600480360360208110156103ba57600080fd5b81019080803573ffffffffffffffffffffffffffffffffffffffff169060200190929190505050610fab565b005b610414600480360360208110156103fe57600080fd5b8101908080359060200190929190505050611070565b005b6104586004803603602081101561042c57600080fd5b81019080803573ffffffffffffffffffffffffffffffffffffffff1690602001909291905050506111ee565b6040518082815260200191505060405180910390f35b61049a6004803603602081101561048457600080fd5b8101908080359060200190929190505050611206565b005b6104d2600480360360408110156104b257600080fd5b810190808035906020019092919080359060200190929190505050611595565b6040518082815260200191505060405180910390f35b6104f0611808565b604051808265ffffffffffff1665ffffffffffff16815260200191505060405180910390f35b61051e611820565b6040518082815260200191505060405180910390f35b60006007541461054357600080fd5b600073ffffffffffffffffffffffffffffffffffffffff166001600083815260200190815260200160002060020160009054906101000a900473ffffffffffffffffffffffffffffffffffffffff1673ffffffffffffffffffffffffffffffffffffffff1614156105b357600080fd5b600360009054906101000a900473ffffffffffffffffffffffffffffffffffffffff1673ffffffffffffffffffffffffffffffffffffffff1663bb35783b306001600085815260200190815260200160002060020160009054906101000a900473ffffffffffffffffffffffffffffffffffffffff1660016000868152602001908152602001600020600001546040518463ffffffff1660e01b8152600401808473ffffffffffffffffffffffffffffffffffffffff1673ffffffffffffffffffffffffffffffffffffffff1681526020018373ffffffffffffffffffffffffffffffffffffffff1673ffffffffffffffffffffffffffffffffffffffff1681526020018281526020019350505050600060405180830381600087803b1580156106dc57600080fd5b505af11580156106f0573d6000803e3d6000fd5b505050506001600082815260200190815260200160002060008082016000905560018201600090556002820160006101000a81549073ffffffffffffffffffffffffffffffffffffffff02191690556002820160146101000a81549065ffffffffffff021916905560028201601a6101000a81549065ffffffffffff021916905550505961012081016040526020815260e0602082015260e0600060408301376024356004353360003560e01c60e01b61012085a45050565b60016000803373ffffffffffffffffffffffffffffffffffffffff1673ffffffffffffffffffffffffffffffffffffffff16815260200190815260200160002054146107f457600080fd5b7f626567000000000000000000000000000000000000000000000000000000000082141561082457806004819055505b7f74746c00000000000000000000000000000000000000000000000000000000008214156108725780600560006101000a81548165ffffffffffff021916908365ffffffffffff1602179055505b7f74617500000000000000000000000000000000000000000000000000000000008214156108c05780600560066101000a81548165ffffffffffff021916908365ffffffffffff1602179055505b5961012081016040526020815260e0602082015260e0600060408301376024356004353360003560e01c60e01b61012085a4505050565b600260009054906101000a900473ffffffffffffffffffffffffffffffffffffffff1681565b60016020528060005260406000206000915090508060000154908060010154908060020160009054906101000a900473ffffffffffffffffffffffffffffffffffffffff16908060020160149054906101000a900465ffffffffffff169080600201601a9054906101000a900465ffffffffffff16905085565b6001600754146109a657600080fd5b600073ffffffffffffffffffffffffffffffffffffffff166001600085815260200190815260200160002060020160009054906101000a900473ffffffffffffffffffffffffffffffffffffffff1673ffffffffffffffffffffffffffffffffffffffff161415610a1657600080fd5b426001600085815260200190815260200160002060020160149054906101000a900465ffffffffffff1665ffffffffffff161180610a84575060006001600085815260200190815260200160002060020160149054906101000a900465ffffffffffff1665ffffffffffff16145b610a8d57600080fd5b4260016000858152602001908152602001600020600201601a9054906101000a900465ffffffffffff1665ffffffffffff1611610ac957600080fd5b60016000848152602001908152602001600020600101548214610aeb57600080fd5b60016000848152602001908152602001600020600001548111610b0d57600080fd5b610b2f6004546001600086815260200190815260200160002060000154611826565b610b45826b033b2e3c9fd0803ce8000000611826565b1015610b5057600080fd5b600360009054906101000a900473ffffffffffffffffffffffffffffffffffffffff1673ffffffffffffffffffffffffffffffffffffffff1663bb35783b336001600087815260200190815260200160002060020160009054906101000a900473ffffffffffffffffffffffffffffffffffffffff1660016000888152602001908152602001600020600001546040518463ffffffff1660e01b8152600401808473ffffffffffffffffffffffffffffffffffffffff1673ffffffffffffffffffffffffffffffffffffffff1681526020018373ffffffffffffffffffffffffffffffffffffffff1673ffffffffffffffffffffffffffffffffffffffff1681526020018281526020019350505050600060405180830381600087803b158015610c7957600080fd5b505af1158015610c8d573d6000803e3d6000fd5b50505050600360009054906101000a900473ffffffffffffffffffffffffffffffffffffffff1673ffffffffffffffffffffffffffffffffffffffff1663bb35783b3330600160008881526020019081526020016000206000015485036040518463ffffffff1660e01b8152600401808473ffffffffffffffffffffffffffffffffffffffff1673ffffffffffffffffffffffffffffffffffffffff1681526020018373ffffffffffffffffffffffffffffffffffffffff1673ffffffffffffffffffffffffffffffffffffffff1681526020018281526020019350505050600060405180830381600087803b158015610d8657600080fd5b505af1158015610d9a573d6000803e3d6000fd5b50505050336001600085815260200190815260200160002060020160006101000a81548173ffffffffffffffffffffffffffffffffffffffff021916908373ffffffffffffffffffffffffffffffffffffffff160217905550806001600085815260200190815260200160002060000181905550610e2c42600560009054906101000a900465ffffffffffff16611852565b6001600085815260200190815260200160002060020160146101000a81548165ffffffffffff021916908365ffffffffffff1602179055505961012081016040526020815260e0602082015260e0600060408301376024356004353360003560e01c60e01b61012085a450505050565b600560009054906101000a900465ffffffffffff1681565b60016000803373ffffffffffffffffffffffffffffffffffffffff1673ffffffffffffffffffffffffffffffffffffffff1681526020019081526020016000205414610eff57600080fd5b60016000808373ffffffffffffffffffffffffffffffffffffffff1673ffffffffffffffffffffffffffffffffffffffff168152602001908152602001600020819055505961012081016040526020815260e0602082015260e0600060408301376024356004353360003560e01c60e01b61012085a45050565b600360009054906101000a900473ffffffffffffffffffffffffffffffffffffffff1681565b60045481565b60075481565b60016000803373ffffffffffffffffffffffffffffffffffffffff1673ffffffffffffffffffffffffffffffffffffffff1681526020019081526020016000205414610ff657600080fd5b60008060008373ffffffffffffffffffffffffffffffffffffffff1673ffffffffffffffffffffffffffffffffffffffff168152602001908152602001600020819055505961012081016040526020815260e0602082015260e0600060408301376024356004353360003560e01c60e01b61012085a45050565b60016000803373ffffffffffffffffffffffffffffffffffffffff1673ffffffffffffffffffffffffffffffffffffffff16815260200190815260200160002054146110bb57600080fd5b6000600781905550600260009054906101000a900473ffffffffffffffffffffffffffffffffffffffff1673ffffffffffffffffffffffffffffffffffffffff1663bb35783b3033846040518463ffffffff1660e01b8152600401808473ffffffffffffffffffffffffffffffffffffffff1673ffffffffffffffffffffffffffffffffffffffff1681526020018373ffffffffffffffffffffffffffffffffffffffff1673ffffffffffffffffffffffffffffffffffffffff1681526020018281526020019350505050600060405180830381600087803b1580156111a057600080fd5b505af11580156111b4573d6000803e3d6000fd5b505050505961012081016040526020815260e0602082015260e0600060408301376024356004353360003560e01c60e01b61012085a45050565b60006020528060005260406000206000915090505481565b60016007541461121557600080fd5b426001600083815260200190815260200160002060020160149054906101000a900465ffffffffffff1665ffffffffffff16108015611285575060006001600083815260200190815260200160002060020160149054906101000a900465ffffffffffff1665ffffffffffff1614155b806112bf57504260016000838152602001908152602001600020600201601a9054906101000a900465ffffffffffff1665ffffffffffff16105b6112c857600080fd5b600260009054906101000a900473ffffffffffffffffffffffffffffffffffffffff1673ffffffffffffffffffffffffffffffffffffffff1663bb35783b306001600085815260200190815260200160002060020160009054906101000a900473ffffffffffffffffffffffffffffffffffffffff1660016000868152602001908152602001600020600101546040518463ffffffff1660e01b8152600401808473ffffffffffffffffffffffffffffffffffffffff1673ffffffffffffffffffffffffffffffffffffffff1681526020018373ffffffffffffffffffffffffffffffffffffffff1673ffffffffffffffffffffffffffffffffffffffff1681526020018281526020019350505050600060405180830381600087803b1580156113f157600080fd5b505af1158015611405573d6000803e3d6000fd5b50505050600360009054906101000a900473ffffffffffffffffffffffffffffffffffffffff1673ffffffffffffffffffffffffffffffffffffffff16639dc29fac3060016000858152602001908152602001600020600001546040518363ffffffff1660e01b8152600401808373ffffffffffffffffffffffffffffffffffffffff1673ffffffffffffffffffffffffffffffffffffffff16815260200182815260200192505050600060405180830381600087803b1580156114c857600080fd5b505af11580156114dc573d6000803e3d6000fd5b505050506001600082815260200190815260200160002060008082016000905560018201600090556002820160006101000a81549073ffffffffffffffffffffffffffffffffffffffff02191690556002820160146101000a81549065ffffffffffff021916905560028201601a6101000a81549065ffffffffffff021916905550505961012081016040526020815260e0602082015260e0600060408301376024356004353360003560e01c60e01b61012085a45050565b60006001600754146115a657600080fd5b7fffffffffffffffffffffffffffffffffffffffffffffffffffffffffffffffff600654106115d457600080fd5b6006600081546001019190508190559050816001600083815260200190815260200160002060000181905550826001600083815260200190815260200160002060010181905550336001600083815260200190815260200160002060020160006101000a81548173ffffffffffffffffffffffffffffffffffffffff021916908373ffffffffffffffffffffffffffffffffffffffff16021790555061168e42600560069054906101000a900465ffffffffffff16611852565b60016000838152602001908152602001600020600201601a6101000a81548165ffffffffffff021916908365ffffffffffff160217905550600260009054906101000a900473ffffffffffffffffffffffffffffffffffffffff1673ffffffffffffffffffffffffffffffffffffffff1663bb35783b3330866040518463ffffffff1660e01b8152600401808473ffffffffffffffffffffffffffffffffffffffff1673ffffffffffffffffffffffffffffffffffffffff1681526020018373ffffffffffffffffffffffffffffffffffffffff1673ffffffffffffffffffffffffffffffffffffffff1681526020018281526020019350505050600060405180830381600087803b1580156117a357600080fd5b505af11580156117b7573d6000803e3d6000fd5b505050507fe6dde59cbc017becba89714a037778d234a84ce7f0a137487142a007e580d60981848460405180848152602001838152602001828152602001935050505060405180910390a192915050565b600560069054906101000a900465ffffffffffff1681565b60065481565b600080821480611843575082828385029250828161184057fe5b04145b61184c57600080fd5b92915050565b60008265ffffffffffff1682840191508165ffffffffffff16101561187657600080fd5b9291505056fea165627a7a7230582013fee00ece7705c921f74f8b9c4871a37732299b5a1b079d4ed6e18e41d512f20029a165627a7a723058208d240984e8ac9269b3f58a64645e4569a22228a90519b6e5fbb6e9c2ef0510bb0029",
  "source": "/// DssDeploy.sol\n\n// Copyright (C) 2018-2019 Gonzalo Balabasquer <gbalabasquer@gmail.com>\n\n// This program is free software: you can redistribute it and/or modify\n// it under the terms of the GNU Affero General Public License as published by\n// the Free Software Foundation, either version 3 of the License, or\n// (at your option) any later version.\n//\n// This program is distributed in the hope that it will be useful,\n// but WITHOUT ANY WARRANTY; without even the implied warranty of\n// MERCHANTABILITY or FITNESS FOR A PARTICULAR PURPOSE.  See the\n// GNU Affero General Public License for more details.\n//\n// You should have received a copy of the GNU Affero General Public License\n// along with this program.  If not, see <https://www.gnu.org/licenses/>.\n\npragma solidity >=0.5.0;\n\nimport {DSAuth, DSAuthority} from \"../lib/ds-auth/src/auth.sol\";\nimport {DSPause} from \"../lib/ds-pause/src/pause.sol\";\n\nimport {Vat} from \"../lib/dss/contracts/vat.sol\";\nimport {Jug} from \"../lib/dss/contracts/jug.sol\";\nimport {Vow} from \"../lib/dss/contracts/vow.sol\";\nimport {Cat} from \"../lib/dss/contracts/cat.sol\";\nimport {DaiJoin} from \"../lib/dss/contracts/join.sol\";\nimport {Flapper} from \"../lib/dss/contracts/flap.sol\";\nimport {Flopper} from \"../lib/dss/contracts/flop.sol\";\nimport {Flipper} from \"../lib/dss/contracts/flip.sol\";\nimport {Dai} from \"../lib/dss/contracts/dai.sol\";\nimport {End} from \"../lib/dss/contracts/end.sol\";\nimport {ESM} from \"../lib/esm/src/ESM.sol\";\nimport {Pot} from \"../lib/dss/contracts/pot.sol\";\nimport {Spotter} from \"../lib/dss/contracts/spot.sol\";\n\ncontract VatFab {\n    function newVat() public returns (Vat vat) {\n        vat = new Vat();\n        vat.rely(msg.sender);\n        vat.deny(address(this));\n    }\n}\n\ncontract JugFab {\n    function newJug(address vat) public returns (Jug jug) {\n        jug = new Jug(vat);\n        jug.rely(msg.sender);\n        jug.deny(address(this));\n    }\n}\n\ncontract VowFab {\n    function newVow(address vat, address flap, address flop) public returns (Vow vow) {\n        vow = new Vow(vat, flap, flop);\n        vow.rely(msg.sender);\n        vow.deny(address(this));\n    }\n}\n\ncontract CatFab {\n    function newCat(address vat) public returns (Cat cat) {\n        cat = new Cat(vat);\n        cat.rely(msg.sender);\n        cat.deny(address(this));\n    }\n}\n\ncontract DaiFab {\n    function newDai(uint chainId) public returns (Dai dai) {\n        dai = new Dai(chainId);\n        dai.rely(msg.sender);\n        dai.deny(address(this));\n    }\n}\n\ncontract DaiJoinFab {\n    function newDaiJoin(address vat, address dai) public returns (DaiJoin daiJoin) {\n        daiJoin = new DaiJoin(vat, dai);\n    }\n}\n\ncontract FlapFab {\n    function newFlap(address vat, address gov) public returns (Flapper flap) {\n        flap = new Flapper(vat, gov);\n        flap.rely(msg.sender);\n        flap.deny(address(this));\n    }\n}\n\ncontract FlopFab {\n    function newFlop(address vat, address gov) public returns (Flopper flop) {\n        flop = new Flopper(vat, gov);\n        flop.rely(msg.sender);\n        flop.deny(address(this));\n    }\n}\n\ncontract FlipFab {\n    function newFlip(address vat, bytes32 ilk) public returns (Flipper flip) {\n        flip = new Flipper(vat, ilk);\n        flip.rely(msg.sender);\n        flip.deny(address(this));\n    }\n}\n\ncontract SpotFab {\n    function newSpotter(address vat) public returns (Spotter spotter) {\n        spotter = new Spotter(vat);\n        spotter.rely(msg.sender);\n        spotter.deny(address(this));\n    }\n}\n\ncontract PotFab {\n    function newPot(address vat) public returns (Pot pot) {\n        pot = new Pot(vat);\n        pot.rely(msg.sender);\n        pot.deny(address(this));\n    }\n}\n\ncontract EndFab {\n    function newEnd() public returns (End end) {\n        end = new End();\n        end.rely(msg.sender);\n        end.deny(address(this));\n    }\n}\n\ncontract PauseFab {\n    function newPause(uint delay, address owner, DSAuthority authority) public returns(DSPause pause) {\n        pause = new DSPause(delay, owner, authority);\n    }\n}\n\ncontract DssDeploy is DSAuth {\n    VatFab     public vatFab;\n    JugFab     public jugFab;\n    VowFab     public vowFab;\n    CatFab     public catFab;\n    DaiFab     public daiFab;\n    DaiJoinFab public daiJoinFab;\n    FlapFab    public flapFab;\n    FlopFab    public flopFab;\n    FlipFab    public flipFab;\n    SpotFab    public spotFab;\n    PotFab     public potFab;\n    EndFab     public endFab;\n    PauseFab   public pauseFab;\n\n    Vat     public vat;\n    Jug     public jug;\n    Vow     public vow;\n    Cat     public cat;\n    Dai     public dai;\n    DaiJoin public daiJoin;\n    Flapper public flap;\n    Flopper public flop;\n    Spotter public spotter;\n    Pot     public pot;\n    End     public end;\n    ESM     public esm;\n    DSPause public pause;\n\n    mapping(bytes32 => Ilk) public ilks;\n\n    uint8 public step = 0;\n\n    uint256 constant ONE = 10 ** 27;\n\n    struct Ilk {\n        Flipper flip;\n        address adapter;\n    }\n\n    constructor(\n        VatFab vatFab_,\n        JugFab jugFab_,\n        VowFab vowFab_,\n        CatFab catFab_,\n        DaiFab daiFab_,\n        DaiJoinFab daiJoinFab_,\n        FlapFab flapFab_,\n        FlopFab flopFab_,\n        FlipFab flipFab_,\n        SpotFab spotFab_,\n        PotFab potFab_,\n        EndFab endFab_,\n        PauseFab pauseFab_\n    ) public {\n        vatFab = vatFab_;\n        jugFab = jugFab_;\n        vowFab = vowFab_;\n        catFab = catFab_;\n        daiFab = daiFab_;\n        daiJoinFab = daiJoinFab_;\n        flapFab = flapFab_;\n        flopFab = flopFab_;\n        flipFab = flipFab_;\n        spotFab = spotFab_;\n        potFab = potFab_;\n        endFab = endFab_;\n        pauseFab = pauseFab_;\n    }\n\n    function rad(uint wad) internal pure returns (uint) {\n        return wad * 10 ** 27;\n    }\n\n    function deployVat() public auth {\n        require(address(vat) == address(0), \"VAT already deployed\");\n        vat = vatFab.newVat();\n        spotter = spotFab.newSpotter(address(vat));\n\n        // Internal auth\n        vat.rely(address(spotter));\n    }\n\n    function deployDai(uint256 chainId) public auth {\n        require(address(vat) != address(0), \"Missing previous step\");\n\n        // Deploy\n        dai     = daiFab.newDai(chainId);\n        daiJoin = daiJoinFab.newDaiJoin(address(vat), address(dai));\n        dai.rely(address(daiJoin));\n    }\n\n    function deployTaxationAndAuctions(address gov) public auth {\n        require(gov != address(0), \"Missing GOV address\");\n        require(address(vat) != address(0), \"Missing previous step\");\n\n        // Deploy\n        jug = jugFab.newJug(address(vat));\n        pot = potFab.newPot(address(vat));\n        flap = flapFab.newFlap(address(vat), gov);\n        flop = flopFab.newFlop(address(vat), gov);\n        vow = vowFab.newVow(address(vat), address(flap), address(flop));\n\n        // Internal references set up\n        jug.file(\"vow\", address(vow));\n        pot.file(\"vow\", address(vow));\n\n        // Internal auth\n        vat.rely(address(vow));\n        vat.rely(address(jug));\n        vat.rely(address(pot));\n        flap.rely(address(vow));\n        flop.rely(address(vow));\n    }\n\n    function deployLiquidator() public auth {\n        require(address(vow) != address(0), \"Missing previous step\");\n\n        // Deploy\n        cat = catFab.newCat(address(vat));\n\n        // Internal references set up\n        cat.file(\"vow\", address(vow));\n\n        // Internal auth\n        vat.rely(address(cat));\n        vow.rely(address(cat));\n    }\n\n    function deployShutdown(address gov, address pit, uint256 min) public auth {\n        require(address(cat) != address(0), \"Missing previous step\");\n\n        // Deploy\n        end = endFab.newEnd();\n\n        // Internal references set up\n        end.file(\"vat\", address(vat));\n        end.file(\"cat\", address(cat));\n        end.file(\"vow\", address(vow));\n        end.file(\"spot\", address(spotter));\n\n        // Internal auth\n        vat.rely(address(end));\n        cat.rely(address(end));\n        vow.rely(address(end));\n\n        // Deploy ESM\n        esm = new ESM(gov, address(end), address(pit), min);\n        end.rely(address(esm));\n    }\n\n    function deployPause(uint delay, DSAuthority authority) public auth {\n        require(address(dai) != address(0), \"Missing previous step\");\n        require(address(end) != address(0), \"Missing previous step\");\n\n        pause = pauseFab.newPause(delay, address(0), authority);\n\n        vat.rely(address(pause.proxy()));\n        cat.rely(address(pause.proxy()));\n        vow.rely(address(pause.proxy()));\n        jug.rely(address(pause.proxy()));\n        pot.rely(address(pause.proxy()));\n        spotter.rely(address(pause.proxy()));\n        flap.rely(address(pause.proxy()));\n        flop.rely(address(pause.proxy()));\n        end.rely(address(pause.proxy()));\n\n        this.setAuthority(authority);\n        this.setOwner(address(0));\n    }\n\n    function deployCollateral(bytes32 ilk, address adapter, address pip) public auth {\n        require(ilk != bytes32(\"\"), \"Missing ilk name\");\n        require(adapter != address(0), \"Missing adapter address\");\n        require(pip != address(0), \"Missing PIP address\");\n        require(address(pause) != address(0), \"Missing previous step\");\n\n        // Deploy\n        ilks[ilk].flip = flipFab.newFlip(address(vat), ilk);\n        ilks[ilk].adapter = adapter;\n        Spotter(spotter).file(ilk, address(pip)); // Set pip\n\n        // Internal references set up\n        cat.file(ilk, \"flip\", address(ilks[ilk].flip));\n        vat.init(ilk);\n        jug.init(ilk);\n\n        // Internal auth\n        vat.rely(adapter);\n        ilks[ilk].flip.rely(address(end));\n        ilks[ilk].flip.rely(address(pause.proxy()));\n    }\n\n    function releaseAuth() public auth {\n        vat.deny(address(this));\n        cat.deny(address(this));\n        vow.deny(address(this));\n        jug.deny(address(this));\n        pot.deny(address(this));\n        dai.deny(address(this));\n        spotter.deny(address(this));\n        flap.deny(address(this));\n        flop.deny(address(this));\n        end.deny(address(this));\n    }\n\n    function releaseAuthFlip(bytes32 ilk) public auth {\n        ilks[ilk].flip.deny(address(this));\n    }\n}\n",
  "sourcePath": "E:/Dss-deployTest2/contracts/DssDeploy.sol",
  "compiler": {
    "name": "solc",
    "version": "0.5.8+commit.23d335f2.Emscripten.clang"
  },
  "schemaVersion": "3.0.12",
  "updatedAt": "2019-08-20T13:07:42.769Z",
  "devdoc": {
    "methods": {}
  },
  "userdoc": {
    "methods": {}
  }
}