{
  "contractName": "GovActions",
  "abi": [
    {
      "constant": false,
      "inputs": [
        {
          "name": "who",
          "type": "address"
        },
        {
          "name": "what",
          "type": "bytes32"
        },
        {
          "name": "data",
          "type": "uint256"
        }
      ],
      "name": "file",
      "outputs": [],
      "payable": false,
      "stateMutability": "nonpayable",
      "type": "function"
    },
    {
      "constant": false,
      "inputs": [
        {
          "name": "who",
          "type": "address"
        },
        {
          "name": "what",
          "type": "bytes32"
        },
        {
          "name": "data",
          "type": "bytes32"
        }
      ],
      "name": "file",
      "outputs": [],
      "payable": false,
      "stateMutability": "nonpayable",
      "type": "function"
    },
    {
      "constant": false,
      "inputs": [
        {
          "name": "who",
          "type": "address"
        },
        {
          "name": "data",
          "type": "address"
        }
      ],
      "name": "file",
      "outputs": [],
      "payable": false,
      "stateMutability": "nonpayable",
      "type": "function"
    },
    {
      "constant": false,
      "inputs": [
        {
          "name": "who",
          "type": "address"
        },
        {
          "name": "data",
          "type": "uint256"
        }
      ],
      "name": "file",
      "outputs": [],
      "payable": false,
      "stateMutability": "nonpayable",
      "type": "function"
    },
    {
      "constant": false,
      "inputs": [
        {
          "name": "who",
          "type": "address"
        },
        {
          "name": "ilk",
          "type": "bytes32"
        },
        {
          "name": "what",
          "type": "bytes32"
        },
        {
          "name": "data",
          "type": "address"
        }
      ],
      "name": "file",
      "outputs": [],
      "payable": false,
      "stateMutability": "nonpayable",
      "type": "function"
    },
    {
      "constant": false,
      "inputs": [
        {
          "name": "who",
          "type": "address"
        },
        {
          "name": "what",
          "type": "bytes32"
        },
        {
          "name": "data",
          "type": "address"
        }
      ],
      "name": "file",
      "outputs": [],
      "payable": false,
      "stateMutability": "nonpayable",
      "type": "function"
    },
    {
      "constant": false,
      "inputs": [
        {
          "name": "who",
          "type": "address"
        },
        {
          "name": "ilk",
          "type": "bytes32"
        },
        {
          "name": "what",
          "type": "bytes32"
        },
        {
          "name": "data",
          "type": "uint256"
        }
      ],
      "name": "file",
      "outputs": [],
      "payable": false,
      "stateMutability": "nonpayable",
      "type": "function"
    },
    {
      "constant": false,
      "inputs": [
        {
          "name": "who",
          "type": "address"
        },
        {
          "name": "to",
          "type": "address"
        }
      ],
      "name": "rely",
      "outputs": [],
      "payable": false,
      "stateMutability": "nonpayable",
      "type": "function"
    },
    {
      "constant": false,
      "inputs": [
        {
          "name": "who",
          "type": "address"
        },
        {
          "name": "to",
          "type": "address"
        }
      ],
      "name": "deny",
      "outputs": [],
      "payable": false,
      "stateMutability": "nonpayable",
      "type": "function"
    },
    {
      "constant": false,
      "inputs": [
        {
          "name": "who",
          "type": "address"
        },
        {
          "name": "ilk",
          "type": "bytes32"
        }
      ],
      "name": "init",
      "outputs": [],
      "payable": false,
      "stateMutability": "nonpayable",
      "type": "function"
    },
    {
      "constant": false,
      "inputs": [
        {
          "name": "end",
          "type": "address"
        }
      ],
      "name": "cage",
      "outputs": [],
      "payable": false,
      "stateMutability": "nonpayable",
      "type": "function"
    },
    {
      "constant": false,
      "inputs": [
        {
          "name": "end",
          "type": "address"
        },
        {
          "name": "ilk",
          "type": "bytes32"
        }
      ],
      "name": "cage",
      "outputs": [],
      "payable": false,
      "stateMutability": "nonpayable",
      "type": "function"
    },
    {
      "constant": false,
      "inputs": [
        {
          "name": "pause",
          "type": "address"
        },
        {
          "name": "newAuthority",
          "type": "address"
        }
      ],
      "name": "setAuthority",
      "outputs": [],
      "payable": false,
      "stateMutability": "nonpayable",
      "type": "function"
    },
    {
      "constant": false,
      "inputs": [
        {
          "name": "pause",
          "type": "address"
        },
        {
          "name": "newDelay",
          "type": "uint256"
        }
      ],
      "name": "setDelay",
      "outputs": [],
      "payable": false,
      "stateMutability": "nonpayable",
      "type": "function"
    },
    {
      "constant": false,
      "inputs": [
        {
          "name": "pause",
          "type": "address"
        },
        {
          "name": "newAuthority",
          "type": "address"
        },
        {
          "name": "newDelay",
          "type": "uint256"
        }
      ],
      "name": "setAuthorityAndDelay",
      "outputs": [],
      "payable": false,
      "stateMutability": "nonpayable",
      "type": "function"
    }
  ],
  "bytecode": "0x608060405234801561001057600080fd5b50610eec806100206000396000f3fe608060405234801561001057600080fd5b50600436106100f55760003560e01c8063b7beac5911610097578063e7796f3311610066578063e7796f33146104ea578063f1f169e71461054e578063f54c4e46146105bc578063fa6b6f6d1461060a576100f5565b8063b7beac591461035c578063d95270f1146103b4578063d9c6f87614610418578063e43c09f414610486576100f5565b80632cc0b254116100d35780632cc0b254146102045780632d9f080e146102525780636d21e4e2146102ca578063b169542c14610318576100f5565b80631d23797a146100fa5780631dbec45e146101525780632c484080146101a0575b600080fd5b6101506004803603606081101561011057600080fd5b81019080803573ffffffffffffffffffffffffffffffffffffffff169060200190929190803590602001909291908035906020019092919050505061066c565b005b61019e6004803603604081101561016857600080fd5b81019080803573ffffffffffffffffffffffffffffffffffffffff169060200190929190803590602001909291905050506106e4565b005b610202600480360360408110156101b657600080fd5b81019080803573ffffffffffffffffffffffffffffffffffffffff169060200190929190803573ffffffffffffffffffffffffffffffffffffffff169060200190929190505050610753565b005b6102506004803603604081101561021a57600080fd5b81019080803573ffffffffffffffffffffffffffffffffffffffff169060200190929190803590602001909291905050506107ee565b005b6102c86004803603608081101561026857600080fd5b81019080803573ffffffffffffffffffffffffffffffffffffffff1690602001909291908035906020019092919080359060200190929190803573ffffffffffffffffffffffffffffffffffffffff16906020019092919050505061085d565b005b610316600480360360408110156102e057600080fd5b81019080803573ffffffffffffffffffffffffffffffffffffffff1690602001909291908035906020019092919050505061090a565b005b61035a6004803603602081101561032e57600080fd5b81019080803573ffffffffffffffffffffffffffffffffffffffff169060200190929190505050610979565b005b6103b26004803603606081101561037257600080fd5b81019080803573ffffffffffffffffffffffffffffffffffffffff16906020019092919080359060200190929190803590602001909291905050506109dc565b005b610416600480360360408110156103ca57600080fd5b81019080803573ffffffffffffffffffffffffffffffffffffffff169060200190929190803573ffffffffffffffffffffffffffffffffffffffff169060200190929190505050610a54565b005b6104846004803603606081101561042e57600080fd5b81019080803573ffffffffffffffffffffffffffffffffffffffff169060200190929190803573ffffffffffffffffffffffffffffffffffffffff16906020019092919080359060200190929190505050610aef565b005b6104e86004803603604081101561049c57600080fd5b81019080803573ffffffffffffffffffffffffffffffffffffffff169060200190929190803573ffffffffffffffffffffffffffffffffffffffff169060200190929190505050610bf6565b005b61054c6004803603604081101561050057600080fd5b81019080803573ffffffffffffffffffffffffffffffffffffffff169060200190929190803573ffffffffffffffffffffffffffffffffffffffff169060200190929190505050610c91565b005b6105ba6004803603606081101561056457600080fd5b81019080803573ffffffffffffffffffffffffffffffffffffffff16906020019092919080359060200190929190803573ffffffffffffffffffffffffffffffffffffffff169060200190929190505050610d2c565b005b610608600480360360408110156105d257600080fd5b81019080803573ffffffffffffffffffffffffffffffffffffffff16906020019092919080359060200190929190505050610dd0565b005b61066a6004803603608081101561062057600080fd5b81019080803573ffffffffffffffffffffffffffffffffffffffff169060200190929190803590602001909291908035906020019092919080359060200190929190505050610e3f565b005b8273ffffffffffffffffffffffffffffffffffffffff1663e9b674b983836040518363ffffffff1660e01b81526004018083815260200182815260200192505050600060405180830381600087803b1580156106c757600080fd5b505af11580156106db573d6000803e3d6000fd5b50505050505050565b8173ffffffffffffffffffffffffffffffffffffffff1663e2702fdc826040518263ffffffff1660e01b815260040180828152602001915050600060405180830381600087803b15801561073757600080fd5b505af115801561074b573d6000803e3d6000fd5b505050505050565b8173ffffffffffffffffffffffffffffffffffffffff1663048046c1826040518263ffffffff1660e01b8152600401808273ffffffffffffffffffffffffffffffffffffffff1673ffffffffffffffffffffffffffffffffffffffff168152602001915050600060405180830381600087803b1580156107d257600080fd5b505af11580156107e6573d6000803e3d6000fd5b505050505050565b8173ffffffffffffffffffffffffffffffffffffffff16633b663195826040518263ffffffff1660e01b815260040180828152602001915050600060405180830381600087803b15801561084157600080fd5b505af1158015610855573d6000803e3d6000fd5b505050505050565b8373ffffffffffffffffffffffffffffffffffffffff1663ebecb39d8484846040518463ffffffff1660e01b8152600401808481526020018381526020018273ffffffffffffffffffffffffffffffffffffffff1673ffffffffffffffffffffffffffffffffffffffff1681526020019350505050600060405180830381600087803b1580156108ec57600080fd5b505af1158015610900573d6000803e3d6000fd5b5050505050505050565b8173ffffffffffffffffffffffffffffffffffffffff1663e177246e826040518263ffffffff1660e01b815260040180828152602001915050600060405180830381600087803b15801561095d57600080fd5b505af1158015610971573d6000803e3d6000fd5b505050505050565b8073ffffffffffffffffffffffffffffffffffffffff1663692450096040518163ffffffff1660e01b8152600401600060405180830381600087803b1580156109c157600080fd5b505af11580156109d5573d6000803e3d6000fd5b5050505050565b8273ffffffffffffffffffffffffffffffffffffffff166329ae811483836040518363ffffffff1660e01b81526004018083815260200182815260200192505050600060405180830381600087803b158015610a3757600080fd5b505af1158015610a4b573d6000803e3d6000fd5b50505050505050565b8173ffffffffffffffffffffffffffffffffffffffff166365fae35e826040518263ffffffff1660e01b8152600401808273ffffffffffffffffffffffffffffffffffffffff1673ffffffffffffffffffffffffffffffffffffffff168152602001915050600060405180830381600087803b158015610ad357600080fd5b505af1158015610ae7573d6000803e3d6000fd5b505050505050565b8273ffffffffffffffffffffffffffffffffffffffff16637a9e5e4b836040518263ffffffff1660e01b8152600401808273ffffffffffffffffffffffffffffffffffffffff1673ffffffffffffffffffffffffffffffffffffffff168152602001915050600060405180830381600087803b158015610b6e57600080fd5b505af1158015610b82573d6000803e3d6000fd5b505050508273ffffffffffffffffffffffffffffffffffffffff1663e177246e826040518263ffffffff1660e01b815260040180828152602001915050600060405180830381600087803b158015610bd957600080fd5b505af1158015610bed573d6000803e3d6000fd5b50505050505050565b8173ffffffffffffffffffffffffffffffffffffffff16639c52a7f1826040518263ffffffff1660e01b8152600401808273ffffffffffffffffffffffffffffffffffffffff1673ffffffffffffffffffffffffffffffffffffffff168152602001915050600060405180830381600087803b158015610c7557600080fd5b505af1158015610c89573d6000803e3d6000fd5b505050505050565b8173ffffffffffffffffffffffffffffffffffffffff16637a9e5e4b826040518263ffffffff1660e01b8152600401808273ffffffffffffffffffffffffffffffffffffffff1673ffffffffffffffffffffffffffffffffffffffff168152602001915050600060405180830381600087803b158015610d1057600080fd5b505af1158015610d24573d6000803e3d6000fd5b505050505050565b8273ffffffffffffffffffffffffffffffffffffffff1663d4e8be8383836040518363ffffffff1660e01b8152600401808381526020018273ffffffffffffffffffffffffffffffffffffffff1673ffffffffffffffffffffffffffffffffffffffff16815260200192505050600060405180830381600087803b158015610db357600080fd5b505af1158015610dc7573d6000803e3d6000fd5b50505050505050565b8173ffffffffffffffffffffffffffffffffffffffff16631d6abc6e826040518263ffffffff1660e01b815260040180828152602001915050600060405180830381600087803b158015610e2357600080fd5b505af1158015610e37573d6000803e3d6000fd5b505050505050565b8373ffffffffffffffffffffffffffffffffffffffff16631a0b287e8484846040518463ffffffff1660e01b8152600401808481526020018381526020018281526020019350505050600060405180830381600087803b158015610ea257600080fd5b505af1158015610eb6573d6000803e3d6000fd5b505050505050505056fea165627a7a72305820338fae97724def5523651a05808925b3bd3ee1aedd8c9b877559a106c9d15c200029",
  "source": "pragma solidity >=0.5.0;\n\ncontract Setter {\n    function file(address) public;\n    function file(uint) public;\n    function file(bytes32, address) public;\n    function file(bytes32, uint) public;\n    function file(bytes32, bytes32) public;\n    function file(bytes32, bytes32, uint) public;\n    function file(bytes32, bytes32, address) public;\n    function rely(address) public;\n    function deny(address) public;\n    function init(bytes32) public;\n}\n\ncontract EndLike {\n    function cage() public;\n    function cage(bytes32) public;\n}\n\ncontract PauseLike {\n    function setAuthority(address) public;\n    function setDelay(uint) public;\n}\n\ncontract GovActions {\n    function file(address who, address data) public {\n        Setter(who).file(data);\n    }\n\n    function file(address who, uint data) public {\n        Setter(who).file(data);\n    }\n\n    function file(address who, bytes32 what, address data) public {\n        Setter(who).file(what, data);\n    }\n\n    function file(address who, bytes32 what, uint data) public {\n        Setter(who).file(what, data);\n    }\n\n    function file(address who, bytes32 what, bytes32 data) public {\n        Setter(who).file(what, data);\n    }\n\n    function file(address who, bytes32 ilk, bytes32 what, uint data) public {\n        Setter(who).file(ilk, what, data);\n    }\n\n    function file(address who, bytes32 ilk, bytes32 what, address data) public {\n        Setter(who).file(ilk, what, data);\n    }\n\n    function rely(address who, address to) public {\n        Setter(who).rely(to);\n    }\n\n    function deny(address who, address to) public {\n        Setter(who).deny(to);\n    }\n\n    function init(address who, bytes32 ilk) public {\n        Setter(who).init(ilk);\n    }\n\n    function cage(address end) public {\n        EndLike(end).cage();\n    }\n\n    function cage(address end, bytes32 ilk) public {\n        EndLike(end).cage(ilk);\n    }\n\n    function setAuthority(address pause, address newAuthority) public {\n        PauseLike(pause).setAuthority(newAuthority);\n    }\n\n    function setDelay(address pause, uint newDelay) public {\n        PauseLike(pause).setDelay(newDelay);\n    }\n\n    function setAuthorityAndDelay(address pause, address newAuthority, uint newDelay) public {\n        PauseLike(pause).setAuthority(newAuthority);\n        PauseLike(pause).setDelay(newDelay);\n    }\n}\n",
  "sourcePath": "E:/Dss-deployTest2/contracts/govActions.sol",
  "compiler": {
    "name": "solc",
    "version": "0.5.8+commit.23d335f2.Emscripten.clang"
  },
  "schemaVersion": "3.0.11",
  "updatedAt": "2019-08-20T06:26:04.393Z",
  "devdoc": {
    "methods": {}
  },
  "userdoc": {
    "methods": {}
  }
}