{
  "contractName": "Jug",
  "abi": [
    {
      "constant": true,
      "inputs": [],
      "name": "vat",
      "outputs": [
        {
          "name": "",
          "type": "address"
        }
      ],
      "payable": false,
      "stateMutability": "view",
      "type": "function"
    },
    {
      "constant": true,
      "inputs": [],
      "name": "base",
      "outputs": [
        {
          "name": "",
          "type": "uint256"
        }
      ],
      "payable": false,
      "stateMutability": "view",
      "type": "function"
    },
    {
      "constant": true,
      "inputs": [],
      "name": "vow",
      "outputs": [
        {
          "name": "",
          "type": "address"
        }
      ],
      "payable": false,
      "stateMutability": "view",
      "type": "function"
    },
    {
      "constant": true,
      "inputs": [
        {
          "name": "",
          "type": "address"
        }
      ],
      "name": "wards",
      "outputs": [
        {
          "name": "",
          "type": "uint256"
        }
      ],
      "payable": false,
      "stateMutability": "view",
      "type": "function"
    },
    {
      "constant": true,
      "inputs": [
        {
          "name": "",
          "type": "bytes32"
        }
      ],
      "name": "ilks",
      "outputs": [
        {
          "name": "duty",
          "type": "uint256"
        },
        {
          "name": "rho",
          "type": "uint256"
        }
      ],
      "payable": false,
      "stateMutability": "view",
      "type": "function"
    },
    {
      "inputs": [
        {
          "name": "vat_",
          "type": "address"
        }
      ],
      "payable": false,
      "stateMutability": "nonpayable",
      "type": "constructor"
    },
    {
      "anonymous": true,
      "inputs": [
        {
          "indexed": true,
          "name": "sig",
          "type": "bytes4"
        },
        {
          "indexed": true,
          "name": "usr",
          "type": "address"
        },
        {
          "indexed": true,
          "name": "arg1",
          "type": "bytes32"
        },
        {
          "indexed": true,
          "name": "arg2",
          "type": "bytes32"
        },
        {
          "indexed": false,
          "name": "data",
          "type": "bytes"
        }
      ],
      "name": "LogNote",
      "type": "event"
    },
    {
      "constant": false,
      "inputs": [
        {
          "name": "usr",
          "type": "address"
        }
      ],
      "name": "rely",
      "outputs": [],
      "payable": false,
      "stateMutability": "nonpayable",
      "type": "function"
    },
    {
      "constant": false,
      "inputs": [
        {
          "name": "usr",
          "type": "address"
        }
      ],
      "name": "deny",
      "outputs": [],
      "payable": false,
      "stateMutability": "nonpayable",
      "type": "function"
    },
    {
      "constant": false,
      "inputs": [
        {
          "name": "ilk",
          "type": "bytes32"
        }
      ],
      "name": "init",
      "outputs": [],
      "payable": false,
      "stateMutability": "nonpayable",
      "type": "function"
    },
    {
      "constant": false,
      "inputs": [
        {
          "name": "ilk",
          "type": "bytes32"
        },
        {
          "name": "what",
          "type": "bytes32"
        },
        {
          "name": "data",
          "type": "uint256"
        }
      ],
      "name": "file",
      "outputs": [],
      "payable": false,
      "stateMutability": "nonpayable",
      "type": "function"
    },
    {
      "constant": false,
      "inputs": [
        {
          "name": "what",
          "type": "bytes32"
        },
        {
          "name": "data",
          "type": "uint256"
        }
      ],
      "name": "file",
      "outputs": [],
      "payable": false,
      "stateMutability": "nonpayable",
      "type": "function"
    },
    {
      "constant": false,
      "inputs": [
        {
          "name": "what",
          "type": "bytes32"
        },
        {
          "name": "data",
          "type": "address"
        }
      ],
      "name": "file",
      "outputs": [],
      "payable": false,
      "stateMutability": "nonpayable",
      "type": "function"
    },
    {
      "constant": false,
      "inputs": [
        {
          "name": "ilk",
          "type": "bytes32"
        }
      ],
      "name": "drip",
      "outputs": [],
      "payable": false,
      "stateMutability": "nonpayable",
      "type": "function"
    }
  ],
  "bytecode": "0x608060405234801561001057600080fd5b50604051602080611094833981018060405261002f91908101906100cf565b60016000803373ffffffffffffffffffffffffffffffffffffffff1673ffffffffffffffffffffffffffffffffffffffff1681526020019081526020016000208190555080600260006101000a81548173ffffffffffffffffffffffffffffffffffffffff021916908373ffffffffffffffffffffffffffffffffffffffff16021790555050610141565b6000815190506100c98161012a565b92915050565b6000602082840312156100e157600080fd5b60006100ef848285016100ba565b91505092915050565b60006101038261010a565b9050919050565b600073ffffffffffffffffffffffffffffffffffffffff82169050919050565b610133816100f8565b811461013e57600080fd5b50565b610f44806101506000396000f3fe608060405234801561001057600080fd5b50600436106100b45760003560e01c8063626cb3c511610071578063626cb3c51461016557806365fae35e146101835780639c52a7f11461019f578063bf353dbb146101bb578063d4e8be83146101eb578063d9638d3614610207576100b4565b80631a0b287e146100b957806329ae8114146100d557806336569e77146100f15780633b6631951461010f57806344e2a5a81461012b5780635001f3b514610147575b600080fd5b6100d360048036036100ce9190810190610c59565b610238565b005b6100ef60048036036100ea9190810190610ca8565b6102ff565b005b6100f96103b1565b6040516101069190610dc5565b60405180910390f35b61012960048036036101249190810190610bf4565b6103d7565b005b61014560048036036101409190810190610bf4565b61049f565b005b61014f6106e6565b60405161015c9190610de0565b60405180910390f35b61016d6106ec565b60405161017a9190610d58565b60405180910390f35b61019d60048036036101989190810190610bcb565b610712565b005b6101b960048036036101b49190810190610bcb565b6107d7565b005b6101d560048036036101d09190810190610bcb565b61089c565b6040516101e29190610de0565b60405180910390f35b61020560048036036102009190810190610c1d565b6108b4565b005b610221600480360361021c9190810190610bf4565b6109a0565b60405161022f929190610dfb565b60405180910390f35b60016000803373ffffffffffffffffffffffffffffffffffffffff1673ffffffffffffffffffffffffffffffffffffffff168152602001908152602001600020541461028357600080fd5b7f64757479000000000000000000000000000000000000000000000000000000008214156102c7578060016000858152602001908152602001600020600001819055505b5961012081016040526020815260e0602082015260e0600060408301376024356004353360003560e01c60e01b61012085a450505050565b60016000803373ffffffffffffffffffffffffffffffffffffffff1673ffffffffffffffffffffffffffffffffffffffff168152602001908152602001600020541461034a57600080fd5b7f626173650000000000000000000000000000000000000000000000000000000082141561037a57806004819055505b5961012081016040526020815260e0602082015260e0600060408301376024356004353360003560e01c60e01b61012085a4505050565b600260009054906101000a900473ffffffffffffffffffffffffffffffffffffffff1681565b60016000803373ffffffffffffffffffffffffffffffffffffffff1673ffffffffffffffffffffffffffffffffffffffff168152602001908152602001600020541461042257600080fd5b6000600160008381526020019081526020016000209050600081600001541461044a57600080fd5b6b033b2e3c9fd0803ce80000008160000181905550428160010181905550505961012081016040526020815260e0602082015260e0600060408301376024356004353360003560e01c60e01b61012085a45050565b60016000828152602001908152602001600020600101544210156104c257600080fd5b6104ca610b11565b600260009054906101000a900473ffffffffffffffffffffffffffffffffffffffff1673ffffffffffffffffffffffffffffffffffffffff1663d9638d36836040518263ffffffff1660e01b81526004016105259190610d73565b6040805180830381600087803b15801561053e57600080fd5b505af1158015610552573d6000803e3d6000fd5b505050506040513d601f19601f820116820180604052506105769190810190610ce4565b9050600260009054906101000a900473ffffffffffffffffffffffffffffffffffffffff1673ffffffffffffffffffffffffffffffffffffffff1663b65337df83600360009054906101000a900473ffffffffffffffffffffffffffffffffffffffff1661064461063a610630610605600454600160008c8152602001908152602001600020600001546109c4565b600160008b81526020019081526020016000206001015442036b033b2e3c9fd0803ce80000006109de565b8760200151610aa4565b8660200151610ae9565b6040518463ffffffff1660e01b815260040161066293929190610d8e565b600060405180830381600087803b15801561067c57600080fd5b505af1158015610690573d6000803e3d6000fd5b50505050426001600084815260200190815260200160002060010181905550505961012081016040526020815260e0602082015260e0600060408301376024356004353360003560e01c60e01b61012085a45050565b60045481565b600360009054906101000a900473ffffffffffffffffffffffffffffffffffffffff1681565b60016000803373ffffffffffffffffffffffffffffffffffffffff1673ffffffffffffffffffffffffffffffffffffffff168152602001908152602001600020541461075d57600080fd5b60016000808373ffffffffffffffffffffffffffffffffffffffff1673ffffffffffffffffffffffffffffffffffffffff168152602001908152602001600020819055505961012081016040526020815260e0602082015260e0600060408301376024356004353360003560e01c60e01b61012085a45050565b60016000803373ffffffffffffffffffffffffffffffffffffffff1673ffffffffffffffffffffffffffffffffffffffff168152602001908152602001600020541461082257600080fd5b60008060008373ffffffffffffffffffffffffffffffffffffffff1673ffffffffffffffffffffffffffffffffffffffff168152602001908152602001600020819055505961012081016040526020815260e0602082015260e0600060408301376024356004353360003560e01c60e01b61012085a45050565b60006020528060005260406000206000915090505481565b60016000803373ffffffffffffffffffffffffffffffffffffffff1673ffffffffffffffffffffffffffffffffffffffff16815260200190815260200160002054146108ff57600080fd5b7f766f7700000000000000000000000000000000000000000000000000000000008214156109695780600360006101000a81548173ffffffffffffffffffffffffffffffffffffffff021916908373ffffffffffffffffffffffffffffffffffffffff1602179055505b5961012081016040526020815260e0602082015260e0600060408301376024356004353360003560e01c60e01b61012085a4505050565b60016020528060005260406000206000915090508060000154908060010154905082565b60008183019050828110156109d857600080fd5b92915050565b60008360008114610a845760028406600081146109fd57859250610a01565b8392505b50600283046002850494505b8415610a7e578586028687820414610a2457600080fd5b81810181811015610a3457600080fd5b85810497506002870615610a71578785028589820414158915151615610a5957600080fd5b83810181811015610a6957600080fd5b878104965050505b5050600285049450610a0d565b50610a9c565b8360008114610a965760009250610a9a565b8392505b505b509392505050565b600081830290506000821480610ac2575082828281610abf57fe5b04145b610acb57600080fd5b6b033b2e3c9fd0803ce80000008181610ae057fe5b04905092915050565b6000818303905060008312158015610b02575060008212155b610b0b57600080fd5b92915050565b604051806040016040528060008152602001600081525090565b600081359050610b3a81610ec5565b92915050565b600081359050610b4f81610edc565b92915050565b600060408284031215610b6757600080fd5b610b716040610e24565b90506000610b8184828501610bb6565b6000830152506020610b9584828501610bb6565b60208301525092915050565b600081359050610bb081610ef3565b92915050565b600081519050610bc581610ef3565b92915050565b600060208284031215610bdd57600080fd5b6000610beb84828501610b2b565b91505092915050565b600060208284031215610c0657600080fd5b6000610c1484828501610b40565b91505092915050565b60008060408385031215610c3057600080fd5b6000610c3e85828601610b40565b9250506020610c4f85828601610b2b565b9150509250929050565b600080600060608486031215610c6e57600080fd5b6000610c7c86828701610b40565b9350506020610c8d86828701610b40565b9250506040610c9e86828701610ba1565b9150509250925092565b60008060408385031215610cbb57600080fd5b6000610cc985828601610b40565b9250506020610cda85828601610ba1565b9150509250929050565b600060408284031215610cf657600080fd5b6000610d0484828501610b55565b91505092915050565b610d1681610e51565b82525050565b610d2581610e63565b82525050565b610d3481610ea1565b82525050565b610d4381610e6d565b82525050565b610d5281610e97565b82525050565b6000602082019050610d6d6000830184610d0d565b92915050565b6000602082019050610d886000830184610d1c565b92915050565b6000606082019050610da36000830186610d1c565b610db06020830185610d0d565b610dbd6040830184610d3a565b949350505050565b6000602082019050610dda6000830184610d2b565b92915050565b6000602082019050610df56000830184610d49565b92915050565b6000604082019050610e106000830185610d49565b610e1d6020830184610d49565b9392505050565b6000604051905081810181811067ffffffffffffffff82111715610e4757600080fd5b8060405250919050565b6000610e5c82610e77565b9050919050565b6000819050919050565b6000819050919050565b600073ffffffffffffffffffffffffffffffffffffffff82169050919050565b6000819050919050565b6000610eac82610eb3565b9050919050565b6000610ebe82610e77565b9050919050565b610ece81610e51565b8114610ed957600080fd5b50565b610ee581610e63565b8114610ef057600080fd5b50565b610efc81610e97565b8114610f0757600080fd5b5056fea265627a7a72305820552b71c6ac7f903a49fa974816d7e65ef2da265f32613a99818f714ba36407466c6578706572696d656e74616cf50037",
  "source": "pragma solidity >=0.5.0;\npragma experimental ABIEncoderV2;\n\nimport \"./lib.sol\";\n\ncontract VatLike {\n    struct Ilk {\n        uint256 Art;   // wad\n        uint256 rate;  // ray\n    }\n    function ilks(bytes32) external returns (Ilk memory);\n    function fold(bytes32,address,int) external;\n}\n\ncontract Jug is DSNote {\n    // --- Auth ---\n    mapping (address => uint) public wards;\n    function rely(address usr) external note auth { wards[usr] = 1; }\n    function deny(address usr) external note auth { wards[usr] = 0; }\n    modifier auth { require(wards[msg.sender] == 1); _; }\n\n    // --- Data ---\n    struct Ilk {\n        uint256 duty;\n        uint256  rho;\n    }\n\n    mapping (bytes32 => Ilk) public ilks;\n    VatLike                  public vat;\n    address                  public vow;\n    uint256                  public base;\n\n    // --- Init ---\n    constructor(address vat_) public {\n        wards[msg.sender] = 1;\n        vat = VatLike(vat_);\n    }\n\n    // --- Math ---\n    function rpow(uint x, uint n, uint b) internal pure returns (uint z) {\n      assembly {\n        switch x case 0 {switch n case 0 {z := b} default {z := 0}}\n        default {\n          switch mod(n, 2) case 0 { z := b } default { z := x }\n          let half := div(b, 2)  // for rounding.\n          for { n := div(n, 2) } n { n := div(n,2) } {\n            let xx := mul(x, x)\n            if iszero(eq(div(xx, x), x)) { revert(0,0) }\n            let xxRound := add(xx, half)\n            if lt(xxRound, xx) { revert(0,0) }\n            x := div(xxRound, b)\n            if mod(n,2) {\n              let zx := mul(z, x)\n              if and(iszero(iszero(x)), iszero(eq(div(zx, x), z))) { revert(0,0) }\n              let zxRound := add(zx, half)\n              if lt(zxRound, zx) { revert(0,0) }\n              z := div(zxRound, b)\n            }\n          }\n        }\n      }\n    }\n    uint256 constant ONE = 10 ** 27;\n    function add(uint x, uint y) internal pure returns (uint z) {\n        z = x + y;\n        require(z >= x);\n    }\n    function diff(uint x, uint y) internal pure returns (int z) {\n        z = int(x) - int(y);\n        require(int(x) >= 0 && int(y) >= 0);\n    }\n    function rmul(uint x, uint y) internal pure returns (uint z) {\n        z = x * y;\n        require(y == 0 || z / y == x);\n        z = z / ONE;\n    }\n\n    // --- Administration ---\n    function init(bytes32 ilk) external note auth {\n        Ilk storage i = ilks[ilk];\n        require(i.duty == 0);\n        i.duty = ONE;\n        i.rho  = now;\n    }\n    function file(bytes32 ilk, bytes32 what, uint data) external note auth {\n        if (what == \"duty\") ilks[ilk].duty = data;\n    }\n    function file(bytes32 what, uint data) external note auth {\n        if (what == \"base\") base = data;\n    }\n    function file(bytes32 what, address data) external note auth {\n        if (what == \"vow\") vow = data;\n    }\n\n    // --- Stability Fee Collection ---\n    function drip(bytes32 ilk) external note {\n        require(now >= ilks[ilk].rho);\n        VatLike.Ilk memory i = vat.ilks(ilk);\n        vat.fold(ilk, vow, diff(rmul(rpow(add(base, ilks[ilk].duty), now - ilks[ilk].rho, ONE), i.rate), i.rate));\n        ilks[ilk].rho = now;\n    }\n}\n",
  "sourcePath": "E:\\Dss-deployTest2\\lib\\dss\\contracts\\jug.sol",
  "compiler": {
    "name": "solc",
    "version": "0.5.8+commit.23d335f2.Emscripten.clang"
  },
  "schemaVersion": "3.0.11",
  "updatedAt": "2019-08-20T06:26:04.593Z",
  "devdoc": {
    "methods": {}
  },
  "userdoc": {
    "methods": {}
  }
}