{
  "contractName": "Spotter",
  "abi": [
    {
      "constant": true,
      "inputs": [],
      "name": "vat",
      "outputs": [
        {
          "name": "",
          "type": "address"
        }
      ],
      "payable": false,
      "stateMutability": "view",
      "type": "function"
    },
    {
      "constant": true,
      "inputs": [],
      "name": "par",
      "outputs": [
        {
          "name": "",
          "type": "uint256"
        }
      ],
      "payable": false,
      "stateMutability": "view",
      "type": "function"
    },
    {
      "constant": true,
      "inputs": [
        {
          "name": "",
          "type": "address"
        }
      ],
      "name": "wards",
      "outputs": [
        {
          "name": "",
          "type": "uint256"
        }
      ],
      "payable": false,
      "stateMutability": "view",
      "type": "function"
    },
    {
      "constant": true,
      "inputs": [
        {
          "name": "",
          "type": "bytes32"
        }
      ],
      "name": "ilks",
      "outputs": [
        {
          "name": "pip",
          "type": "address"
        },
        {
          "name": "mat",
          "type": "uint256"
        }
      ],
      "payable": false,
      "stateMutability": "view",
      "type": "function"
    },
    {
      "inputs": [
        {
          "name": "vat_",
          "type": "address"
        }
      ],
      "payable": false,
      "stateMutability": "nonpayable",
      "type": "constructor"
    },
    {
      "anonymous": false,
      "inputs": [
        {
          "indexed": false,
          "name": "ilk",
          "type": "bytes32"
        },
        {
          "indexed": false,
          "name": "val",
          "type": "bytes32"
        },
        {
          "indexed": false,
          "name": "spot",
          "type": "uint256"
        }
      ],
      "name": "Poke",
      "type": "event"
    },
    {
      "anonymous": true,
      "inputs": [
        {
          "indexed": true,
          "name": "sig",
          "type": "bytes4"
        },
        {
          "indexed": true,
          "name": "usr",
          "type": "address"
        },
        {
          "indexed": true,
          "name": "arg1",
          "type": "bytes32"
        },
        {
          "indexed": true,
          "name": "arg2",
          "type": "bytes32"
        },
        {
          "indexed": false,
          "name": "data",
          "type": "bytes"
        }
      ],
      "name": "LogNote",
      "type": "event"
    },
    {
      "constant": false,
      "inputs": [
        {
          "name": "guy",
          "type": "address"
        }
      ],
      "name": "rely",
      "outputs": [],
      "payable": false,
      "stateMutability": "nonpayable",
      "type": "function"
    },
    {
      "constant": false,
      "inputs": [
        {
          "name": "guy",
          "type": "address"
        }
      ],
      "name": "deny",
      "outputs": [],
      "payable": false,
      "stateMutability": "nonpayable",
      "type": "function"
    },
    {
      "constant": false,
      "inputs": [
        {
          "name": "ilk",
          "type": "bytes32"
        },
        {
          "name": "what",
          "type": "bytes32"
        },
        {
          "name": "data",
          "type": "uint256"
        }
      ],
      "name": "file",
      "outputs": [],
      "payable": false,
      "stateMutability": "nonpayable",
      "type": "function"
    },
    {
      "constant": false,
      "inputs": [
        {
          "name": "what",
          "type": "bytes32"
        },
        {
          "name": "data",
          "type": "uint256"
        }
      ],
      "name": "file",
      "outputs": [],
      "payable": false,
      "stateMutability": "nonpayable",
      "type": "function"
    },
    {
      "constant": false,
      "inputs": [
        {
          "name": "ilk",
          "type": "bytes32"
        },
        {
          "name": "pip_",
          "type": "address"
        }
      ],
      "name": "file",
      "outputs": [],
      "payable": false,
      "stateMutability": "nonpayable",
      "type": "function"
    },
    {
      "constant": false,
      "inputs": [
        {
          "name": "ilk",
          "type": "bytes32"
        }
      ],
      "name": "poke",
      "outputs": [],
      "payable": false,
      "stateMutability": "nonpayable",
      "type": "function"
    }
  ],
  "bytecode": "0x608060405234801561001057600080fd5b50604051602080610b3b8339810180604052602081101561003057600080fd5b810190808051906020019092919050505060016000803373ffffffffffffffffffffffffffffffffffffffff1673ffffffffffffffffffffffffffffffffffffffff1681526020019081526020016000208190555080600260006101000a81548173ffffffffffffffffffffffffffffffffffffffff021916908373ffffffffffffffffffffffffffffffffffffffff1602179055506b033b2e3c9fd0803ce800000060038190555050610a52806100e96000396000f3fe608060405234801561001057600080fd5b506004361061009e5760003560e01c806365fae35e1161006657806365fae35e146101b35780639c52a7f1146101f7578063bf353dbb1461023b578063d4e8be8314610293578063d9638d36146102e15761009e565b80631504460f146100a35780631a0b287e146100d157806329ae81141461011357806336569e771461014b578063495d32cb14610195575b600080fd5b6100cf600480360360208110156100b957600080fd5b8101908080359060200190929190505050610356565b005b610111600480360360608110156100e757600080fd5b8101908080359060200190929190803590602001909291908035906020019092919050505061056f565b005b6101496004803603604081101561012957600080fd5b810190808035906020019092919080359060200190929190505050610636565b005b6101536106e8565b604051808273ffffffffffffffffffffffffffffffffffffffff1673ffffffffffffffffffffffffffffffffffffffff16815260200191505060405180910390f35b61019d61070e565b6040518082815260200191505060405180910390f35b6101f5600480360360208110156101c957600080fd5b81019080803573ffffffffffffffffffffffffffffffffffffffff169060200190929190505050610714565b005b6102396004803603602081101561020d57600080fd5b81019080803573ffffffffffffffffffffffffffffffffffffffff1690602001909291905050506107d9565b005b61027d6004803603602081101561025157600080fd5b81019080803573ffffffffffffffffffffffffffffffffffffffff16906020019092919050505061089e565b6040518082815260200191505060405180910390f35b6102df600480360360408110156102a957600080fd5b8101908080359060200190929190803573ffffffffffffffffffffffffffffffffffffffff1690602001909291905050506108b6565b005b61030d600480360360208110156102f757600080fd5b810190808035906020019092919050505061098d565b604051808373ffffffffffffffffffffffffffffffffffffffff1673ffffffffffffffffffffffffffffffffffffffff1681526020018281526020019250505060405180910390f35b6000806001600084815260200190815260200160002060000160009054906101000a900473ffffffffffffffffffffffffffffffffffffffff1673ffffffffffffffffffffffffffffffffffffffff166359e02dd76040518163ffffffff1660e01b81526004016040805180830381600087803b1580156103d657600080fd5b505af11580156103ea573d6000803e3d6000fd5b505050506040513d604081101561040057600080fd5b81019080805190602001909291908051906020019092919050505091509150801561056a57600061046261044661043e8560001c633b9aca006109d1565b6003546109fd565b60016000878152602001908152602001600020600101546109fd565b9050600260009054906101000a900473ffffffffffffffffffffffffffffffffffffffff1673ffffffffffffffffffffffffffffffffffffffff16631a0b287e85836040518363ffffffff1660e01b815260040180838152602001807f73706f740000000000000000000000000000000000000000000000000000000081525060200182815260200192505050600060405180830381600087803b15801561050957600080fd5b505af115801561051d573d6000803e3d6000fd5b505050507fdfd7467e425a8107cfd368d159957692c25085aacbcf5228ce08f10f2146486e84848360405180848152602001838152602001828152602001935050505060405180910390a1505b505050565b60016000803373ffffffffffffffffffffffffffffffffffffffff1673ffffffffffffffffffffffffffffffffffffffff16815260200190815260200160002054146105ba57600080fd5b7f6d617400000000000000000000000000000000000000000000000000000000008214156105fe578060016000858152602001908152602001600020600101819055505b5961012081016040526020815260e0602082015260e0600060408301376024356004353360003560e01c60e01b61012085a450505050565b60016000803373ffffffffffffffffffffffffffffffffffffffff1673ffffffffffffffffffffffffffffffffffffffff168152602001908152602001600020541461068157600080fd5b7f70617200000000000000000000000000000000000000000000000000000000008214156106b157806003819055505b5961012081016040526020815260e0602082015260e0600060408301376024356004353360003560e01c60e01b61012085a4505050565b600260009054906101000a900473ffffffffffffffffffffffffffffffffffffffff1681565b60035481565b60016000803373ffffffffffffffffffffffffffffffffffffffff1673ffffffffffffffffffffffffffffffffffffffff168152602001908152602001600020541461075f57600080fd5b60016000808373ffffffffffffffffffffffffffffffffffffffff1673ffffffffffffffffffffffffffffffffffffffff168152602001908152602001600020819055505961012081016040526020815260e0602082015260e0600060408301376024356004353360003560e01c60e01b61012085a45050565b60016000803373ffffffffffffffffffffffffffffffffffffffff1673ffffffffffffffffffffffffffffffffffffffff168152602001908152602001600020541461082457600080fd5b60008060008373ffffffffffffffffffffffffffffffffffffffff1673ffffffffffffffffffffffffffffffffffffffff168152602001908152602001600020819055505961012081016040526020815260e0602082015260e0600060408301376024356004353360003560e01c60e01b61012085a45050565b60006020528060005260406000206000915090505481565b60016000803373ffffffffffffffffffffffffffffffffffffffff1673ffffffffffffffffffffffffffffffffffffffff168152602001908152602001600020541461090157600080fd5b806001600084815260200190815260200160002060000160006101000a81548173ffffffffffffffffffffffffffffffffffffffff021916908373ffffffffffffffffffffffffffffffffffffffff1602179055505961012081016040526020815260e0602082015260e0600060408301376024356004353360003560e01c60e01b61012085a4505050565b60016020528060005260406000206000915090508060000160009054906101000a900473ffffffffffffffffffffffffffffffffffffffff16908060010154905082565b6000808214806109ee57508282838502925082816109eb57fe5b04145b6109f757600080fd5b92915050565b600081610a16846b033b2e3c9fd0803ce80000006109d1565b81610a1d57fe5b0490509291505056fea165627a7a72305820346c61d0285887dec75df18e1d9c6af88e990958e06453136aee2d5798ddd9d80029",
  "source": "/// spot.sol -- Spotter\n\n// This program is free software: you can redistribute it and/or modify\n// it under the terms of the GNU Affero General Public License as published by\n// the Free Software Foundation, either version 3 of the License, or\n// (at your option) any later version.\n//\n// This program is distributed in the hope that it will be useful,\n// but WITHOUT ANY WARRANTY; without even the implied warranty of\n// MERCHANTABILITY or FITNESS FOR A PARTICULAR PURPOSE.  See the\n// GNU Affero General Public License for more details.\n//\n// You should have received a copy of the GNU Affero General Public License\n// along with this program.  If not, see <https://www.gnu.org/licenses/>.\n\npragma solidity >=0.5.0;\n\nimport \"./lib.sol\";\n\ncontract VatLike {\n    function file(bytes32, bytes32, uint) external;\n}\n\ncontract PipLike {\n    function peek() external returns (bytes32, bool);\n}\n\ncontract Spotter is DSNote {\n    // --- Auth ---\n    mapping (address => uint) public wards;\n    function rely(address guy) external note auth { wards[guy] = 1;  }\n    function deny(address guy) external note auth { wards[guy] = 0; }\n    modifier auth { require(wards[msg.sender] == 1); _; }\n\n    // --- Data ---\n    struct Ilk {\n        PipLike pip;\n        uint256 mat;\n    }\n\n    mapping (bytes32 => Ilk) public ilks;\n\n    VatLike public vat;\n    uint256 public par; // ref per dai\n\n    // --- Events ---\n    event Poke(\n      bytes32 ilk,\n      bytes32 val,\n      uint256 spot\n    );\n\n    // --- Init ---\n    constructor(address vat_) public {\n        wards[msg.sender] = 1;\n        vat = VatLike(vat_);\n        par = ONE;\n    }\n\n    // --- Math ---\n    uint constant ONE = 10 ** 27;\n\n    function mul(uint x, uint y) internal pure returns (uint z) {\n        require(y == 0 || (z = x * y) / y == x);\n    }\n    function rdiv(uint x, uint y) internal pure returns (uint z) {\n        z = mul(x, ONE) / y;\n    }\n\n    // --- Administration ---\n    function file(bytes32 ilk, address pip_) external note auth {\n        ilks[ilk].pip = PipLike(pip_);\n    }\n    function file(bytes32 what, uint data) external note auth {\n        if (what == \"par\") par = data;\n    }\n    function file(bytes32 ilk, bytes32 what, uint data) external note auth {\n        if (what == \"mat\") ilks[ilk].mat = data;\n    }\n\n    // --- Update value ---\n    function poke(bytes32 ilk) external {\n        (bytes32 val, bool zzz) = ilks[ilk].pip.peek();\n        if (zzz) {\n            uint256 spot = rdiv(rdiv(mul(uint(val), 10 ** 9), par), ilks[ilk].mat);\n            vat.file(ilk, \"spot\", spot);\n            emit Poke(ilk, val, spot);\n        }\n    }\n}\n",
  "sourcePath": "E:\\Dss-deployTest2\\lib\\dss\\contracts\\spot.sol",
  "compiler": {
    "name": "solc",
    "version": "0.5.8+commit.23d335f2.Emscripten.clang"
  },
  "schemaVersion": "3.0.11",
  "updatedAt": "2019-08-20T06:26:04.606Z",
  "devdoc": {
    "methods": {}
  },
  "userdoc": {
    "methods": {}
  }
}