{
  "contractName": "DaiJoin",
  "abi": [
    {
      "constant": true,
      "inputs": [],
      "name": "vat",
      "outputs": [
        {
          "name": "",
          "type": "address"
        }
      ],
      "payable": false,
      "stateMutability": "view",
      "type": "function"
    },
    {
      "constant": true,
      "inputs": [],
      "name": "dai",
      "outputs": [
        {
          "name": "",
          "type": "address"
        }
      ],
      "payable": false,
      "stateMutability": "view",
      "type": "function"
    },
    {
      "inputs": [
        {
          "name": "vat_",
          "type": "address"
        },
        {
          "name": "dai_",
          "type": "address"
        }
      ],
      "payable": false,
      "stateMutability": "nonpayable",
      "type": "constructor"
    },
    {
      "anonymous": true,
      "inputs": [
        {
          "indexed": true,
          "name": "sig",
          "type": "bytes4"
        },
        {
          "indexed": true,
          "name": "usr",
          "type": "address"
        },
        {
          "indexed": true,
          "name": "arg1",
          "type": "bytes32"
        },
        {
          "indexed": true,
          "name": "arg2",
          "type": "bytes32"
        },
        {
          "indexed": false,
          "name": "data",
          "type": "bytes"
        }
      ],
      "name": "LogNote",
      "type": "event"
    },
    {
      "constant": false,
      "inputs": [
        {
          "name": "usr",
          "type": "address"
        },
        {
          "name": "wad",
          "type": "uint256"
        }
      ],
      "name": "join",
      "outputs": [],
      "payable": false,
      "stateMutability": "nonpayable",
      "type": "function"
    },
    {
      "constant": false,
      "inputs": [
        {
          "name": "usr",
          "type": "address"
        },
        {
          "name": "wad",
          "type": "uint256"
        }
      ],
      "name": "exit",
      "outputs": [],
      "payable": false,
      "stateMutability": "nonpayable",
      "type": "function"
    }
  ],
  "bytecode": "0x608060405234801561001057600080fd5b506040516040806107038339810180604052604081101561003057600080fd5b810190808051906020019092919080519060200190929190505050816000806101000a81548173ffffffffffffffffffffffffffffffffffffffff021916908373ffffffffffffffffffffffffffffffffffffffff16021790555080600160006101000a81548173ffffffffffffffffffffffffffffffffffffffff021916908373ffffffffffffffffffffffffffffffffffffffff1602179055505050610626806100dd6000396000f3fe608060405234801561001057600080fd5b506004361061004c5760003560e01c806336569e77146100515780633b4da69f1461009b578063ef693bed146100e9578063f4b9fa7514610137575b600080fd5b610059610181565b604051808273ffffffffffffffffffffffffffffffffffffffff1673ffffffffffffffffffffffffffffffffffffffff16815260200191505060405180910390f35b6100e7600480360360408110156100b157600080fd5b81019080803573ffffffffffffffffffffffffffffffffffffffff169060200190929190803590602001909291905050506101a6565b005b610135600480360360408110156100ff57600080fd5b81019080803573ffffffffffffffffffffffffffffffffffffffff169060200190929190803590602001909291905050506103a7565b005b61013f6105a8565b604051808273ffffffffffffffffffffffffffffffffffffffff1673ffffffffffffffffffffffffffffffffffffffff16815260200191505060405180910390f35b6000809054906101000a900473ffffffffffffffffffffffffffffffffffffffff1681565b6000809054906101000a900473ffffffffffffffffffffffffffffffffffffffff1673ffffffffffffffffffffffffffffffffffffffff1663bb35783b30846101fb6b033b2e3c9fd0803ce8000000866105ce565b6040518463ffffffff1660e01b8152600401808473ffffffffffffffffffffffffffffffffffffffff1673ffffffffffffffffffffffffffffffffffffffff1681526020018373ffffffffffffffffffffffffffffffffffffffff1673ffffffffffffffffffffffffffffffffffffffff1681526020018281526020019350505050600060405180830381600087803b15801561029757600080fd5b505af11580156102ab573d6000803e3d6000fd5b50505050600160009054906101000a900473ffffffffffffffffffffffffffffffffffffffff1673ffffffffffffffffffffffffffffffffffffffff16639dc29fac33836040518363ffffffff1660e01b8152600401808373ffffffffffffffffffffffffffffffffffffffff1673ffffffffffffffffffffffffffffffffffffffff16815260200182815260200192505050600060405180830381600087803b15801561035857600080fd5b505af115801561036c573d6000803e3d6000fd5b505050505961012081016040526020815260e0602082015260e0600060408301376024356004353360003560e01c60e01b61012085a4505050565b6000809054906101000a900473ffffffffffffffffffffffffffffffffffffffff1673ffffffffffffffffffffffffffffffffffffffff1663bb35783b33306103fc6b033b2e3c9fd0803ce8000000866105ce565b6040518463ffffffff1660e01b8152600401808473ffffffffffffffffffffffffffffffffffffffff1673ffffffffffffffffffffffffffffffffffffffff1681526020018373ffffffffffffffffffffffffffffffffffffffff1673ffffffffffffffffffffffffffffffffffffffff1681526020018281526020019350505050600060405180830381600087803b15801561049857600080fd5b505af11580156104ac573d6000803e3d6000fd5b50505050600160009054906101000a900473ffffffffffffffffffffffffffffffffffffffff1673ffffffffffffffffffffffffffffffffffffffff166340c10f1983836040518363ffffffff1660e01b8152600401808373ffffffffffffffffffffffffffffffffffffffff1673ffffffffffffffffffffffffffffffffffffffff16815260200182815260200192505050600060405180830381600087803b15801561055957600080fd5b505af115801561056d573d6000803e3d6000fd5b505050505961012081016040526020815260e0602082015260e0600060408301376024356004353360003560e01c60e01b61012085a4505050565b600160009054906101000a900473ffffffffffffffffffffffffffffffffffffffff1681565b6000808214806105eb57508282838502925082816105e857fe5b04145b6105f457600080fd5b9291505056fea165627a7a72305820729e4555396fdaf10e73219b3c0bf853744d430098cccac13de16b37ee60d6c30029",
  "source": "/// join.sol -- Basic token adapters\n\n// Copyright (C) 2018 Rain <rainbreak@riseup.net>\n//\n// This program is free software: you can redistribute it and/or modify\n// it under the terms of the GNU Affero General Public License as published by\n// the Free Software Foundation, either version 3 of the License, or\n// (at your option) any later version.\n//\n// This program is distributed in the hope that it will be useful,\n// but WITHOUT ANY WARRANTY; without even the implied warranty of\n// MERCHANTABILITY or FITNESS FOR A PARTICULAR PURPOSE.  See the\n// GNU Affero General Public License for more details.\n//\n// You should have received a copy of the GNU Affero General Public License\n// along with this program.  If not, see <https://www.gnu.org/licenses/>.\n\npragma solidity >=0.5.0;\n\nimport \"./lib.sol\";\n\ncontract GemLike {\n    function transfer(address,uint) external returns (bool);\n    function transferFrom(address,address,uint) external returns (bool);\n}\n\ncontract DSTokenLike {\n    function mint(address,uint) external;\n    function burn(address,uint) external;\n}\n\ncontract VatLike {\n    function slip(bytes32,address,int) external;\n    function move(address,address,uint) external;\n    function flux(bytes32,address,address,uint) external;\n}\n\n/*\n    Here we provide *adapters* to connect the Vat to arbitrary external\n    token implementations, creating a bounded context for the Vat. The\n    adapters here are provided as working examples:\n\n      - `GemJoin`: For well behaved ERC20 tokens, with simple transfer\n                   semantics.\n\n      - `ETHJoin`: For native Ether.\n\n      - `DaiJoin`: For connecting internal Dai balances to an external\n                   `DSToken` implementation.\n\n    In practice, adapter implementations will be varied and specific to\n    individual collateral types, accounting for different transfer\n    semantics and token standards.\n\n    Adapters need to implement two basic methods:\n\n      - `join`: enter collateral into the system\n      - `exit`: remove collateral from the system\n\n*/\n\ncontract GemJoin is DSNote {\n    VatLike public vat;\n    bytes32 public ilk;\n    GemLike public gem;\n    constructor(address vat_, bytes32 ilk_, address gem_) public {\n        vat = VatLike(vat_);\n        ilk = ilk_;\n        gem = GemLike(gem_);\n    }\n    function join(address usr, uint wad) external note {\n        require(int(wad) >= 0);\n        vat.slip(ilk, usr, int(wad));\n        require(gem.transferFrom(msg.sender, address(this), wad));\n    }\n    function exit(address usr, uint wad) external note {\n        require(wad <= 2 ** 255);\n        vat.slip(ilk, msg.sender, -int(wad));\n        require(gem.transfer(usr, wad));\n    }\n}\n\ncontract ETHJoin is DSNote {\n    VatLike public vat;\n    bytes32 public ilk;\n    constructor(address vat_, bytes32 ilk_) public {\n        vat = VatLike(vat_);\n        ilk = ilk_;\n    }\n    function join(address usr) external payable note {\n        require(int(msg.value) >= 0);\n        vat.slip(ilk, usr, int(msg.value));\n    }\n    function exit(address payable usr, uint wad) external note {\n        require(int(wad) >= 0);\n        vat.slip(ilk, msg.sender, -int(wad));\n        usr.transfer(wad);\n    }\n}\n\ncontract DaiJoin is DSNote {\n    VatLike public vat;\n    DSTokenLike public dai;\n    constructor(address vat_, address dai_) public {\n        vat = VatLike(vat_);\n        dai = DSTokenLike(dai_);\n    }\n    uint constant ONE = 10 ** 27;\n    function mul(uint x, uint y) internal pure returns (uint z) {\n        require(y == 0 || (z = x * y) / y == x);\n    }\n    function join(address usr, uint wad) external note {\n        vat.move(address(this), usr, mul(ONE, wad));\n        dai.burn(msg.sender, wad);\n    }\n    function exit(address usr, uint wad) external note {\n        vat.move(msg.sender, address(this), mul(ONE, wad));\n        dai.mint(usr, wad);\n    }\n}\n",
  "sourcePath": "E:/dss/contracts/join.sol",
  "compiler": {
    "name": "solc",
    "version": "0.5.8+commit.23d335f2.Emscripten.clang"
  },
  "schemaVersion": "3.0.11",
  "updatedAt": "2019-08-15T05:13:02.431Z",
  "devdoc": {
    "methods": {}
  },
  "userdoc": {
    "methods": {}
  }
}