{
  "contractName": "Flipper",
  "abi": [
    {
      "constant": true,
      "inputs": [],
      "name": "vat",
      "outputs": [
        {
          "name": "",
          "type": "address"
        }
      ],
      "payable": false,
      "stateMutability": "view",
      "type": "function"
    },
    {
      "constant": true,
      "inputs": [
        {
          "name": "",
          "type": "uint256"
        }
      ],
      "name": "bids",
      "outputs": [
        {
          "name": "bid",
          "type": "uint256"
        },
        {
          "name": "lot",
          "type": "uint256"
        },
        {
          "name": "guy",
          "type": "address"
        },
        {
          "name": "tic",
          "type": "uint48"
        },
        {
          "name": "end",
          "type": "uint48"
        },
        {
          "name": "usr",
          "type": "address"
        },
        {
          "name": "gal",
          "type": "address"
        },
        {
          "name": "tab",
          "type": "uint256"
        }
      ],
      "payable": false,
      "stateMutability": "view",
      "type": "function"
    },
    {
      "constant": true,
      "inputs": [],
      "name": "ttl",
      "outputs": [
        {
          "name": "",
          "type": "uint48"
        }
      ],
      "payable": false,
      "stateMutability": "view",
      "type": "function"
    },
    {
      "constant": true,
      "inputs": [],
      "name": "beg",
      "outputs": [
        {
          "name": "",
          "type": "uint256"
        }
      ],
      "payable": false,
      "stateMutability": "view",
      "type": "function"
    },
    {
      "constant": true,
      "inputs": [
        {
          "name": "",
          "type": "address"
        }
      ],
      "name": "wards",
      "outputs": [
        {
          "name": "",
          "type": "uint256"
        }
      ],
      "payable": false,
      "stateMutability": "view",
      "type": "function"
    },
    {
      "constant": true,
      "inputs": [],
      "name": "ilk",
      "outputs": [
        {
          "name": "",
          "type": "bytes32"
        }
      ],
      "payable": false,
      "stateMutability": "view",
      "type": "function"
    },
    {
      "constant": true,
      "inputs": [],
      "name": "tau",
      "outputs": [
        {
          "name": "",
          "type": "uint48"
        }
      ],
      "payable": false,
      "stateMutability": "view",
      "type": "function"
    },
    {
      "constant": true,
      "inputs": [],
      "name": "kicks",
      "outputs": [
        {
          "name": "",
          "type": "uint256"
        }
      ],
      "payable": false,
      "stateMutability": "view",
      "type": "function"
    },
    {
      "inputs": [
        {
          "name": "vat_",
          "type": "address"
        },
        {
          "name": "ilk_",
          "type": "bytes32"
        }
      ],
      "payable": false,
      "stateMutability": "nonpayable",
      "type": "constructor"
    },
    {
      "anonymous": false,
      "inputs": [
        {
          "indexed": false,
          "name": "id",
          "type": "uint256"
        },
        {
          "indexed": false,
          "name": "lot",
          "type": "uint256"
        },
        {
          "indexed": false,
          "name": "bid",
          "type": "uint256"
        },
        {
          "indexed": false,
          "name": "tab",
          "type": "uint256"
        },
        {
          "indexed": true,
          "name": "usr",
          "type": "address"
        },
        {
          "indexed": true,
          "name": "gal",
          "type": "address"
        }
      ],
      "name": "Kick",
      "type": "event"
    },
    {
      "anonymous": true,
      "inputs": [
        {
          "indexed": true,
          "name": "sig",
          "type": "bytes4"
        },
        {
          "indexed": true,
          "name": "usr",
          "type": "address"
        },
        {
          "indexed": true,
          "name": "arg1",
          "type": "bytes32"
        },
        {
          "indexed": true,
          "name": "arg2",
          "type": "bytes32"
        },
        {
          "indexed": false,
          "name": "data",
          "type": "bytes"
        }
      ],
      "name": "LogNote",
      "type": "event"
    },
    {
      "constant": false,
      "inputs": [
        {
          "name": "usr",
          "type": "address"
        }
      ],
      "name": "rely",
      "outputs": [],
      "payable": false,
      "stateMutability": "nonpayable",
      "type": "function"
    },
    {
      "constant": false,
      "inputs": [
        {
          "name": "usr",
          "type": "address"
        }
      ],
      "name": "deny",
      "outputs": [],
      "payable": false,
      "stateMutability": "nonpayable",
      "type": "function"
    },
    {
      "constant": false,
      "inputs": [
        {
          "name": "what",
          "type": "bytes32"
        },
        {
          "name": "data",
          "type": "uint256"
        }
      ],
      "name": "file",
      "outputs": [],
      "payable": false,
      "stateMutability": "nonpayable",
      "type": "function"
    },
    {
      "constant": false,
      "inputs": [
        {
          "name": "usr",
          "type": "address"
        },
        {
          "name": "gal",
          "type": "address"
        },
        {
          "name": "tab",
          "type": "uint256"
        },
        {
          "name": "lot",
          "type": "uint256"
        },
        {
          "name": "bid",
          "type": "uint256"
        }
      ],
      "name": "kick",
      "outputs": [
        {
          "name": "id",
          "type": "uint256"
        }
      ],
      "payable": false,
      "stateMutability": "nonpayable",
      "type": "function"
    },
    {
      "constant": false,
      "inputs": [
        {
          "name": "id",
          "type": "uint256"
        }
      ],
      "name": "tick",
      "outputs": [],
      "payable": false,
      "stateMutability": "nonpayable",
      "type": "function"
    },
    {
      "constant": false,
      "inputs": [
        {
          "name": "id",
          "type": "uint256"
        },
        {
          "name": "lot",
          "type": "uint256"
        },
        {
          "name": "bid",
          "type": "uint256"
        }
      ],
      "name": "tend",
      "outputs": [],
      "payable": false,
      "stateMutability": "nonpayable",
      "type": "function"
    },
    {
      "constant": false,
      "inputs": [
        {
          "name": "id",
          "type": "uint256"
        },
        {
          "name": "lot",
          "type": "uint256"
        },
        {
          "name": "bid",
          "type": "uint256"
        }
      ],
      "name": "dent",
      "outputs": [],
      "payable": false,
      "stateMutability": "nonpayable",
      "type": "function"
    },
    {
      "constant": false,
      "inputs": [
        {
          "name": "id",
          "type": "uint256"
        }
      ],
      "name": "deal",
      "outputs": [],
      "payable": false,
      "stateMutability": "nonpayable",
      "type": "function"
    },
    {
      "constant": false,
      "inputs": [
        {
          "name": "id",
          "type": "uint256"
        }
      ],
      "name": "yank",
      "outputs": [],
      "payable": false,
      "stateMutability": "nonpayable",
      "type": "function"
    }
  ],
  "bytecode": "0x60806040526b03648a260e3486a65a000000600455612a30600560006101000a81548165ffffffffffff021916908365ffffffffffff1602179055506202a300600560066101000a81548165ffffffffffff021916908365ffffffffffff160217905550600060065534801561007457600080fd5b506040516040806122548339810180604052604081101561009457600080fd5b81019080805190602001909291908051906020019092919050505081600260006101000a81548173ffffffffffffffffffffffffffffffffffffffff021916908373ffffffffffffffffffffffffffffffffffffffff1602179055508060038190555060016000803373ffffffffffffffffffffffffffffffffffffffff1673ffffffffffffffffffffffffffffffffffffffff1681526020019081526020016000208190555050506121088061014c6000396000f3fe608060405234801561001057600080fd5b506004361061010b5760003560e01c806365fae35e116100a2578063c5ce281e11610071578063c5ce281e1461051d578063c959c42b1461053b578063cfc4af5514610569578063cfdd330214610597578063fc7b6aee146105b55761010b565b806365fae35e1461041f5780637d780d82146104635780639c52a7f114610481578063bf353dbb146104c55761010b565b80634423c5f1116100de5780634423c5f1146102565780634b43ed121461036d5780634e8b1dd5146103af5780635ff3a382146103dd5761010b565b806326e027f11461011057806329ae81141461013e578063351de6001461017657806336569e771461020c575b600080fd5b61013c6004803603602081101561012657600080fd5b81019080803590602001909291905050506105e3565b005b6101746004803603604081101561015457600080fd5b810190808035906020019092919080359060200190929190505050610a37565b005b6101f6600480360360a081101561018c57600080fd5b81019080803573ffffffffffffffffffffffffffffffffffffffff169060200190929190803573ffffffffffffffffffffffffffffffffffffffff169060200190929190803590602001909291908035906020019092919080359060200190929190505050610b85565b6040518082815260200191505060405180910390f35b610214610ef1565b604051808273ffffffffffffffffffffffffffffffffffffffff1673ffffffffffffffffffffffffffffffffffffffff16815260200191505060405180910390f35b6102826004803603602081101561026c57600080fd5b8101908080359060200190929190505050610f17565b604051808981526020018881526020018773ffffffffffffffffffffffffffffffffffffffff1673ffffffffffffffffffffffffffffffffffffffff1681526020018665ffffffffffff1665ffffffffffff1681526020018565ffffffffffff1665ffffffffffff1681526020018473ffffffffffffffffffffffffffffffffffffffff1673ffffffffffffffffffffffffffffffffffffffff1681526020018373ffffffffffffffffffffffffffffffffffffffff1673ffffffffffffffffffffffffffffffffffffffff1681526020018281526020019850505050505050505060405180910390f35b6103ad6004803603606081101561038357600080fd5b81019080803590602001909291908035906020019092919080359060200190929190505050610fe3565b005b6103b7611552565b604051808265ffffffffffff1665ffffffffffff16815260200191505060405180910390f35b61041d600480360360608110156103f357600080fd5b8101908080359060200190929190803590602001909291908035906020019092919050505061156a565b005b6104616004803603602081101561043557600080fd5b81019080803573ffffffffffffffffffffffffffffffffffffffff169060200190929190505050611aac565b005b61046b611b71565b6040518082815260200191505060405180910390f35b6104c36004803603602081101561049757600080fd5b81019080803573ffffffffffffffffffffffffffffffffffffffff169060200190929190505050611b77565b005b610507600480360360208110156104db57600080fd5b81019080803573ffffffffffffffffffffffffffffffffffffffff169060200190929190505050611c3c565b6040518082815260200191505060405180910390f35b610525611c54565b6040518082815260200191505060405180910390f35b6105676004803603602081101561055157600080fd5b8101908080359060200190929190505050611c5a565b005b610571611f63565b604051808265ffffffffffff1665ffffffffffff16815260200191505060405180910390f35b61059f611f7b565b6040518082815260200191505060405180910390f35b6105e1600480360360208110156105cb57600080fd5b8101908080359060200190929190505050611f81565b005b60016000803373ffffffffffffffffffffffffffffffffffffffff1673ffffffffffffffffffffffffffffffffffffffff168152602001908152602001600020541461062e57600080fd5b600073ffffffffffffffffffffffffffffffffffffffff166001600083815260200190815260200160002060020160009054906101000a900473ffffffffffffffffffffffffffffffffffffffff1673ffffffffffffffffffffffffffffffffffffffff16141561069e57600080fd5b60016000828152602001908152602001600020600501546001600083815260200190815260200160002060000154106106d657600080fd5b600260009054906101000a900473ffffffffffffffffffffffffffffffffffffffff1673ffffffffffffffffffffffffffffffffffffffff16636111be2e600354303360016000878152602001908152602001600020600101546040518563ffffffff1660e01b8152600401808581526020018473ffffffffffffffffffffffffffffffffffffffff1673ffffffffffffffffffffffffffffffffffffffff1681526020018373ffffffffffffffffffffffffffffffffffffffff1673ffffffffffffffffffffffffffffffffffffffff168152602001828152602001945050505050600060405180830381600087803b1580156107d357600080fd5b505af11580156107e7573d6000803e3d6000fd5b50505050600260009054906101000a900473ffffffffffffffffffffffffffffffffffffffff1673ffffffffffffffffffffffffffffffffffffffff1663bb35783b336001600085815260200190815260200160002060020160009054906101000a900473ffffffffffffffffffffffffffffffffffffffff1660016000868152602001908152602001600020600001546040518463ffffffff1660e01b8152600401808473ffffffffffffffffffffffffffffffffffffffff1673ffffffffffffffffffffffffffffffffffffffff1681526020018373ffffffffffffffffffffffffffffffffffffffff1673ffffffffffffffffffffffffffffffffffffffff1681526020018281526020019350505050600060405180830381600087803b15801561091457600080fd5b505af1158015610928573d6000803e3d6000fd5b505050506001600082815260200190815260200160002060008082016000905560018201600090556002820160006101000a81549073ffffffffffffffffffffffffffffffffffffffff02191690556002820160146101000a81549065ffffffffffff021916905560028201601a6101000a81549065ffffffffffff02191690556003820160006101000a81549073ffffffffffffffffffffffffffffffffffffffff02191690556004820160006101000a81549073ffffffffffffffffffffffffffffffffffffffff0219169055600582016000905550505961012081016040526020815260e0602082015260e0600060408301376024356004353360003560e01c60e01b61012085a45050565b60016000803373ffffffffffffffffffffffffffffffffffffffff1673ffffffffffffffffffffffffffffffffffffffff1681526020019081526020016000205414610a8257600080fd5b7f6265670000000000000000000000000000000000000000000000000000000000821415610ab257806004819055505b7f74746c0000000000000000000000000000000000000000000000000000000000821415610b005780600560006101000a81548165ffffffffffff021916908365ffffffffffff1602179055505b7f7461750000000000000000000000000000000000000000000000000000000000821415610b4e5780600560066101000a81548165ffffffffffff021916908365ffffffffffff1602179055505b5961012081016040526020815260e0602082015260e0600060408301376024356004353360003560e01c60e01b61012085a4505050565b60007fffffffffffffffffffffffffffffffffffffffffffffffffffffffffffffffff60065410610bb557600080fd5b6006600081546001019190508190559050816001600083815260200190815260200160002060000181905550826001600083815260200190815260200160002060010181905550336001600083815260200190815260200160002060020160006101000a81548173ffffffffffffffffffffffffffffffffffffffff021916908373ffffffffffffffffffffffffffffffffffffffff160217905550610c6f42600560069054906101000a900465ffffffffffff16612086565b60016000838152602001908152602001600020600201601a6101000a81548165ffffffffffff021916908365ffffffffffff160217905550856001600083815260200190815260200160002060030160006101000a81548173ffffffffffffffffffffffffffffffffffffffff021916908373ffffffffffffffffffffffffffffffffffffffff160217905550846001600083815260200190815260200160002060040160006101000a81548173ffffffffffffffffffffffffffffffffffffffff021916908373ffffffffffffffffffffffffffffffffffffffff160217905550836001600083815260200190815260200160002060050181905550600260009054906101000a900473ffffffffffffffffffffffffffffffffffffffff1673ffffffffffffffffffffffffffffffffffffffff16636111be2e6003543330876040518563ffffffff1660e01b8152600401808581526020018473ffffffffffffffffffffffffffffffffffffffff1673ffffffffffffffffffffffffffffffffffffffff1681526020018373ffffffffffffffffffffffffffffffffffffffff1673ffffffffffffffffffffffffffffffffffffffff168152602001828152602001945050505050600060405180830381600087803b158015610e5357600080fd5b505af1158015610e67573d6000803e3d6000fd5b505050508473ffffffffffffffffffffffffffffffffffffffff168673ffffffffffffffffffffffffffffffffffffffff167fc84ce3a1172f0dec3173f04caaa6005151a4bfe40d4c9f3ea28dba5f719b2a7a838686896040518085815260200184815260200183815260200182815260200194505050505060405180910390a395945050505050565b600260009054906101000a900473ffffffffffffffffffffffffffffffffffffffff1681565b60016020528060005260406000206000915090508060000154908060010154908060020160009054906101000a900473ffffffffffffffffffffffffffffffffffffffff16908060020160149054906101000a900465ffffffffffff169080600201601a9054906101000a900465ffffffffffff16908060030160009054906101000a900473ffffffffffffffffffffffffffffffffffffffff16908060040160009054906101000a900473ffffffffffffffffffffffffffffffffffffffff16908060050154905088565b600073ffffffffffffffffffffffffffffffffffffffff166001600085815260200190815260200160002060020160009054906101000a900473ffffffffffffffffffffffffffffffffffffffff1673ffffffffffffffffffffffffffffffffffffffff16141561105357600080fd5b426001600085815260200190815260200160002060020160149054906101000a900465ffffffffffff1665ffffffffffff1611806110c1575060006001600085815260200190815260200160002060020160149054906101000a900465ffffffffffff1665ffffffffffff16145b6110ca57600080fd5b4260016000858152602001908152602001600020600201601a9054906101000a900465ffffffffffff1665ffffffffffff161161110657600080fd5b6001600084815260200190815260200160002060010154821461112857600080fd5b600160008481526020019081526020016000206005015481111561114b57600080fd5b6001600084815260200190815260200160002060000154811161116d57600080fd5b61118f60045460016000868152602001908152602001600020600001546120b0565b6111a5826b033b2e3c9fd0803ce80000006120b0565b1015806111c75750600160008481526020019081526020016000206005015481145b6111d057600080fd5b600260009054906101000a900473ffffffffffffffffffffffffffffffffffffffff1673ffffffffffffffffffffffffffffffffffffffff1663bb35783b336001600087815260200190815260200160002060020160009054906101000a900473ffffffffffffffffffffffffffffffffffffffff1660016000888152602001908152602001600020600001546040518463ffffffff1660e01b8152600401808473ffffffffffffffffffffffffffffffffffffffff1673ffffffffffffffffffffffffffffffffffffffff1681526020018373ffffffffffffffffffffffffffffffffffffffff1673ffffffffffffffffffffffffffffffffffffffff1681526020018281526020019350505050600060405180830381600087803b1580156112f957600080fd5b505af115801561130d573d6000803e3d6000fd5b50505050600260009054906101000a900473ffffffffffffffffffffffffffffffffffffffff1673ffffffffffffffffffffffffffffffffffffffff1663bb35783b336001600087815260200190815260200160002060040160009054906101000a900473ffffffffffffffffffffffffffffffffffffffff16600160008881526020019081526020016000206000015485036040518463ffffffff1660e01b8152600401808473ffffffffffffffffffffffffffffffffffffffff1673ffffffffffffffffffffffffffffffffffffffff1681526020018373ffffffffffffffffffffffffffffffffffffffff1673ffffffffffffffffffffffffffffffffffffffff1681526020018281526020019350505050600060405180830381600087803b15801561143c57600080fd5b505af1158015611450573d6000803e3d6000fd5b50505050336001600085815260200190815260200160002060020160006101000a81548173ffffffffffffffffffffffffffffffffffffffff021916908373ffffffffffffffffffffffffffffffffffffffff1602179055508060016000858152602001908152602001600020600001819055506114e242600560009054906101000a900465ffffffffffff16612086565b6001600085815260200190815260200160002060020160146101000a81548165ffffffffffff021916908365ffffffffffff1602179055505961012081016040526020815260e0602082015260e0600060408301376024356004353360003560e01c60e01b61012085a450505050565b600560009054906101000a900465ffffffffffff1681565b600073ffffffffffffffffffffffffffffffffffffffff166001600085815260200190815260200160002060020160009054906101000a900473ffffffffffffffffffffffffffffffffffffffff1673ffffffffffffffffffffffffffffffffffffffff1614156115da57600080fd5b426001600085815260200190815260200160002060020160149054906101000a900465ffffffffffff1665ffffffffffff161180611648575060006001600085815260200190815260200160002060020160149054906101000a900465ffffffffffff1665ffffffffffff16145b61165157600080fd5b4260016000858152602001908152602001600020600201601a9054906101000a900465ffffffffffff1665ffffffffffff161161168d57600080fd5b600160008481526020019081526020016000206000015481146116af57600080fd5b600160008481526020019081526020016000206005015481146116d157600080fd5b600160008481526020019081526020016000206001015482106116f357600080fd5b61171f60016000858152602001908152602001600020600101546b033b2e3c9fd0803ce80000006120b0565b61172b600454846120b0565b111561173657600080fd5b600260009054906101000a900473ffffffffffffffffffffffffffffffffffffffff1673ffffffffffffffffffffffffffffffffffffffff1663bb35783b336001600087815260200190815260200160002060020160009054906101000a900473ffffffffffffffffffffffffffffffffffffffff16846040518463ffffffff1660e01b8152600401808473ffffffffffffffffffffffffffffffffffffffff1673ffffffffffffffffffffffffffffffffffffffff1681526020018373ffffffffffffffffffffffffffffffffffffffff1673ffffffffffffffffffffffffffffffffffffffff1681526020018281526020019350505050600060405180830381600087803b15801561184957600080fd5b505af115801561185d573d6000803e3d6000fd5b50505050600260009054906101000a900473ffffffffffffffffffffffffffffffffffffffff1673ffffffffffffffffffffffffffffffffffffffff16636111be2e600354306001600088815260200190815260200160002060030160009054906101000a900473ffffffffffffffffffffffffffffffffffffffff1686600160008a815260200190815260200160002060010154036040518563ffffffff1660e01b8152600401808581526020018473ffffffffffffffffffffffffffffffffffffffff1673ffffffffffffffffffffffffffffffffffffffff1681526020018373ffffffffffffffffffffffffffffffffffffffff1673ffffffffffffffffffffffffffffffffffffffff168152602001828152602001945050505050600060405180830381600087803b15801561199657600080fd5b505af11580156119aa573d6000803e3d6000fd5b50505050336001600085815260200190815260200160002060020160006101000a81548173ffffffffffffffffffffffffffffffffffffffff021916908373ffffffffffffffffffffffffffffffffffffffff160217905550816001600085815260200190815260200160002060010181905550611a3c42600560009054906101000a900465ffffffffffff16612086565b6001600085815260200190815260200160002060020160146101000a81548165ffffffffffff021916908365ffffffffffff1602179055505961012081016040526020815260e0602082015260e0600060408301376024356004353360003560e01c60e01b61012085a450505050565b60016000803373ffffffffffffffffffffffffffffffffffffffff1673ffffffffffffffffffffffffffffffffffffffff1681526020019081526020016000205414611af757600080fd5b60016000808373ffffffffffffffffffffffffffffffffffffffff1673ffffffffffffffffffffffffffffffffffffffff168152602001908152602001600020819055505961012081016040526020815260e0602082015260e0600060408301376024356004353360003560e01c60e01b61012085a45050565b60045481565b60016000803373ffffffffffffffffffffffffffffffffffffffff1673ffffffffffffffffffffffffffffffffffffffff1681526020019081526020016000205414611bc257600080fd5b60008060008373ffffffffffffffffffffffffffffffffffffffff1673ffffffffffffffffffffffffffffffffffffffff168152602001908152602001600020819055505961012081016040526020815260e0602082015260e0600060408301376024356004353360003560e01c60e01b61012085a45050565b60006020528060005260406000206000915090505481565b60035481565b60006001600083815260200190815260200160002060020160149054906101000a900465ffffffffffff1665ffffffffffff1614158015611d045750426001600083815260200190815260200160002060020160149054906101000a900465ffffffffffff1665ffffffffffff161080611d0357504260016000838152602001908152602001600020600201601a9054906101000a900465ffffffffffff1665ffffffffffff16105b5b611d0d57600080fd5b600260009054906101000a900473ffffffffffffffffffffffffffffffffffffffff1673ffffffffffffffffffffffffffffffffffffffff16636111be2e600354306001600086815260200190815260200160002060020160009054906101000a900473ffffffffffffffffffffffffffffffffffffffff1660016000878152602001908152602001600020600101546040518563ffffffff1660e01b8152600401808581526020018473ffffffffffffffffffffffffffffffffffffffff1673ffffffffffffffffffffffffffffffffffffffff1681526020018373ffffffffffffffffffffffffffffffffffffffff1673ffffffffffffffffffffffffffffffffffffffff168152602001828152602001945050505050600060405180830381600087803b158015611e4057600080fd5b505af1158015611e54573d6000803e3d6000fd5b505050506001600082815260200190815260200160002060008082016000905560018201600090556002820160006101000a81549073ffffffffffffffffffffffffffffffffffffffff02191690556002820160146101000a81549065ffffffffffff021916905560028201601a6101000a81549065ffffffffffff02191690556003820160006101000a81549073ffffffffffffffffffffffffffffffffffffffff02191690556004820160006101000a81549073ffffffffffffffffffffffffffffffffffffffff0219169055600582016000905550505961012081016040526020815260e0602082015260e0600060408301376024356004353360003560e01c60e01b61012085a45050565b600560069054906101000a900465ffffffffffff1681565b60065481565b4260016000838152602001908152602001600020600201601a9054906101000a900465ffffffffffff1665ffffffffffff1610611fbd57600080fd5b60006001600083815260200190815260200160002060020160149054906101000a900465ffffffffffff1665ffffffffffff1614611ffa57600080fd5b61201842600560069054906101000a900465ffffffffffff16612086565b60016000838152602001908152602001600020600201601a6101000a81548165ffffffffffff021916908365ffffffffffff1602179055505961012081016040526020815260e0602082015260e0600060408301376024356004353360003560e01c60e01b61012085a45050565b60008265ffffffffffff1682840191508165ffffffffffff1610156120aa57600080fd5b92915050565b6000808214806120cd57508282838502925082816120ca57fe5b04145b6120d657600080fd5b9291505056fea165627a7a72305820d3768f2509aa6166c6c4fb5be6fb7309d3ebccd42f2ef19692a4de056aaddacf0029",
  "source": "/// flip.sol -- Collateral auction\n\n// Copyright (C) 2018 Rain <rainbreak@riseup.net>\n//\n// This program is free software: you can redistribute it and/or modify\n// it under the terms of the GNU Affero General Public License as published by\n// the Free Software Foundation, either version 3 of the License, or\n// (at your option) any later version.\n//\n// This program is distributed in the hope that it will be useful,\n// but WITHOUT ANY WARRANTY; without even the implied warranty of\n// MERCHANTABILITY or FITNESS FOR A PARTICULAR PURPOSE.  See the\n// GNU Affero General Public License for more details.\n//\n// You should have received a copy of the GNU Affero General Public License\n// along with this program.  If not, see <https://www.gnu.org/licenses/>.\n\npragma solidity >=0.5.0;\n\nimport \"./lib.sol\";\n\ncontract VatLike {\n    function move(address,address,uint) external;\n    function flux(bytes32,address,address,uint) external;\n}\n\n/*\n   This thing lets you flip some gems for a given amount of dai.\n   Once the given amount of dai is raised, gems are forgone instead.\n\n - `lot` gems for sale\n - `tab` total dai wanted\n - `bid` dai paid\n - `gal` receives dai income\n - `usr` receives gem forgone\n - `ttl` single bid lifetime\n - `beg` minimum bid increase\n - `end` max auction duration\n*/\n\ncontract Flipper is DSNote {\n    // --- Auth ---\n    mapping (address => uint) public wards;\n    function rely(address usr) external note auth { wards[usr] = 1; }\n    function deny(address usr) external note auth { wards[usr] = 0; }\n    modifier auth { require(wards[msg.sender] == 1); _; }\n\n    // --- Data ---\n    struct Bid {\n        uint256 bid;\n        uint256 lot;\n        address guy;  // high bidder\n        uint48  tic;  // expiry time\n        uint48  end;\n        address usr;\n        address gal;\n        uint256 tab;\n    }\n\n    mapping (uint => Bid) public bids;\n\n    VatLike public   vat;\n    bytes32 public   ilk;\n\n    uint256 constant ONE = 1.00E27;\n    uint256 public   beg = 1.05E27;  // 5% minimum bid increase\n    uint48  public   ttl = 3 hours;  // 3 hours bid duration\n    uint48  public   tau = 2 days;   // 2 days total auction length\n    uint256 public kicks = 0;\n\n    // --- Events ---\n    event Kick(\n      uint256 id,\n      uint256 lot,\n      uint256 bid,\n      uint256 tab,\n      address indexed usr,\n      address indexed gal\n    );\n\n    // --- Init ---\n    constructor(address vat_, bytes32 ilk_) public {\n        vat = VatLike(vat_);\n        ilk = ilk_;\n        wards[msg.sender] = 1;\n    }\n\n    // --- Math ---\n    function add(uint48 x, uint48 y) internal pure returns (uint48 z) {\n        require((z = x + y) >= x);\n    }\n    function mul(uint x, uint y) internal pure returns (uint z) {\n        require(y == 0 || (z = x * y) / y == x);\n    }\n\n    // --- Admin ---\n    function file(bytes32 what, uint data) external note auth {\n        if (what == \"beg\") beg = data;\n        if (what == \"ttl\") ttl = uint48(data);\n        if (what == \"tau\") tau = uint48(data);\n    }\n\n    // --- Auction ---\n    function kick(address usr, address gal, uint tab, uint lot, uint bid)\n        public returns (uint id)\n    {\n        require(kicks < uint(-1));\n        id = ++kicks;\n\n        bids[id].bid = bid;\n        bids[id].lot = lot;\n        bids[id].guy = msg.sender; // configurable??\n        bids[id].end = add(uint48(now), tau);\n        bids[id].usr = usr;\n        bids[id].gal = gal;\n        bids[id].tab = tab;\n\n        vat.flux(ilk, msg.sender, address(this), lot);\n\n        emit Kick(id, lot, bid, tab, usr, gal);\n    }\n    function tick(uint id) external note {\n        require(bids[id].end < now);\n        require(bids[id].tic == 0);\n        bids[id].end = add(uint48(now), tau);\n    }\n    function tend(uint id, uint lot, uint bid) external note {\n        require(bids[id].guy != address(0));\n        require(bids[id].tic > now || bids[id].tic == 0);\n        require(bids[id].end > now);\n\n        require(lot == bids[id].lot);\n        require(bid <= bids[id].tab);\n        require(bid >  bids[id].bid);\n        require(mul(bid, ONE) >= mul(beg, bids[id].bid) || bid == bids[id].tab);\n\n        vat.move(msg.sender, bids[id].guy, bids[id].bid);\n        vat.move(msg.sender, bids[id].gal, bid - bids[id].bid);\n\n        bids[id].guy = msg.sender;\n        bids[id].bid = bid;\n        bids[id].tic = add(uint48(now), ttl);\n    }\n    function dent(uint id, uint lot, uint bid) external note {\n        require(bids[id].guy != address(0));\n        require(bids[id].tic > now || bids[id].tic == 0);\n        require(bids[id].end > now);\n\n        require(bid == bids[id].bid);\n        require(bid == bids[id].tab);\n        require(lot < bids[id].lot);\n        require(mul(beg, lot) <= mul(bids[id].lot, ONE));\n\n        vat.move(msg.sender, bids[id].guy, bid);\n        vat.flux(ilk, address(this), bids[id].usr, bids[id].lot - lot);\n\n        bids[id].guy = msg.sender;\n        bids[id].lot = lot;\n        bids[id].tic = add(uint48(now), ttl);\n    }\n    function deal(uint id) external note {\n        require(bids[id].tic != 0 && (bids[id].tic < now || bids[id].end < now));\n        vat.flux(ilk, address(this), bids[id].guy, bids[id].lot);\n        delete bids[id];\n    }\n\n    function yank(uint id) external note auth {\n        require(bids[id].guy != address(0));\n        require(bids[id].bid < bids[id].tab);\n        vat.flux(ilk, address(this), msg.sender, bids[id].lot);\n        vat.move(msg.sender, bids[id].guy, bids[id].bid);\n        delete bids[id];\n    }\n}\n",
  "sourcePath": "E:/dss/contracts/flip.sol",
  "compiler": {
    "name": "solc",
    "version": "0.5.8+commit.23d335f2.Emscripten.clang"
  },
  "schemaVersion": "3.0.11",
  "updatedAt": "2019-08-15T05:13:02.401Z",
  "devdoc": {
    "methods": {}
  },
  "userdoc": {
    "methods": {}
  }
}