{
  "contractName": "Vat",
  "abi": [
    {
      "constant": true,
      "inputs": [],
      "name": "debt",
      "outputs": [
        {
          "name": "",
          "type": "uint256"
        }
      ],
      "payable": false,
      "stateMutability": "view",
      "type": "function"
    },
    {
      "constant": true,
      "inputs": [
        {
          "name": "",
          "type": "bytes32"
        },
        {
          "name": "",
          "type": "address"
        }
      ],
      "name": "gem",
      "outputs": [
        {
          "name": "",
          "type": "uint256"
        }
      ],
      "payable": false,
      "stateMutability": "view",
      "type": "function"
    },
    {
      "constant": true,
      "inputs": [
        {
          "name": "",
          "type": "bytes32"
        },
        {
          "name": "",
          "type": "address"
        }
      ],
      "name": "urns",
      "outputs": [
        {
          "name": "ink",
          "type": "uint256"
        },
        {
          "name": "art",
          "type": "uint256"
        }
      ],
      "payable": false,
      "stateMutability": "view",
      "type": "function"
    },
    {
      "constant": true,
      "inputs": [],
      "name": "vice",
      "outputs": [
        {
          "name": "",
          "type": "uint256"
        }
      ],
      "payable": false,
      "stateMutability": "view",
      "type": "function"
    },
    {
      "constant": true,
      "inputs": [
        {
          "name": "",
          "type": "address"
        },
        {
          "name": "",
          "type": "address"
        }
      ],
      "name": "can",
      "outputs": [
        {
          "name": "",
          "type": "uint256"
        }
      ],
      "payable": false,
      "stateMutability": "view",
      "type": "function"
    },
    {
      "constant": true,
      "inputs": [
        {
          "name": "",
          "type": "address"
        }
      ],
      "name": "dai",
      "outputs": [
        {
          "name": "",
          "type": "uint256"
        }
      ],
      "payable": false,
      "stateMutability": "view",
      "type": "function"
    },
    {
      "constant": true,
      "inputs": [],
      "name": "live",
      "outputs": [
        {
          "name": "",
          "type": "uint256"
        }
      ],
      "payable": false,
      "stateMutability": "view",
      "type": "function"
    },
    {
      "constant": true,
      "inputs": [],
      "name": "Line",
      "outputs": [
        {
          "name": "",
          "type": "uint256"
        }
      ],
      "payable": false,
      "stateMutability": "view",
      "type": "function"
    },
    {
      "constant": true,
      "inputs": [
        {
          "name": "",
          "type": "address"
        }
      ],
      "name": "wards",
      "outputs": [
        {
          "name": "",
          "type": "uint256"
        }
      ],
      "payable": false,
      "stateMutability": "view",
      "type": "function"
    },
    {
      "constant": true,
      "inputs": [
        {
          "name": "",
          "type": "bytes32"
        }
      ],
      "name": "ilks",
      "outputs": [
        {
          "name": "Art",
          "type": "uint256"
        },
        {
          "name": "rate",
          "type": "uint256"
        },
        {
          "name": "spot",
          "type": "uint256"
        },
        {
          "name": "line",
          "type": "uint256"
        },
        {
          "name": "dust",
          "type": "uint256"
        }
      ],
      "payable": false,
      "stateMutability": "view",
      "type": "function"
    },
    {
      "constant": true,
      "inputs": [
        {
          "name": "",
          "type": "address"
        }
      ],
      "name": "sin",
      "outputs": [
        {
          "name": "",
          "type": "uint256"
        }
      ],
      "payable": false,
      "stateMutability": "view",
      "type": "function"
    },
    {
      "inputs": [],
      "payable": false,
      "stateMutability": "nonpayable",
      "type": "constructor"
    },
    {
      "anonymous": true,
      "inputs": [
        {
          "indexed": true,
          "name": "sig",
          "type": "bytes4"
        },
        {
          "indexed": true,
          "name": "arg1",
          "type": "bytes32"
        },
        {
          "indexed": true,
          "name": "arg2",
          "type": "bytes32"
        },
        {
          "indexed": true,
          "name": "arg3",
          "type": "bytes32"
        },
        {
          "indexed": false,
          "name": "data",
          "type": "bytes"
        }
      ],
      "name": "LogNote",
      "type": "event"
    },
    {
      "constant": false,
      "inputs": [
        {
          "name": "usr",
          "type": "address"
        }
      ],
      "name": "rely",
      "outputs": [],
      "payable": false,
      "stateMutability": "nonpayable",
      "type": "function"
    },
    {
      "constant": false,
      "inputs": [
        {
          "name": "usr",
          "type": "address"
        }
      ],
      "name": "deny",
      "outputs": [],
      "payable": false,
      "stateMutability": "nonpayable",
      "type": "function"
    },
    {
      "constant": false,
      "inputs": [
        {
          "name": "usr",
          "type": "address"
        }
      ],
      "name": "hope",
      "outputs": [],
      "payable": false,
      "stateMutability": "nonpayable",
      "type": "function"
    },
    {
      "constant": false,
      "inputs": [
        {
          "name": "usr",
          "type": "address"
        }
      ],
      "name": "nope",
      "outputs": [],
      "payable": false,
      "stateMutability": "nonpayable",
      "type": "function"
    },
    {
      "constant": false,
      "inputs": [
        {
          "name": "ilk",
          "type": "bytes32"
        }
      ],
      "name": "init",
      "outputs": [],
      "payable": false,
      "stateMutability": "nonpayable",
      "type": "function"
    },
    {
      "constant": false,
      "inputs": [
        {
          "name": "ilk",
          "type": "bytes32"
        },
        {
          "name": "what",
          "type": "bytes32"
        },
        {
          "name": "data",
          "type": "uint256"
        }
      ],
      "name": "file",
      "outputs": [],
      "payable": false,
      "stateMutability": "nonpayable",
      "type": "function"
    },
    {
      "constant": false,
      "inputs": [
        {
          "name": "what",
          "type": "bytes32"
        },
        {
          "name": "data",
          "type": "uint256"
        }
      ],
      "name": "file",
      "outputs": [],
      "payable": false,
      "stateMutability": "nonpayable",
      "type": "function"
    },
    {
      "constant": false,
      "inputs": [],
      "name": "cage",
      "outputs": [],
      "payable": false,
      "stateMutability": "nonpayable",
      "type": "function"
    },
    {
      "constant": false,
      "inputs": [
        {
          "name": "ilk",
          "type": "bytes32"
        },
        {
          "name": "usr",
          "type": "address"
        },
        {
          "name": "wad",
          "type": "int256"
        }
      ],
      "name": "slip",
      "outputs": [],
      "payable": false,
      "stateMutability": "nonpayable",
      "type": "function"
    },
    {
      "constant": false,
      "inputs": [
        {
          "name": "ilk",
          "type": "bytes32"
        },
        {
          "name": "src",
          "type": "address"
        },
        {
          "name": "dst",
          "type": "address"
        },
        {
          "name": "wad",
          "type": "uint256"
        }
      ],
      "name": "flux",
      "outputs": [],
      "payable": false,
      "stateMutability": "nonpayable",
      "type": "function"
    },
    {
      "constant": false,
      "inputs": [
        {
          "name": "src",
          "type": "address"
        },
        {
          "name": "dst",
          "type": "address"
        },
        {
          "name": "rad",
          "type": "uint256"
        }
      ],
      "name": "move",
      "outputs": [],
      "payable": false,
      "stateMutability": "nonpayable",
      "type": "function"
    },
    {
      "constant": false,
      "inputs": [
        {
          "name": "i",
          "type": "bytes32"
        },
        {
          "name": "u",
          "type": "address"
        },
        {
          "name": "v",
          "type": "address"
        },
        {
          "name": "w",
          "type": "address"
        },
        {
          "name": "dink",
          "type": "int256"
        },
        {
          "name": "dart",
          "type": "int256"
        }
      ],
      "name": "frob",
      "outputs": [],
      "payable": false,
      "stateMutability": "nonpayable",
      "type": "function"
    },
    {
      "constant": false,
      "inputs": [
        {
          "name": "ilk",
          "type": "bytes32"
        },
        {
          "name": "src",
          "type": "address"
        },
        {
          "name": "dst",
          "type": "address"
        },
        {
          "name": "dink",
          "type": "int256"
        },
        {
          "name": "dart",
          "type": "int256"
        }
      ],
      "name": "fork",
      "outputs": [],
      "payable": false,
      "stateMutability": "nonpayable",
      "type": "function"
    },
    {
      "constant": false,
      "inputs": [
        {
          "name": "i",
          "type": "bytes32"
        },
        {
          "name": "u",
          "type": "address"
        },
        {
          "name": "v",
          "type": "address"
        },
        {
          "name": "w",
          "type": "address"
        },
        {
          "name": "dink",
          "type": "int256"
        },
        {
          "name": "dart",
          "type": "int256"
        }
      ],
      "name": "grab",
      "outputs": [],
      "payable": false,
      "stateMutability": "nonpayable",
      "type": "function"
    },
    {
      "constant": false,
      "inputs": [
        {
          "name": "rad",
          "type": "uint256"
        }
      ],
      "name": "heal",
      "outputs": [],
      "payable": false,
      "stateMutability": "nonpayable",
      "type": "function"
    },
    {
      "constant": false,
      "inputs": [
        {
          "name": "u",
          "type": "address"
        },
        {
          "name": "v",
          "type": "address"
        },
        {
          "name": "rad",
          "type": "uint256"
        }
      ],
      "name": "suck",
      "outputs": [],
      "payable": false,
      "stateMutability": "nonpayable",
      "type": "function"
    },
    {
      "constant": false,
      "inputs": [
        {
          "name": "i",
          "type": "bytes32"
        },
        {
          "name": "u",
          "type": "address"
        },
        {
          "name": "rate",
          "type": "int256"
        }
      ],
      "name": "fold",
      "outputs": [],
      "payable": false,
      "stateMutability": "nonpayable",
      "type": "function"
    }
  ],
  "bytecode": "0x608060405234801561001057600080fd5b5060016000803373ffffffffffffffffffffffffffffffffffffffff1673ffffffffffffffffffffffffffffffffffffffff168152602001908152602001600020819055506001600a8190555061265f8061006c6000396000f3fe608060405234801561001057600080fd5b50600436106101c45760003560e01c80637cdd3fde116100f9578063bb35783b11610097578063dc4d20fa11610071578063dc4d20fa1461096c578063f059212a146109b0578063f24e23eb14610a08578063f37ac61c14610a76576101c4565b8063bb35783b14610848578063bf353dbb146108b6578063d9638d361461090e576101c4565b80639c52a7f1116100d35780639c52a7f11461074a578063a3b22fc41461078e578063b65337df146107d2578063babe8a3f1461082a576101c4565b80637cdd3fde14610652578063870c616d146106aa578063957aa58c1461072c576101c4565b80634538c4eb11610166578063692450091161014057806369245009146104ac5780636c25b346146104b6578063760887031461050e5780637bab3f40146105b0576101c4565b80634538c4eb146103785780636111be2e146103f057806365fae35e14610468576101c4565b80632424be5c116101a25780632424be5c1461028b57806329ae8114146102f45780632d61a3551461032c5780633b6631951461034a576101c4565b80630dca59c1146101c95780631a0b287e146101e7578063214414d514610229575b600080fd5b6101d1610aa4565b6040518082815260200191505060405180910390f35b610227600480360360608110156101fd57600080fd5b81019080803590602001909291908035906020019092919080359060200190929190505050610aaa565b005b6102756004803603604081101561023f57600080fd5b8101908080359060200190929190803573ffffffffffffffffffffffffffffffffffffffff169060200190929190505050610bfb565b6040518082815260200191505060405180910390f35b6102d7600480360360408110156102a157600080fd5b8101908080359060200190929190803573ffffffffffffffffffffffffffffffffffffffff169060200190929190505050610c20565b604051808381526020018281526020019250505060405180910390f35b61032a6004803603604081101561030a57600080fd5b810190808035906020019092919080359060200190929190505050610c51565b005b610334610d05565b6040518082815260200191505060405180910390f35b6103766004803603602081101561036057600080fd5b8101908080359060200190929190505050610d0b565b005b6103da6004803603604081101561038e57600080fd5b81019080803573ffffffffffffffffffffffffffffffffffffffff169060200190929190803573ffffffffffffffffffffffffffffffffffffffff169060200190929190505050610dd8565b6040518082815260200191505060405180910390f35b6104666004803603608081101561040657600080fd5b8101908080359060200190929190803573ffffffffffffffffffffffffffffffffffffffff169060200190929190803573ffffffffffffffffffffffffffffffffffffffff16906020019092919080359060200190929190505050610dfd565b005b6104aa6004803603602081101561047e57600080fd5b81019080803573ffffffffffffffffffffffffffffffffffffffff169060200190929190505050610fa7565b005b6104b461106e565b005b6104f8600480360360208110156104cc57600080fd5b81019080803573ffffffffffffffffffffffffffffffffffffffff1690602001909291905050506110f8565b6040518082815260200191505060405180910390f35b6105ae600480360360c081101561052457600080fd5b8101908080359060200190929190803573ffffffffffffffffffffffffffffffffffffffff169060200190929190803573ffffffffffffffffffffffffffffffffffffffff169060200190929190803573ffffffffffffffffffffffffffffffffffffffff1690602001909291908035906020019092919080359060200190929190505050611110565b005b610650600480360360c08110156105c657600080fd5b8101908080359060200190929190803573ffffffffffffffffffffffffffffffffffffffff169060200190929190803573ffffffffffffffffffffffffffffffffffffffff169060200190929190803573ffffffffffffffffffffffffffffffffffffffff16906020019092919080359060200190929190803590602001909291905050506115b4565b005b6106a86004803603606081101561066857600080fd5b8101908080359060200190929190803573ffffffffffffffffffffffffffffffffffffffff1690602001909291908035906020019092919050505061184a565b005b61072a600480360360a08110156106c057600080fd5b8101908080359060200190929190803573ffffffffffffffffffffffffffffffffffffffff169060200190929190803573ffffffffffffffffffffffffffffffffffffffff169060200190929190803590602001909291908035906020019092919050505061197d565b005b610734611ba2565b6040518082815260200191505060405180910390f35b61078c6004803603602081101561076057600080fd5b81019080803573ffffffffffffffffffffffffffffffffffffffff169060200190929190505050611ba8565b005b6107d0600480360360208110156107a457600080fd5b81019080803573ffffffffffffffffffffffffffffffffffffffff169060200190929190505050611c6f565b005b610828600480360360608110156107e857600080fd5b8101908080359060200190929190803573ffffffffffffffffffffffffffffffffffffffff16906020019092919080359060200190929190505050611cf3565b005b610832611e66565b6040518082815260200191505060405180910390f35b6108b46004803603606081101561085e57600080fd5b81019080803573ffffffffffffffffffffffffffffffffffffffff169060200190929190803573ffffffffffffffffffffffffffffffffffffffff16906020019092919080359060200190929190505050611e6c565b005b6108f8600480360360208110156108cc57600080fd5b81019080803573ffffffffffffffffffffffffffffffffffffffff169060200190929190505050611fd1565b6040518082815260200191505060405180910390f35b61093a6004803603602081101561092457600080fd5b8101908080359060200190929190505050611fe9565b604051808681526020018581526020018481526020018381526020018281526020019550505050505060405180910390f35b6109ae6004803603602081101561098257600080fd5b81019080803573ffffffffffffffffffffffffffffffffffffffff16906020019092919050505061201f565b005b6109f2600480360360208110156109c657600080fd5b81019080803573ffffffffffffffffffffffffffffffffffffffff1690602001909291905050506120a4565b6040518082815260200191505060405180910390f35b610a7460048036036060811015610a1e57600080fd5b81019080803573ffffffffffffffffffffffffffffffffffffffff169060200190929190803573ffffffffffffffffffffffffffffffffffffffff169060200190929190803590602001909291905050506120bc565b005b610aa260048036036020811015610a8c57600080fd5b810190808035906020019092919050505061227d565b005b60075481565b60016000803373ffffffffffffffffffffffffffffffffffffffff1673ffffffffffffffffffffffffffffffffffffffff1681526020019081526020016000205414610af557600080fd5b7f73706f7400000000000000000000000000000000000000000000000000000000821415610b39578060026000858152602001908152602001600020600201819055505b7f6c696e6500000000000000000000000000000000000000000000000000000000821415610b7d578060026000858152602001908152602001600020600301819055505b7f6475737400000000000000000000000000000000000000000000000000000000821415610bc1578060026000858152602001908152602001600020600401819055505b5961012081016040526020815260e0602082015260e06000604083013760443560243560043560003560e01c60e01b61012085a450505050565b6004602052816000526040600020602052806000526040600020600091509150505481565b6003602052816000526040600020602052806000526040600020600091509150508060000154908060010154905082565b60016000803373ffffffffffffffffffffffffffffffffffffffff1673ffffffffffffffffffffffffffffffffffffffff1681526020019081526020016000205414610c9c57600080fd5b7f4c696e6500000000000000000000000000000000000000000000000000000000821415610ccc57806009819055505b5961012081016040526020815260e0602082015260e06000604083013760443560243560043560003560e01c60e01b61012085a4505050565b60085481565b60016000803373ffffffffffffffffffffffffffffffffffffffff1673ffffffffffffffffffffffffffffffffffffffff1681526020019081526020016000205414610d5657600080fd5b6000600260008381526020019081526020016000206001015414610d7957600080fd5b6b033b2e3c9fd0803ce800000060026000838152602001908152602001600020600101819055505961012081016040526020815260e0602082015260e06000604083013760443560243560043560003560e01c60e01b61012085a45050565b6001602052816000526040600020602052806000526040600020600091509150505481565b610e0783336123f7565b610e1057600080fd5b610e6a6004600086815260200190815260200160002060008573ffffffffffffffffffffffffffffffffffffffff1673ffffffffffffffffffffffffffffffffffffffff16815260200190815260200160002054826124b7565b6004600086815260200190815260200160002060008573ffffffffffffffffffffffffffffffffffffffff1673ffffffffffffffffffffffffffffffffffffffff16815260200190815260200160002081905550610f186004600086815260200190815260200160002060008473ffffffffffffffffffffffffffffffffffffffff1673ffffffffffffffffffffffffffffffffffffffff16815260200190815260200160002054826124d1565b6004600086815260200190815260200160002060008473ffffffffffffffffffffffffffffffffffffffff1673ffffffffffffffffffffffffffffffffffffffff168152602001908152602001600020819055505961012081016040526020815260e0602082015260e06000604083013760443560243560043560003560e01c60e01b61012085a45050505050565b60016000803373ffffffffffffffffffffffffffffffffffffffff1673ffffffffffffffffffffffffffffffffffffffff1681526020019081526020016000205414610ff257600080fd5b60016000808373ffffffffffffffffffffffffffffffffffffffff1673ffffffffffffffffffffffffffffffffffffffff168152602001908152602001600020819055505961012081016040526020815260e0602082015260e06000604083013760443560243560043560003560e01c60e01b61012085a45050565b60016000803373ffffffffffffffffffffffffffffffffffffffff1673ffffffffffffffffffffffffffffffffffffffff16815260200190815260200160002054146110b957600080fd5b6000600a819055505961012081016040526020815260e0602082015260e06000604083013760443560243560043560003560e01c60e01b61012085a450565b60056020528060005260406000206000915090505481565b6001600a541461111f57600080fd5b6111276125ea565b6003600088815260200190815260200160002060008773ffffffffffffffffffffffffffffffffffffffff1673ffffffffffffffffffffffffffffffffffffffff1681526020019081526020016000206040518060400160405290816000820154815260200160018201548152505090506111a0612604565b600260008981526020019081526020016000206040518060a001604052908160008201548152602001600182015481526020016002820154815260200160038201548152602001600482015481525050905060008160200151141561120457600080fd5b6112128260000151856124eb565b8260000181815250506112298260200151846124eb565b8260200181815250506112408160000151846124eb565b816000018181525050600061125982602001518561252a565b9050600061126f84602001518460200151612565565b905061127d600754836124eb565b6007819055506112b960008613156112b485606001516112a587600001518860200151612565565b11156009546007541115612591565b61259e565b6112c257600080fd5b6112f16112d760008713156000891215612591565b6112e986600001518660400151612565565b83111561259e565b6112fa57600080fd5b61131e61130f60008713156000891215612591565b6113198b336123f7565b61259e565b61132757600080fd5b61133e60008713156113398a336123f7565b61259e565b61134757600080fd5b61135e600086121561135989336123f7565b61259e565b61136757600080fd5b61137f6000856020015114846080015183101561259e565b61138857600080fd5b6113e2600460008c815260200190815260200160002060008a73ffffffffffffffffffffffffffffffffffffffff1673ffffffffffffffffffffffffffffffffffffffff16815260200190815260200160002054876125ab565b600460008c815260200190815260200160002060008a73ffffffffffffffffffffffffffffffffffffffff1673ffffffffffffffffffffffffffffffffffffffff1681526020019081526020016000208190555061147f600560008973ffffffffffffffffffffffffffffffffffffffff1673ffffffffffffffffffffffffffffffffffffffff16815260200190815260200160002054836124eb565b600560008973ffffffffffffffffffffffffffffffffffffffff1673ffffffffffffffffffffffffffffffffffffffff1681526020019081526020016000208190555083600360008c815260200190815260200160002060008b73ffffffffffffffffffffffffffffffffffffffff1673ffffffffffffffffffffffffffffffffffffffff168152602001908152602001600020600082015181600001556020820151816001015590505082600260008c81526020019081526020016000206000820151816000015560208201518160010155604082015181600201556060820151816003015560808201518160040155905050505050505961012081016040526020815260e0602082015260e06000604083013760443560243560043560003560e01c60e01b61012085a450505050505050565b60016000803373ffffffffffffffffffffffffffffffffffffffff1673ffffffffffffffffffffffffffffffffffffffff16815260200190815260200160002054146115ff57600080fd5b60006003600088815260200190815260200160002060008773ffffffffffffffffffffffffffffffffffffffff1673ffffffffffffffffffffffffffffffffffffffff168152602001908152602001600020905060006002600089815260200190815260200160002090506116788260000154856124eb565b826000018190555061168e8260010154846124eb565b82600101819055506116a48160000154846124eb565b816000018190555060006116bc82600101548561252a565b9050611718600460008b815260200190815260200160002060008973ffffffffffffffffffffffffffffffffffffffff1673ffffffffffffffffffffffffffffffffffffffff16815260200190815260200160002054866125ab565b600460008b815260200190815260200160002060008973ffffffffffffffffffffffffffffffffffffffff1673ffffffffffffffffffffffffffffffffffffffff168152602001908152602001600020819055506117b5600660008873ffffffffffffffffffffffffffffffffffffffff1673ffffffffffffffffffffffffffffffffffffffff16815260200190815260200160002054826125ab565b600660008873ffffffffffffffffffffffffffffffffffffffff1673ffffffffffffffffffffffffffffffffffffffff16815260200190815260200160002081905550611804600854826125ab565b6008819055505050505961012081016040526020815260e0602082015260e06000604083013760443560243560043560003560e01c60e01b61012085a450505050505050565b60016000803373ffffffffffffffffffffffffffffffffffffffff1673ffffffffffffffffffffffffffffffffffffffff168152602001908152602001600020541461189557600080fd5b6118ef6004600085815260200190815260200160002060008473ffffffffffffffffffffffffffffffffffffffff1673ffffffffffffffffffffffffffffffffffffffff16815260200190815260200160002054826124eb565b6004600085815260200190815260200160002060008473ffffffffffffffffffffffffffffffffffffffff1673ffffffffffffffffffffffffffffffffffffffff168152602001908152602001600020819055505961012081016040526020815260e0602082015260e06000604083013760443560243560043560003560e01c60e01b61012085a450505050565b60006003600087815260200190815260200160002060008673ffffffffffffffffffffffffffffffffffffffff1673ffffffffffffffffffffffffffffffffffffffff168152602001908152602001600020905060006003600088815260200190815260200160002060008673ffffffffffffffffffffffffffffffffffffffff1673ffffffffffffffffffffffffffffffffffffffff16815260200190815260200160002090506000600260008981526020019081526020016000209050611a4a8360000154866125ab565b8360000181905550611a608360010154856125ab565b8360010181905550611a768260000154866124eb565b8260000181905550611a8c8260010154856124eb565b82600101819055506000611aa884600101548360010154612565565b90506000611abe84600101548460010154612565565b9050611aca89336123f7565b8015611adc5750611adb88336123f7565b5b611ae557600080fd5b611af785600001548460020154612565565b821115611b0357600080fd5b611b1584600001548460020154612565565b811115611b2157600080fd5b826004015482101580611b38575060008560010154145b611b4157600080fd5b826004015481101580611b58575060008460010154145b611b6157600080fd5b50505050505961012081016040526020815260e0602082015260e06000604083013760443560243560043560003560e01c60e01b61012085a4505050505050565b600a5481565b60016000803373ffffffffffffffffffffffffffffffffffffffff1673ffffffffffffffffffffffffffffffffffffffff1681526020019081526020016000205414611bf357600080fd5b60008060008373ffffffffffffffffffffffffffffffffffffffff1673ffffffffffffffffffffffffffffffffffffffff168152602001908152602001600020819055505961012081016040526020815260e0602082015260e06000604083013760443560243560043560003560e01c60e01b61012085a45050565b60018060003373ffffffffffffffffffffffffffffffffffffffff1673ffffffffffffffffffffffffffffffffffffffff16815260200190815260200160002060008373ffffffffffffffffffffffffffffffffffffffff1673ffffffffffffffffffffffffffffffffffffffff1681526020019081526020016000208190555050565b60016000803373ffffffffffffffffffffffffffffffffffffffff1673ffffffffffffffffffffffffffffffffffffffff1681526020019081526020016000205414611d3e57600080fd5b6001600a5414611d4d57600080fd5b6000600260008581526020019081526020016000209050611d728160010154836124eb565b81600101819055506000611d8a82600001548461252a565b9050611dd5600560008673ffffffffffffffffffffffffffffffffffffffff1673ffffffffffffffffffffffffffffffffffffffff16815260200190815260200160002054826124eb565b600560008673ffffffffffffffffffffffffffffffffffffffff1673ffffffffffffffffffffffffffffffffffffffff16815260200190815260200160002081905550611e24600754826124eb565b60078190555050505961012081016040526020815260e0602082015260e06000604083013760443560243560043560003560e01c60e01b61012085a450505050565b60095481565b611e7683336123f7565b611e7f57600080fd5b611ec8600560008573ffffffffffffffffffffffffffffffffffffffff1673ffffffffffffffffffffffffffffffffffffffff16815260200190815260200160002054826124b7565b600560008573ffffffffffffffffffffffffffffffffffffffff1673ffffffffffffffffffffffffffffffffffffffff16815260200190815260200160002081905550611f54600560008473ffffffffffffffffffffffffffffffffffffffff1673ffffffffffffffffffffffffffffffffffffffff16815260200190815260200160002054826124d1565b600560008473ffffffffffffffffffffffffffffffffffffffff1673ffffffffffffffffffffffffffffffffffffffff168152602001908152602001600020819055505961012081016040526020815260e0602082015260e06000604083013760443560243560043560003560e01c60e01b61012085a450505050565b60006020528060005260406000206000915090505481565b60026020528060005260406000206000915090508060000154908060010154908060020154908060030154908060040154905085565b6000600160003373ffffffffffffffffffffffffffffffffffffffff1673ffffffffffffffffffffffffffffffffffffffff16815260200190815260200160002060008373ffffffffffffffffffffffffffffffffffffffff1673ffffffffffffffffffffffffffffffffffffffff1681526020019081526020016000208190555050565b60066020528060005260406000206000915090505481565b60016000803373ffffffffffffffffffffffffffffffffffffffff1673ffffffffffffffffffffffffffffffffffffffff168152602001908152602001600020541461210757600080fd5b612150600660008573ffffffffffffffffffffffffffffffffffffffff1673ffffffffffffffffffffffffffffffffffffffff16815260200190815260200160002054826124d1565b600660008573ffffffffffffffffffffffffffffffffffffffff1673ffffffffffffffffffffffffffffffffffffffff168152602001908152602001600020819055506121dc600560008473ffffffffffffffffffffffffffffffffffffffff1673ffffffffffffffffffffffffffffffffffffffff16815260200190815260200160002054826124d1565b600560008473ffffffffffffffffffffffffffffffffffffffff1673ffffffffffffffffffffffffffffffffffffffff1681526020019081526020016000208190555061222b600854826124d1565b60088190555061223d600754826124d1565b6007819055505961012081016040526020815260e0602082015260e06000604083013760443560243560043560003560e01c60e01b61012085a450505050565b60003390506122cb600660008373ffffffffffffffffffffffffffffffffffffffff1673ffffffffffffffffffffffffffffffffffffffff16815260200190815260200160002054836124b7565b600660008373ffffffffffffffffffffffffffffffffffffffff1673ffffffffffffffffffffffffffffffffffffffff16815260200190815260200160002081905550612357600560008373ffffffffffffffffffffffffffffffffffffffff1673ffffffffffffffffffffffffffffffffffffffff16815260200190815260200160002054836124b7565b600560008373ffffffffffffffffffffffffffffffffffffffff1673ffffffffffffffffffffffffffffffffffffffff168152602001908152602001600020819055506123a6600854836124b7565b6008819055506123b8600754836124b7565b600781905550505961012081016040526020815260e0602082015260e06000604083013760443560243560043560003560e01c60e01b61012085a45050565b60006124af8273ffffffffffffffffffffffffffffffffffffffff168473ffffffffffffffffffffffffffffffffffffffff161460018060008773ffffffffffffffffffffffffffffffffffffffff1673ffffffffffffffffffffffffffffffffffffffff16815260200190815260200160002060008673ffffffffffffffffffffffffffffffffffffffff1673ffffffffffffffffffffffffffffffffffffffff168152602001908152602001600020541461259e565b905092915050565b60008282840391508111156124cb57600080fd5b92915050565b60008282840191508110156124e557600080fd5b92915050565b600081830190506000821215806125025750828111155b61250b57600080fd5b60008213158061251b5750828110155b61252457600080fd5b92915050565b60008183029050600083121561253f57600080fd5b600082148061255657508282828161255357fe5b05145b61255f57600080fd5b92915050565b600080821480612582575082828385029250828161257f57fe5b04145b61258b57600080fd5b92915050565b6000818316905092915050565b6000818317905092915050565b600081830390506000821315806125c25750828111155b6125cb57600080fd5b6000821215806125db5750828110155b6125e457600080fd5b92915050565b604051806040016040528060008152602001600081525090565b6040518060a001604052806000815260200160008152602001600081526020016000815260200160008152509056fea165627a7a72305820ec357e91b3dd24ecb5cfd5add5f2b37fb8b1bbe95fc75faf023ee3520c1759380029",
  "source": "/// vat.sol -- Dai CDP database\n\n// Copyright (C) 2018 Rain <rainbreak@riseup.net>\n//\n// This program is free software: you can redistribute it and/or modify\n// it under the terms of the GNU Affero General Public License as published by\n// the Free Software Foundation, either version 3 of the License, or\n// (at your option) any later version.\n//\n// This program is distributed in the hope that it will be useful,\n// but WITHOUT ANY WARRANTY; without even the implied warranty of\n// MERCHANTABILITY or FITNESS FOR A PARTICULAR PURPOSE.  See the\n// GNU Affero General Public License for more details.\n//\n// You should have received a copy of the GNU Affero General Public License\n// along with this program.  If not, see <https://www.gnu.org/licenses/>.\n\npragma solidity >=0.5.0;\n\ncontract Vat {\n    // --- Auth ---\n    mapping (address => uint) public wards;\n    function rely(address usr) external note auth { wards[usr] = 1; }\n    function deny(address usr) external note auth { wards[usr] = 0; }\n    modifier auth { require(wards[msg.sender] == 1); _; }\n\n    mapping(address => mapping (address => uint)) public can;\n    function hope(address usr) external { can[msg.sender][usr] = 1; }\n    function nope(address usr) external { can[msg.sender][usr] = 0; }\n    function wish(address bit, address usr) internal view returns (bool) {\n        return either(bit == usr, can[bit][usr] == 1);\n    }\n\n    // --- Data ---\n    struct Ilk {\n        uint256 Art;   // Total Normalised Debt     [wad]\n        uint256 rate;  // Accumulated Rates         [ray]\n        uint256 spot;  // Price with Safety Margin  [ray]\n        uint256 line;  // Debt Ceiling              [rad]\n        uint256 dust;  // Urn Debt Floor            [rad]\n    }\n    struct Urn {\n        uint256 ink;   // Locked Collateral  [wad]\n        uint256 art;   // Normalised Debt    [wad]\n    }\n\n    mapping (bytes32 => Ilk)                       public ilks;\n    mapping (bytes32 => mapping (address => Urn )) public urns;\n    mapping (bytes32 => mapping (address => uint)) public gem;  // [wad]\n    mapping (address => uint256)                   public dai;  // [rad]\n    mapping (address => uint256)                   public sin;  // [rad]\n\n    uint256 public debt;  // Total Dai Issued    [rad]\n    uint256 public vice;  // Total Unbacked Dai  [rad]\n    uint256 public Line;  // Total Debt Ceiling  [rad]\n    uint256 public live;  // Access Flag\n\n    // --- Logs ---\n    event LogNote(\n        bytes4   indexed  sig,\n        bytes32  indexed  arg1,\n        bytes32  indexed  arg2,\n        bytes32  indexed  arg3,\n        bytes             data\n    ) anonymous;\n\n    modifier note {\n        _;\n        assembly {\n            // log an 'anonymous' event with a constant 6 words of calldata\n            // and four indexed topics: the selector and the first three args\n            let mark := msize                         // end of memory ensures zero\n            mstore(0x40, add(mark, 288))              // update free memory pointer\n            mstore(mark, 0x20)                        // bytes type data offset\n            mstore(add(mark, 0x20), 224)              // bytes size (padded)\n            calldatacopy(add(mark, 0x40), 0, 224)     // bytes payload\n            log4(mark, 288,                           // calldata\n                 shl(224, shr(224, calldataload(0))), // msg.sig\n                 calldataload(4),                     // arg1\n                 calldataload(36),                    // arg2\n                 calldataload(68)                     // arg3\n                )\n        }\n    }\n\n    // --- Init ---\n    constructor() public {\n        wards[msg.sender] = 1;\n        live = 1;\n    }\n\n    // --- Math ---\n    function add(uint x, int y) internal pure returns (uint z) {\n        z = x + uint(y);\n        require(y >= 0 || z <= x);\n        require(y <= 0 || z >= x);\n    }\n    function sub(uint x, int y) internal pure returns (uint z) {\n        z = x - uint(y);\n        require(y <= 0 || z <= x);\n        require(y >= 0 || z >= x);\n    }\n    function mul(uint x, int y) internal pure returns (int z) {\n        z = int(x) * y;\n        require(int(x) >= 0);\n        require(y == 0 || z / y == int(x));\n    }\n    function add(uint x, uint y) internal pure returns (uint z) {\n        require((z = x + y) >= x);\n    }\n    function sub(uint x, uint y) internal pure returns (uint z) {\n        require((z = x - y) <= x);\n    }\n    function mul(uint x, uint y) internal pure returns (uint z) {\n        require(y == 0 || (z = x * y) / y == x);\n    }\n\n    // --- Administration ---\n    function init(bytes32 ilk) external note auth {\n        require(ilks[ilk].rate == 0);\n        ilks[ilk].rate = 10 ** 27;\n    }\n    function file(bytes32 what, uint data) external note auth {\n        if (what == \"Line\") Line = data;\n    }\n    function file(bytes32 ilk, bytes32 what, uint data) external note auth {\n        if (what == \"spot\") ilks[ilk].spot = data;\n        if (what == \"line\") ilks[ilk].line = data;\n        if (what == \"dust\") ilks[ilk].dust = data;\n    }\n    function cage() external note auth {\n        live = 0;\n    }\n\n    // --- Fungibility ---\n    function slip(bytes32 ilk, address usr, int256 wad) external note auth {\n        gem[ilk][usr] = add(gem[ilk][usr], wad);\n    }\n    function flux(bytes32 ilk, address src, address dst, uint256 wad) external note {\n        require(wish(src, msg.sender));\n        gem[ilk][src] = sub(gem[ilk][src], wad);\n        gem[ilk][dst] = add(gem[ilk][dst], wad);\n    }\n    function move(address src, address dst, uint256 rad) external note {\n        require(wish(src, msg.sender));\n        dai[src] = sub(dai[src], rad);\n        dai[dst] = add(dai[dst], rad);\n    }\n\n    function either(bool x, bool y) internal pure returns (bool z) {\n        assembly{ z := or(x, y)}\n    }\n    function both(bool x, bool y) internal pure returns (bool z) {\n        assembly{ z := and(x, y)}\n    }\n\n    // --- CDP Manipulation ---\n    function frob(bytes32 i, address u, address v, address w, int dink, int dart) external note {\n        // system is live\n        require(live == 1);\n\n        Urn memory urn = urns[i][u];\n        Ilk memory ilk = ilks[i];\n        // ilk has been initialised\n        require(ilk.rate != 0);\n\n        urn.ink = add(urn.ink, dink);\n        urn.art = add(urn.art, dart);\n        ilk.Art = add(ilk.Art, dart);\n\n        int dtab = mul(ilk.rate, dart);\n        uint tab = mul(urn.art, ilk.rate);\n        debt     = add(debt, dtab);\n\n        // either debt has decreased, or debt ceilings are not exceeded\n        require(either(dart <= 0, both(mul(ilk.Art, ilk.rate) <= ilk.line, debt <= Line)));\n        // urn is either less risky than before, or it is safe\n        require(either(both(dart <= 0, dink >= 0), tab <= mul(urn.ink, ilk.spot)));\n\n        // urn is either more safe, or the owner consents\n        require(either(both(dart <= 0, dink >= 0), wish(u, msg.sender)));\n        // collateral src consents\n        require(either(dink <= 0, wish(v, msg.sender)));\n        // debt dst consents\n        require(either(dart >= 0, wish(w, msg.sender)));\n\n        // urn has no debt, or a non-dusty amount\n        require(either(urn.art == 0, tab >= ilk.dust));\n\n        gem[i][v] = sub(gem[i][v], dink);\n        dai[w]    = add(dai[w],    dtab);\n\n        urns[i][u] = urn;\n        ilks[i]    = ilk;\n    }\n    // --- CDP Fungibility ---\n    function fork(bytes32 ilk, address src, address dst, int dink, int dart) external note {\n        Urn storage u = urns[ilk][src];\n        Urn storage v = urns[ilk][dst];\n        Ilk storage i = ilks[ilk];\n\n        u.ink = sub(u.ink, dink);\n        u.art = sub(u.art, dart);\n        v.ink = add(v.ink, dink);\n        v.art = add(v.art, dart);\n\n        uint utab = mul(u.art, i.rate);\n        uint vtab = mul(v.art, i.rate);\n\n        // both sides consent\n        require(wish(src, msg.sender) && wish(dst, msg.sender));\n\n        // both sides safe\n        require(utab <= mul(u.ink, i.spot));\n        require(vtab <= mul(v.ink, i.spot));\n\n        // both sides non-dusty\n        require(utab >= i.dust || u.art == 0);\n        require(vtab >= i.dust || v.art == 0);\n    }\n    // --- CDP Confiscation ---\n    function grab(bytes32 i, address u, address v, address w, int dink, int dart) external note auth {\n        Urn storage urn = urns[i][u];\n        Ilk storage ilk = ilks[i];\n\n        urn.ink = add(urn.ink, dink);\n        urn.art = add(urn.art, dart);\n        ilk.Art = add(ilk.Art, dart);\n\n        int dtab = mul(ilk.rate, dart);\n\n        gem[i][v] = sub(gem[i][v], dink);\n        sin[w]    = sub(sin[w],    dtab);\n        vice      = sub(vice,      dtab);\n    }\n\n    // --- Settlement ---\n    function heal(uint rad) external note {\n        address u = msg.sender;\n        sin[u] = sub(sin[u], rad);\n        dai[u] = sub(dai[u], rad);\n        vice   = sub(vice,   rad);\n        debt   = sub(debt,   rad);\n    }\n    function suck(address u, address v, uint rad) external note auth {\n        sin[u] = add(sin[u], rad);\n        dai[v] = add(dai[v], rad);\n        vice   = add(vice,   rad);\n        debt   = add(debt,   rad);\n    }\n\n    // --- Rates ---\n    function fold(bytes32 i, address u, int rate) external note auth {\n        require(live == 1);\n        Ilk storage ilk = ilks[i];\n        ilk.rate = add(ilk.rate, rate);\n        int rad  = mul(ilk.Art, rate);\n        dai[u]   = add(dai[u], rad);\n        debt     = add(debt,   rad);\n    }\n}\n",
  "sourcePath": "E:/dss/contracts/vat.sol",
  "compiler": {
    "name": "solc",
    "version": "0.5.8+commit.23d335f2.Emscripten.clang"
  },
  "schemaVersion": "3.0.11",
  "updatedAt": "2019-08-16T08:34:24.227Z",
  "devdoc": {
    "methods": {}
  },
  "userdoc": {
    "methods": {}
  }
}